{"contracts/DDL.sol":{"DDL":{"abi":[{"inputs":[{"internalType":"address[4]","name":"_arrLongHegicStrategy","type":"address[4]"},{"internalType":"address[4]","name":"_arrShortHegicStrategy","type":"address[4]"},{"internalType":"contract IERC721","name":"_collateralToken","type":"address"},{"internalType":"contract IHegicOperationalTreasury","name":"_operationalPool","type":"address"},{"internalType":"contract IERC20","name":"_USDC","type":"address"},{"internalType":"uint256","name":"_minBorrowLimit","type":"uint256"},{"internalType":"uint256","name":"_ltv","type":"uint256"},{"internalType":"uint256","name":"_COLLATERAL_DECIMALS","type":"uint256"},{"internalType":"uint256","name":"_PriorLiqPriceCoef","type":"uint256"}],"stateMutability":"nonpayable","type":"constructor"},{"anonymous":false,"inputs":[{"indexed":true,"internalType":"address","name":"user","type":"address"},{"indexed":true,"internalType":"uint256","name":"optionID","type":"uint256"},{"indexed":false,"internalType":"uint256","name":"amount","type":"uint256"},{"indexed":false,"internalType":"address","name":"strategy","type":"address"},{"indexed":false,"internalType":"uint256","name":"timestamp","type":"uint256"}],"name":"Borrow","type":"event"},{"anonymous":false,"inputs":[{"indexed":true,"internalType":"address","name":"user","type":"address"},{"indexed":true,"internalType":"uint256","name":"optionID","type":"uint256"},{"indexed":false,"internalType":"uint256","name":"userReturn","type":"uint256"},{"indexed":false,"internalType":"uint256","name":"poolReturn","type":"uint256"},{"indexed":false,"internalType":"uint256","name":"liqFee","type":"uint256"}],"name":"ExerciseByPriorLiqPrice","type":"event"},{"anonymous":false,"inputs":[{"indexed":true,"internalType":"address","name":"user","type":"address"},{"indexed":true,"internalType":"uint256","name":"optionID","type":"uint256"},{"indexed":false,"internalType":"uint256","name":"amount","type":"uint256"},{"indexed":false,"internalType":"uint256","name":"poolProfit","type":"uint256"},{"indexed":false,"internalType":"uint256","name":"liqFee","type":"uint256"}],"name":"ForcedExercise","type":"event"},{"anonymous":false,"inputs":[{"indexed":true,"internalType":"address","name":"user","type":"address"},{"indexed":true,"internalType":"uint256","name":"optionID","type":"uint256"},{"indexed":false,"internalType":"uint256","name":"amount","type":"uint256"},{"indexed":false,"internalType":"uint256","name":"poolProfit","type":"uint256"},{"indexed":false,"internalType":"uint256","name":"liqFee","type":"uint256"}],"name":"Liquidate","type":"event"},{"anonymous":false,"inputs":[{"indexed":true,"internalType":"address","name":"previousOwner","type":"address"},{"indexed":true,"internalType":"address","name":"newOwner","type":"address"}],"name":"OwnershipTransferred","type":"event"},{"anonymous":false,"inputs":[{"indexed":true,"internalType":"address","name":"user","type":"address"},{"indexed":true,"internalType":"uint256","name":"optionID","type":"uint256"},{"indexed":false,"internalType":"uint256","name":"amount","type":"uint256"}],"name":"Repay","type":"event"},{"anonymous":false,"inputs":[{"indexed":true,"internalType":"address","name":"user","type":"address"},{"indexed":true,"internalType":"uint256","name":"optionID","type":"uint256"}],"name":"Unlock","type":"event"},{"inputs":[],"name":"COLLATERAL_DECIMALS","outputs":[{"internalType":"uint256","name":"","type":"uint256"}],"stateMutability":"view","type":"function"},{"inputs":[],"name":"INTEREST_RATE_DECIMALS","outputs":[{"internalType":"uint256","name":"","type":"uint256"}],"stateMutability":"view","type":"function"},{"inputs":[],"name":"LTV","outputs":[{"internalType":"uint256","name":"","type":"uint256"}],"stateMutability":"view","type":"function"},{"inputs":[],"name":"LTV_DECIMALS","outputs":[{"internalType":"uint256","name":"","type":"uint256"}],"stateMutability":"view","type":"function"},{"inputs":[],"name":"PriorLiqPriceCoef","outputs":[{"internalType":"uint256","name":"","type":"uint256"}],"stateMutability":"view","type":"function"},{"inputs":[],"name":"USDC","outputs":[{"internalType":"contract IERC20","name":"","type":"address"}],"stateMutability":"view","type":"function"},{"inputs":[{"internalType":"uint256","name":"id","type":"uint256"},{"internalType":"uint256","name":"amount","type":"uint256"}],"name":"borrow","outputs":[],"stateMutability":"nonpayable","type":"function"},{"inputs":[{"internalType":"uint256","name":"","type":"uint256"}],"name":"borrowedByOption","outputs":[{"internalType":"uint256","name":"borrowed","type":"uint256"},{"internalType":"uint256","name":"newBorrowTimestamp","type":"uint256"}],"stateMutability":"view","type":"function"},{"inputs":[{"internalType":"uint256","name":"id","type":"uint256"}],"name":"calculateUpcomingFee","outputs":[{"internalType":"uint256","name":"upcomingFee","type":"uint256"}],"stateMutability":"view","type":"function"},{"inputs":[{"internalType":"uint256","name":"","type":"uint256"}],"name":"collateralInfo","outputs":[{"internalType":"address","name":"owner","type":"address"},{"components":[{"internalType":"address","name":"strategyAddress","type":"address"},{"internalType":"uint256","name":"amount","type":"uint256"},{"internalType":"uint256","name":"strike","type":"uint256"},{"internalType":"uint256","name":"expiration","type":"uint256"},{"internalType":"bool","name":"isLong","type":"bool"}],"internalType":"struct DDL.optionInfo","name":"strategy","type":"tuple"}],"stateMutability":"view","type":"function"},{"inputs":[],"name":"collateralToken","outputs":[{"internalType":"contract IERC721","name":"","type":"address"}],"stateMutability":"view","type":"function"},{"inputs":[{"internalType":"uint256","name":"id","type":"uint256"}],"name":"currentLiqPrice","outputs":[{"internalType":"uint256","name":"price","type":"uint256"}],"stateMutability":"view","type":"function"},{"inputs":[{"internalType":"uint256","name":"id","type":"uint256"}],"name":"currentPrice","outputs":[{"internalType":"uint256","name":"price","type":"uint256"}],"stateMutability":"view","type":"function"},{"inputs":[{"internalType":"uint256","name":"id","type":"uint256"}],"name":"exerciseByPriorLiqPrice","outputs":[],"stateMutability":"nonpayable","type":"function"},{"inputs":[{"internalType":"uint256","name":"id","type":"uint256"}],"name":"forcedExercise","outputs":[],"stateMutability":"nonpayable","type":"function"},{"inputs":[],"name":"interestRate","outputs":[{"internalType":"uint256","name":"","type":"uint256"}],"stateMutability":"view","type":"function"},{"inputs":[{"internalType":"uint256","name":"id","type":"uint256"}],"name":"liqPrice","outputs":[{"internalType":"uint256","name":"price","type":"uint256"}],"stateMutability":"view","type":"function"},{"inputs":[{"internalType":"uint256","name":"id","type":"uint256"}],"name":"liquidate","outputs":[],"stateMutability":"nonpayable","type":"function"},{"inputs":[{"internalType":"uint256","name":"id","type":"uint256"}],"name":"loanState","outputs":[{"internalType":"bool","name":"","type":"bool"}],"stateMutability":"view","type":"function"},{"inputs":[{"internalType":"uint256","name":"id","type":"uint256"}],"name":"loanStateByPriorLiqPrice","outputs":[{"internalType":"bool","name":"","type":"bool"}],"stateMutability":"view","type":"function"},{"inputs":[{"internalType":"uint256","name":"id","type":"uint256"}],"name":"lockOption","outputs":[],"stateMutability":"nonpayable","type":"function"},{"inputs":[{"internalType":"uint256","name":"id","type":"uint256"}],"name":"maxBorrowLimit","outputs":[{"internalType":"uint256","name":"","type":"uint256"}],"stateMutability":"view","type":"function"},{"inputs":[],"name":"minBorrowLimit","outputs":[{"internalType":"uint256","name":"","type":"uint256"}],"stateMutability":"view","type":"function"},{"inputs":[],"name":"operationalPool","outputs":[{"internalType":"contract IHegicOperationalTreasury","name":"","type":"address"}],"stateMutability":"view","type":"function"},{"inputs":[],"name":"owner","outputs":[{"internalType":"address","name":"","type":"address"}],"stateMutability":"view","type":"function"},{"inputs":[],"name":"pool","outputs":[{"internalType":"contract IPoolDDL","name":"","type":"address"}],"stateMutability":"view","type":"function"},{"inputs":[{"internalType":"uint256","name":"id","type":"uint256"}],"name":"priorLiqPrice","outputs":[{"internalType":"uint256","name":"price","type":"uint256"}],"stateMutability":"view","type":"function"},{"inputs":[{"internalType":"uint256","name":"id","type":"uint256"}],"name":"profitByOption","outputs":[{"internalType":"uint256","name":"profit","type":"uint256"}],"stateMutability":"view","type":"function"},{"inputs":[],"name":"renounceOwnership","outputs":[],"stateMutability":"nonpayable","type":"function"},{"inputs":[{"internalType":"uint256","name":"id","type":"uint256"},{"internalType":"uint256","name":"amount","type":"uint256"}],"name":"repay","outputs":[],"stateMutability":"nonpayable","type":"function"},{"inputs":[{"internalType":"uint256","name":"value","type":"uint256"}],"name":"setInterestRate","outputs":[],"stateMutability":"nonpayable","type":"function"},{"inputs":[{"internalType":"uint256","name":"value","type":"uint256"}],"name":"setInterestRateDecimals","outputs":[],"stateMutability":"nonpayable","type":"function"},{"inputs":[{"internalType":"uint256","name":"value","type":"uint256"}],"name":"setLTV","outputs":[],"stateMutability":"nonpayable","type":"function"},{"inputs":[{"internalType":"uint256","name":"value","type":"uint256"}],"name":"setMinBorrowLimit","outputs":[],"stateMutability":"nonpayable","type":"function"},{"inputs":[{"internalType":"address","name":"value","type":"address"}],"name":"setPool","outputs":[],"stateMutability":"nonpayable","type":"function"},{"inputs":[{"internalType":"address","name":"","type":"address"}],"name":"strategyType","outputs":[{"internalType":"enum DDL.HegicStrategyType","name":"","type":"uint8"}],"stateMutability":"view","type":"function"},{"inputs":[{"internalType":"address","name":"newOwner","type":"address"}],"name":"transferOwnership","outputs":[],"stateMutability":"nonpayable","type":"function"},{"inputs":[{"internalType":"uint256","name":"id","type":"uint256"}],"name":"unlock","outputs":[],"stateMutability":"nonpayable","type":"function"}],"devdoc":{"kind":"dev","methods":{"owner()":{"details":"Returns the address of the current owner."},"renounceOwnership()":{"details":"Leaves the contract without owner. It will not be possible to call `onlyOwner` functions anymore. Can only be called by the current owner. NOTE: Renouncing ownership will leave the contract without an owner, thereby removing any functionality that is only available to the owner."},"transferOwnership(address)":{"details":"Transfers ownership of the contract to a new account (`newOwner`). Can only be called by the current owner."}},"version":1},"evm":{"bytecode":{"linkReferences":{},"object":"60806040526127106002556a0fbce2c2bf9557000000006006556c0c9f2c9cd04674edea400000006007553480156200003757600080fd5b5060405162002ee538038062002ee58339810160408190526200005a91620002c4565b6200006533620001d0565b60005b6004811015620000e5576001600e60008c84600481106200008d576200008d620004cb565b602090810291909101516001600160a01b03168252810191909152604001600020805460ff19166001836002811115620000cb57620000cb620004b5565b021790555080620000dc8162000481565b91505062000068565b5060005b600481101562000166576002600e60008b84600481106200010e576200010e620004cb565b602090810291909101516001600160a01b03168252810191909152604001600020805460ff191660018360028111156200014c576200014c620004b5565b0217905550806200015d8162000481565b915050620000e9565b50600380546001600160a01b03808a166001600160a01b03199283161790925560048054898416908316179055600580549288169290911691909117905560088490556001839055620001bb82600a620003b6565b600955600a5550620004fa9650505050505050565b600080546001600160a01b038381166001600160a01b0319831681178455604051919092169283917f8be0079c531659141344cd1fd0a4f28419497f9722a3daafe3b4186f6b6457e09190a35050565b80516200022d81620004e1565b919050565b600082601f8301126200024457600080fd5b604051608081016001600160401b03811182821017156200027557634e487b7160e01b600052604160045260246000fd5b6040528083608081018610156200028b57600080fd5b60005b6004811015620002b957620002a38262000220565b835260209283019291909101906001016200028e565b509195945050505050565b60008060008060008060008060006101e08a8c031215620002e457600080fd5b620002f08b8b62000232565b9850620003018b60808c0162000232565b97506101008a01516200031481620004e1565b6101208b01519097506200032881620004e1565b6101408b01519096506200033c81620004e1565b809550506101608a015193506101808a015192506101a08a015191506101c08a015190509295985092959850929598565b600181815b80851115620003ae5781600019048211156200039257620003926200049f565b80851615620003a057918102915b93841c939080029062000372565b509250929050565b6000620003c48383620003cb565b9392505050565b600082620003dc575060016200047b565b81620003eb575060006200047b565b81600181146200040457600281146200040f576200042f565b60019150506200047b565b60ff8411156200042357620004236200049f565b50506001821b6200047b565b5060208310610133831016604e8410600b841016171562000454575081810a6200047b565b6200046083836200036d565b80600019048211156200047757620004776200049f565b0290505b92915050565b60006000198214156200049857620004986200049f565b5060010190565b634e487b7160e01b600052601160045260246000fd5b634e487b7160e01b600052602160045260246000fd5b634e487b7160e01b600052603260045260246000fd5b6001600160a01b0381168114620004f757600080fd5b50565b6129db806200050a6000396000f3fe608060405234801561001057600080fd5b50600436106102325760003560e01c806366234ffa116101305780639d38d064116100b8578063d88c69101161007c578063d88c691014610593578063d8aed145146105a6578063e260d747146105b9578063f05735db146105c2578063f2fde38b146105d557600080fd5b80639d38d0641461053e5780639e3aa5b114610547578063b13de2661461055a578063b2016bd41461056d578063c37077091461058057600080fd5b80637c3a00fd116100ff5780637c3a00fd146104eb57806389a30271146104f45780638ac2edc1146105075780638da5cb5b1461051a578063913198721461052b57600080fd5b806366234ffa1461048b5780636c016c0014610494578063715018a6146104d05780637a3c4c17146104d857600080fd5b8063415f1240116101be5780634ddde78d116101825780634ddde78d14610440578063587a03c2146104495780635f84f3021461045c5780636198e3391461046f57806362965d8e1461048257600080fd5b8063415f1240146103eb578063425378b4146103fe5780634437152a14610407578063484f13711461041a57806349b274ed1461042d57600080fd5b806324a6665e1161020557806324a6665e146102b05780632cb2f33414610372578063333daaa014610385578063357bcef014610398578063365c7504146103c857600080fd5b806301d73641146102375780630833a6c61461024c5780630ecbcdab1461027257806316f0115b14610285575b600080fd5b61024a61024536600461280f565b6105e8565b005b61025f61025a36600461280f565b6108b6565b6040519081526020015b60405180910390f35b61024a610280366004612841565b6109bb565b600b54610298906001600160a01b031681565b6040516001600160a01b039091168152602001610269565b6103236102be36600461280f565b600c602090815260009182526040918290208054835160a08101855260018301546001600160a01b0390811682526002840154948201949094526003830154948101949094526004820154606085015260059091015460ff1615156080840152169082565b604080516001600160a01b0393841681528251909316602080850191909152820151838201528101516060808401919091528101516080808401919091520151151560a082015260c001610269565b61025f61038036600461280f565b611039565b61024a61039336600461280f565b61109f565b6103bb6103a6366004612705565b600e6020526000908152604090205460ff1681565b60405161026991906128cc565b6103db6103d636600461280f565b6113a0565b6040519015158152602001610269565b61024a6103f936600461280f565b6113f1565b61025f600a5481565b61024a610415366004612705565b611694565b61025f61042836600461280f565b6116be565b6103db61043b36600461280f565b611727565b61025f60095481565b61024a61045736600461280f565b611754565b61024a61046a36600461280f565b611761565b61024a61047d36600461280f565b61176e565b61025f60015481565b61025f60075481565b6104bb6104a236600461280f565b600d602052600090815260409020805460019091015482565b60408051928352602083019190915201610269565b61024a611869565b61025f6104e636600461280f565b61187d565b61025f60065481565b600554610298906001600160a01b031681565b61024a61051536600461280f565b611988565b6000546001600160a01b0316610298565b600454610298906001600160a01b031681565b61025f60025481565b61025f61055536600461280f565b611eb3565b61024a61056836600461280f565b611ede565b600354610298906001600160a01b031681565b61024a61058e36600461280f565b611f2d565b61025f6105a136600461280f565b611f3a565b61024a6105b4366004612841565b6120f7565b61025f60085481565b61025f6105d036600461280f565b6123e5565b61024a6105e3366004612705565b612539565b6000818152600c6020526040902060040154610607906107089061294d565b421161061257600080fd5b6000818152600d602052604081209061062a836108b6565b9050610635836125b2565b815460009082111561079a57825461064d908361294d565b600554600b549192506001600160a01b039081169163a9059cbb9116606461067685605a61292e565b610680919061290c565b865461068c91906128f4565b6040518363ffffffff1660e01b81526004016106a99291906128b3565b602060405180830381600087803b1580156106c357600080fd5b505af11580156106d7573d6000803e3d6000fd5b505050506040513d601f19601f820116820180604052508101906106fb919061273f565b506005546001600160a01b031663a9059cbb33606461071b85600a61292e565b610725919061290c565b6040518363ffffffff1660e01b81526004016107429291906128b3565b602060405180830381600087803b15801561075c57600080fd5b505af1158015610770573d6000803e3d6000fd5b505050506040513d601f19601f82011682018060405250810190610794919061273f565b50610824565b600554600b5460405163a9059cbb60e01b81526001600160a01b039283169263a9059cbb926107d09291169086906004016128b3565b602060405180830381600087803b1580156107ea57600080fd5b505af11580156107fe573d6000803e3d6000fd5b505050506040513d601f19601f82011682018060405250810190610822919061273f565b505b6000848152600c6020526040902054835485916001600160a01b0316907f7510f2e218f218a66429c54a712775c000c398117e38b240be7ef52310a51e8290606461087086605a61292e565b61087a919061290c565b606461088787600a61292e565b610891919061290c565b604080519384526020840192909252908201526060015b60405180910390a350505050565b60048054604051633755269b60e01b815291820183905260009182916001600160a01b031690633755269b9060240160a06040518083038186803b1580156108fd57600080fd5b505afa158015610911573d6000803e3d6000fd5b505050506040513d601f19601f820116820180604052508101906109359190612761565b5050604051637632bffb60e01b815260048101879052919350506001600160a01b0383169150637632bffb9060240160206040518083038186803b15801561097c57600080fd5b505afa158015610990573d6000803e3d6000fd5b505050506040513d601f19601f820116820180604052508101906109b49190612828565b9392505050565b600b60009054906101000a90046001600160a01b03166001600160a01b031663ae3050e16040518163ffffffff1660e01b815260040160206040518083038186803b158015610a0957600080fd5b505afa158015610a1d573d6000803e3d6000fd5b505050506040513d601f19601f82011682018060405250810190610a41919061273f565b610a825760405162461bcd60e51b815260206004820152600d60248201526c1c185d5cd95119511953195b99609a1b60448201526064015b60405180910390fd5b6000828152600d6020526040812090610a9a84611eb3565b60048054604051633755269b60e01b81529182018790529192506000916001600160a01b031690633755269b9060240160a06040518083038186803b158015610ae257600080fd5b505afa158015610af6573d6000803e3d6000fd5b505050506040513d601f19601f82011682018060405250810190610b1a9190612761565b5050505090506000600b60009054906101000a90046001600160a01b03166001600160a01b03166312b583496040518163ffffffff1660e01b815260040160206040518083038186803b158015610b7057600080fd5b505afa158015610b84573d6000803e3d6000fd5b505050506040513d601f19601f82011682018060405250810190610ba89190612828565b9050600854851015610bfc5760405162461bcd60e51b815260206004820152601a60248201527f616d6f756e74206c657373206d696e426f72726f774c696d69740000000000006044820152606401610a79565b83548390610c0a90876128f4565b1115610c645760405162461bcd60e51b8152602060048201526024808201527f616d6f756e74202b20646174612e626f72726f776564206c657373206d61784c6044820152631a5b5a5d60e21b6064820152608401610a79565b6001826001811115610c7857610c7861297a565b14610cb55760405162461bcd60e51b815260206004820152600d60248201526c696e76616c696420737461746560981b6044820152606401610a79565b6000868152600c60205260409020546001600160a01b03163314610d135760405162461bcd60e51b81526020600482015260156024820152743cb7ba9030b932903737ba103a34329037bbb732b960591b6044820152606401610a79565b80851115610d715760405162461bcd60e51b815260206004820152602560248201527f7468657265206973206e6f7420656e6f756768206d6f6e657920696e20746865604482015264081c1bdbdb60da1b6064820152608401610a79565b6000868152600c6020526040902060040154610d9090610e109061294d565b421115610dca5760405162461bcd60e51b8152602060048201526008602482015267746f6f206c61746560c01b6044820152606401610a79565b6000868152600c602052604090206005015460ff1615610e3f57610ded866123e5565b610df68761187d565b11610e3a5760405162461bcd60e51b815260206004820152601460248201527374686520707269636520697320746f6f206c6f7760601b6044820152606401610a79565b610e96565b610e48866123e5565b610e518761187d565b10610e965760405162461bcd60e51b81526020600482015260156024820152740e8d0ca40e0e4d2c6ca40d2e640e8dede40d0d2ced605b1b6044820152606401610a79565b6000610ea1876116be565b9050604051806040016040528082876000015489610ebf91906128f4565b610ec991906128f4565b8152426020918201526000898152600d82526040902082518155910151600190910155600b546001600160a01b0316632bc355ca610f0783896128f4565b6040518263ffffffff1660e01b8152600401610f2591815260200190565b600060405180830381600087803b158015610f3f57600080fd5b505af1158015610f53573d6000803e3d6000fd5b5050600b5460008a8152600c602052604090819020549051633419e74d60e21b81526001600160a01b03928316945063d0679d349350610f9b92909116908a906004016128b3565b600060405180830381600087803b158015610fb557600080fd5b505af1158015610fc9573d6000803e3d6000fd5b5050506000888152600c60209081526040918290206001015482518a81526001600160a01b03909116918101919091524281830152905189925033917f1fdbee5d1bd2901710e8945918b1a052ce67662661a2ccbf68420e4e430f8dab919081900360600190a350505050505050565b6000818152600c60205260408120600581015460ff161561107e5761105d83611f3a565b611066846123e5565b1115611075576109b4836123e5565b6109b483611f3a565b61108783611f3a565b611090846123e5565b1015611075576109b4836123e5565b6110a8816113a0565b6110e45760405162461bcd60e51b815260206004820152600d60248201526c696e76616c696420707269636560981b6044820152606401610a79565b6000818152600d60205260408120906110fc836108b6565b9050611107836125b2565b600554600b54835460405163a9059cbb60e01b81526001600160a01b039384169363a9059cbb9361113d939116916004016128b3565b602060405180830381600087803b15801561115757600080fd5b505af115801561116b573d6000803e3d6000fd5b505050506040513d601f19601f8201168201806040525081019061118f919061273f565b506005546000848152600c602052604090205483546001600160a01b039283169263a9059cbb9216906064906111c690600a61292e565b6111d0919061290c565b85546111dc91906128f4565b6111e6908561294d565b6040518363ffffffff1660e01b81526004016112039291906128b3565b602060405180830381600087803b15801561121d57600080fd5b505af1158015611231573d6000803e3d6000fd5b505050506040513d601f19601f82011682018060405250810190611255919061273f565b5060055482546001600160a01b039091169063a9059cbb90339060649061127d90600a61292e565b611287919061290c565b6040518363ffffffff1660e01b81526004016112a49291906128b3565b602060405180830381600087803b1580156112be57600080fd5b505af11580156112d2573d6000803e3d6000fd5b505050506040513d601f19601f820116820180604052508101906112f6919061273f565b506000838152600c6020526040902054825484916001600160a01b0316907ff28455920a5bcb3aeff7a6bbdd4fed497e6f159330fe161026128b5c381bdd909060649061134490600a61292e565b61134e919061290c565b855461135a91906128f4565b611364908561294d565b8554606461137382600a61292e565b61137d919061290c565b6040805193845260208401929092529082015260600160405180910390a3505050565b6000818152600c60205260408120600581015460ff16156113d6576113c4836123e5565b6113cd8461187d565b11159392505050565b6113df836123e5565b6113e88461187d565b10159392505050565b6113fa81611727565b6114365760405162461bcd60e51b815260206004820152600d60248201526c696e76616c696420707269636560981b6044820152606401610a79565b6000818152600d602052604081209061144e836108b6565b9050611459836125b2565b81546000908211156115be578254611471908361294d565b600554600b549192506001600160a01b039081169163a9059cbb9116606461149a85605a61292e565b6114a4919061290c565b86546114b091906128f4565b6040518363ffffffff1660e01b81526004016114cd9291906128b3565b602060405180830381600087803b1580156114e757600080fd5b505af11580156114fb573d6000803e3d6000fd5b505050506040513d601f19601f8201168201806040525081019061151f919061273f565b506005546001600160a01b031663a9059cbb33606461153f85600a61292e565b611549919061290c565b6040518363ffffffff1660e01b81526004016115669291906128b3565b602060405180830381600087803b15801561158057600080fd5b505af1158015611594573d6000803e3d6000fd5b505050506040513d601f19601f820116820180604052508101906115b8919061273f565b50611648565b600554600b5460405163a9059cbb60e01b81526001600160a01b039283169263a9059cbb926115f49291169086906004016128b3565b602060405180830381600087803b15801561160e57600080fd5b505af1158015611622573d6000803e3d6000fd5b505050506040513d601f19601f82011682018060405250810190611646919061273f565b505b6000848152600c6020526040902054835485916001600160a01b0316907f4e91025e01b2329df1ec1067d27aafec4d1c41f682ccd794dee04321e0b1e8dc90606461087086605a61292e565b61169c612625565b600b80546001600160a01b0319166001600160a01b0392909216919091179055565b6000818152600d6020526040812060018101548290603c906116e0904261294d565b6116ea919061290c565b9050600754600654826116fd919061292e565b835461170b9060649061290c565b611715919061292e565b61171f919061290c565b949350505050565b6000818152600c60205260408120600581015460ff161561174b576113c483611f3a565b6113df83611f3a565b61175c612625565b600755565b611769612625565b600655565b6000818152600d6020526040902054156117be5760405162461bcd60e51b81526020600482015260116024820152701bdc1d1a5bdb881a5cc8189b1bd8dad959607a1b6044820152606401610a79565b6003546000828152600c6020526040908190205490516323b872dd60e01b81523060048201526001600160a01b039182166024820152604481018490529116906323b872dd90606401600060405180830381600087803b15801561182157600080fd5b505af1158015611835573d6000803e3d6000fd5b50506040518392503391507f6381d9813cabeb57471b5a7e05078e64845ccdb563146a6911d536f24ce960f190600090a350565b611871612625565b61187b600061267f565b565b6000818152600c6020908152604080832060018101548251635c4443cf60e11b81529251919385936001600160a01b039092169263b888879e926004808201939291829003018186803b1580156118d357600080fd5b505afa1580156118e7573d6000803e3d6000fd5b505050506040513d601f19601f8201168201806040525081019061190b9190612722565b6001600160a01b031663feaf968c6040518163ffffffff1660e01b815260040160a06040518083038186803b15801561194357600080fd5b505afa158015611957573d6000803e3d6000fd5b505050506040513d601f19601f8201168201806040525081019061197b9190612863565b5091979650505050505050565b600b60009054906101000a90046001600160a01b03166001600160a01b031663ae3050e16040518163ffffffff1660e01b815260040160206040518083038186803b1580156119d657600080fd5b505afa1580156119ea573d6000803e3d6000fd5b505050506040513d601f19601f82011682018060405250810190611a0e919061273f565b611a4a5760405162461bcd60e51b815260206004820152600d60248201526c1c185d5cd95119511953195b99609a1b6044820152606401610a79565b60048054604051633755269b60e01b8152918201839052600091829182916001600160a01b0390911690633755269b9060240160a06040518083038186803b158015611a9557600080fd5b505afa158015611aa9573d6000803e3d6000fd5b505050506040513d601f19601f82011682018060405250810190611acd9190612761565b9450505092509250610e108163ffffffff16611ae9919061294d565b421115611b235760405162461bcd60e51b8152602060048201526008602482015267746f6f206c61746560c01b6044820152606401610a79565b6040516335b2346d60e21b81526004810185905260009081906001600160a01b0385169063d6c8d1b490602401604080518083038186803b158015611b6757600080fd5b505afa158015611b7b573d6000803e3d6000fd5b505050506040513d601f19601f82011682018060405250810190611b9f91906127dc565b90925090506001856001811115611bb857611bb861297a565b14611bf85760405162461bcd60e51b815260206004820152601060248201526f6f7074696f6e2069732061637469766560801b6044820152606401610a79565b6003546040516331a9108f60e11b81526004810188905233916001600160a01b031690636352211e9060240160206040518083038186803b158015611c3c57600080fd5b505afa158015611c50573d6000803e3d6000fd5b505050506040513d601f19601f82011682018060405250810190611c749190612722565b6001600160a01b031614611cba5760405162461bcd60e51b815260206004820152600d60248201526c3cb7ba903737ba1037bbb732b960991b6044820152606401610a79565b6001600160a01b0384166000908152600e602052604081205460ff166002811115611ce757611ce761297a565b1415611d2e5760405162461bcd60e51b81526020600482015260166024820152751cdd1c985d1959de481b9bdd081cdd5c1c1bdc9d195960521b6044820152606401610a79565b6003546040516323b872dd60e01b8152336004820152306024820152604481018890526001600160a01b03909116906323b872dd90606401600060405180830381600087803b158015611d8057600080fd5b505af1158015611d94573d6000803e3d6000fd5b506000925060019150611da49050565b6001600160a01b0386166000908152600e602052604090205460ff166002811115611dd157611dd161297a565b14611ddd576000611de0565b60015b604080518082018252338152815160a0810183526001600160a01b0398891681526001600160801b03968716602082810191909152959096168683015263ffffffff9096166060808701919091529115156080808701919091528487019586526000998a52600c855298819020955186549088166001600160a01b03199182161787559451805160018801805491909916961695909517909655918301516002850155509281015160038301559182015160048201559201516005909201805492151560ff199093169290921790915550565b6000600154600254611ec4846108b6565b611ece919061290c565b611ed8919061292e565b92915050565b611ee6612625565b611f40811115611f285760405162461bcd60e51b815260206004820152600d60248201526c696e76616c69642076616c756560981b6044820152606401610a79565b600155565b611f35612625565b600855565b6000818152600d60209081526040808320600c909252808320600480549251633755269b60e01b8152908101869052909184916001600160a01b0390911690633755269b9060240160a06040518083038186803b158015611f9a57600080fd5b505afa158015611fae573d6000803e3d6000fd5b505050506040513d601f19601f82011682018060405250810190611fd29190612761565b505050915050600080826001600160a01b031663d6c8d1b4886040518263ffffffff1660e01b815260040161200991815260200190565b604080518083038186803b15801561202057600080fd5b505afa158015612034573d6000803e3d6000fd5b505050506040513d601f19601f8201168201806040525081019061205891906127dc565b6005860154919350915060ff16156120b65760095485546001600160801b038416916120839161292e565b61208d919061290c565b61209890607861292e565b6120ab906001600160801b0383166128f4565b979650505050505050565b60095485546001600160801b038416916120cf9161292e565b6120d9919061290c565b6120e490607861292e565b6120ab906001600160801b03831661294d565b6000828152600d60205260409020546121445760405162461bcd60e51b815260206004820152600f60248201526e1bdc1d1a5bdb881c995919595b5959608a1b6044820152606401610a79565b600061214f836116be565b6000848152600d602052604090205490915061216c9082906128f4565b8211156121ad5760405162461bcd60e51b815260206004820152600f60248201526e1d1bdbc81b5d58da08185b5bdd5b9d608a1b6044820152606401610a79565b6000838152600c60205260409020546001600160a01b031633146121d057600080fd5b6000838152600d602052604081205483906121ec9084906128f4565b6121f6919061294d565b600b549091506001600160a01b0316631b45a68d612214848661294d565b6040518263ffffffff1660e01b815260040161223291815260200190565b600060405180830381600087803b15801561224c57600080fd5b505af1158015612260573d6000803e3d6000fd5b505060408051808201825284815242602080830191825260008a8152600d8252848120935184559151600190930192909255600554600c9092528290205491516323b872dd60e01b81526001600160a01b03928316600482015230602482015260448101889052911692506323b872dd9150606401602060405180830381600087803b1580156122ef57600080fd5b505af1158015612303573d6000803e3d6000fd5b505050506040513d601f19601f82011682018060405250810190612327919061273f565b50600554600b5460405163a9059cbb60e01b81526001600160a01b039283169263a9059cbb9261235e9291169087906004016128b3565b602060405180830381600087803b15801561237857600080fd5b505af115801561238c573d6000803e3d6000fd5b505050506040513d601f19601f820116820180604052508101906123b0919061273f565b50604051838152849033907f77c6871227e5d2dec8dadd5354f78453203e22e669cd0ec4c19d9a8c5edb31d0906020016108a8565b60048054604051633755269b60e01b815291820183905260009182916001600160a01b031690633755269b9060240160a06040518083038186803b15801561242c57600080fd5b505afa158015612440573d6000803e3d6000fd5b505050506040513d601f19601f820116820180604052508101906124649190612761565b50506040516335b2346d60e21b81526004810187905291935060009250506001600160a01b0383169063d6c8d1b490602401604080518083038186803b1580156124ad57600080fd5b505afa1580156124c1573d6000803e3d6000fd5b505050506040513d601f19601f820116820180604052508101906124e591906127dc565b6000868152600c602052604090206005015490925060ff16159050612528576064600a54606461251591906128f4565b611715906001600160801b03841661292e565b6064600a546064612515919061294d565b612541612625565b6001600160a01b0381166125a65760405162461bcd60e51b815260206004820152602660248201527f4f776e61626c653a206e6577206f776e657220697320746865207a65726f206160448201526564647265737360d01b6064820152608401610a79565b6125af8161267f565b50565b6000818152600c6020526040908190206001810154915163b07f0a4160e01b81526004810184905290916001600160a01b03169063b07f0a4190602401600060405180830381600087803b15801561260957600080fd5b505af115801561261d573d6000803e3d6000fd5b505050505050565b6000546001600160a01b0316331461187b5760405162461bcd60e51b815260206004820181905260248201527f4f776e61626c653a2063616c6c6572206973206e6f7420746865206f776e65726044820152606401610a79565b600080546001600160a01b038381166001600160a01b0319831681178455604051919092169283917f8be0079c531659141344cd1fd0a4f28419497f9722a3daafe3b4186f6b6457e09190a35050565b80516001600160801b03811681146126e657600080fd5b919050565b805169ffffffffffffffffffff811681146126e657600080fd5b60006020828403121561271757600080fd5b81356109b481612990565b60006020828403121561273457600080fd5b81516109b481612990565b60006020828403121561275157600080fd5b815180151581146109b457600080fd5b600080600080600060a0868803121561277957600080fd5b85516002811061278857600080fd5b602087015190955061279981612990565b93506127a7604087016126cf565b92506127b5606087016126cf565b9150608086015163ffffffff811681146127ce57600080fd5b809150509295509295909350565b600080604083850312156127ef57600080fd5b6127f8836126cf565b9150612806602084016126cf565b90509250929050565b60006020828403121561282157600080fd5b5035919050565b60006020828403121561283a57600080fd5b5051919050565b6000806040838503121561285457600080fd5b50508035926020909101359150565b600080600080600060a0868803121561287b57600080fd5b612884866126eb565b94506020860151935060408601519250606086015191506128a7608087016126eb565b90509295509295909350565b6001600160a01b03929092168252602082015260400190565b60208101600383106128ee57634e487b7160e01b600052602160045260246000fd5b91905290565b6000821982111561290757612907612964565b500190565b60008261292957634e487b7160e01b600052601260045260246000fd5b500490565b600081600019048311821515161561294857612948612964565b500290565b60008282101561295f5761295f612964565b500390565b634e487b7160e01b600052601160045260246000fd5b634e487b7160e01b600052602160045260246000fd5b6001600160a01b03811681146125af57600080fdfea264697066735822122002cd4ba8347dc5f014920eeec25a24c97faf00e60a855779278672fd57480c8c64736f6c63430008060033","opcodes":"PUSH1 0x80 PUSH1 0x40 MSTORE PUSH2 0x2710 PUSH1 0x2 SSTORE PUSH11 0xFBCE2C2BF955700000000 PUSH1 0x6 SSTORE PUSH13 0xC9F2C9CD04674EDEA40000000 PUSH1 0x7 SSTORE CALLVALUE DUP1 ISZERO PUSH3 0x37 JUMPI PUSH1 0x0 DUP1 REVERT JUMPDEST POP PUSH1 0x40 MLOAD PUSH3 0x2EE5 CODESIZE SUB DUP1 PUSH3 0x2EE5 DUP4 CODECOPY DUP2 ADD PUSH1 0x40 DUP2 SWAP1 MSTORE PUSH3 0x5A SWAP2 PUSH3 0x2C4 JUMP JUMPDEST PUSH3 0x65 CALLER PUSH3 0x1D0 JUMP JUMPDEST PUSH1 0x0 JUMPDEST PUSH1 0x4 DUP2 LT ISZERO PUSH3 0xE5 JUMPI PUSH1 0x1 PUSH1 0xE PUSH1 0x0 DUP13 DUP5 PUSH1 0x4 DUP2 LT PUSH3 0x8D JUMPI PUSH3 0x8D PUSH3 0x4CB JUMP JUMPDEST PUSH1 0x20 SWAP1 DUP2 MUL SWAP2 SWAP1 SWAP2 ADD MLOAD PUSH1 0x1 PUSH1 0x1 PUSH1 0xA0 SHL SUB AND DUP3 MSTORE DUP2 ADD SWAP2 SWAP1 SWAP2 MSTORE PUSH1 0x40 ADD PUSH1 0x0 KECCAK256 DUP1 SLOAD PUSH1 0xFF NOT AND PUSH1 0x1 DUP4 PUSH1 0x2 DUP2 GT ISZERO PUSH3 0xCB JUMPI PUSH3 0xCB PUSH3 0x4B5 JUMP JUMPDEST MUL OR SWAP1 SSTORE POP DUP1 PUSH3 0xDC DUP2 PUSH3 0x481 JUMP JUMPDEST SWAP2 POP POP PUSH3 0x68 JUMP JUMPDEST POP PUSH1 0x0 JUMPDEST PUSH1 0x4 DUP2 LT ISZERO PUSH3 0x166 JUMPI PUSH1 0x2 PUSH1 0xE PUSH1 0x0 DUP12 DUP5 PUSH1 0x4 DUP2 LT PUSH3 0x10E JUMPI PUSH3 0x10E PUSH3 0x4CB JUMP JUMPDEST PUSH1 0x20 SWAP1 DUP2 MUL SWAP2 SWAP1 SWAP2 ADD MLOAD PUSH1 0x1 PUSH1 0x1 PUSH1 0xA0 SHL SUB AND DUP3 MSTORE DUP2 ADD SWAP2 SWAP1 SWAP2 MSTORE PUSH1 0x40 ADD PUSH1 0x0 KECCAK256 DUP1 SLOAD PUSH1 0xFF NOT AND PUSH1 0x1 DUP4 PUSH1 0x2 DUP2 GT ISZERO PUSH3 0x14C JUMPI PUSH3 0x14C PUSH3 0x4B5 JUMP JUMPDEST MUL OR SWAP1 SSTORE POP DUP1 PUSH3 0x15D DUP2 PUSH3 0x481 JUMP JUMPDEST SWAP2 POP POP PUSH3 0xE9 JUMP JUMPDEST POP PUSH1 0x3 DUP1 SLOAD PUSH1 0x1 PUSH1 0x1 PUSH1 0xA0 SHL SUB DUP1 DUP11 AND PUSH1 0x1 PUSH1 0x1 PUSH1 0xA0 SHL SUB NOT SWAP3 DUP4 AND OR SWAP1 SWAP3 SSTORE PUSH1 0x4 DUP1 SLOAD DUP10 DUP5 AND SWAP1 DUP4 AND OR SWAP1 SSTORE PUSH1 0x5 DUP1 SLOAD SWAP3 DUP9 AND SWAP3 SWAP1 SWAP2 AND SWAP2 SWAP1 SWAP2 OR SWAP1 SSTORE PUSH1 0x8 DUP5 SWAP1 SSTORE PUSH1 0x1 DUP4 SWAP1 SSTORE PUSH3 0x1BB DUP3 PUSH1 0xA PUSH3 0x3B6 JUMP JUMPDEST PUSH1 0x9 SSTORE PUSH1 0xA SSTORE POP PUSH3 0x4FA SWAP7 POP POP POP POP POP POP POP JUMP JUMPDEST PUSH1 0x0 DUP1 SLOAD PUSH1 0x1 PUSH1 0x1 PUSH1 0xA0 SHL SUB DUP4 DUP2 AND PUSH1 0x1 PUSH1 0x1 PUSH1 0xA0 SHL SUB NOT DUP4 AND DUP2 OR DUP5 SSTORE PUSH1 0x40 MLOAD SWAP2 SWAP1 SWAP3 AND SWAP3 DUP4 SWAP2 PUSH32 0x8BE0079C531659141344CD1FD0A4F28419497F9722A3DAAFE3B4186F6B6457E0 SWAP2 SWAP1 LOG3 POP POP JUMP JUMPDEST DUP1 MLOAD PUSH3 0x22D DUP2 PUSH3 0x4E1 JUMP JUMPDEST SWAP2 SWAP1 POP JUMP JUMPDEST PUSH1 0x0 DUP3 PUSH1 0x1F DUP4 ADD SLT PUSH3 0x244 JUMPI PUSH1 0x0 DUP1 REVERT JUMPDEST PUSH1 0x40 MLOAD PUSH1 0x80 DUP2 ADD PUSH1 0x1 PUSH1 0x1 PUSH1 0x40 SHL SUB DUP2 GT DUP3 DUP3 LT OR ISZERO PUSH3 0x275 JUMPI PUSH4 0x4E487B71 PUSH1 0xE0 SHL PUSH1 0x0 MSTORE PUSH1 0x41 PUSH1 0x4 MSTORE PUSH1 0x24 PUSH1 0x0 REVERT JUMPDEST PUSH1 0x40 MSTORE DUP1 DUP4 PUSH1 0x80 DUP2 ADD DUP7 LT ISZERO PUSH3 0x28B JUMPI PUSH1 0x0 DUP1 REVERT JUMPDEST PUSH1 0x0 JUMPDEST PUSH1 0x4 DUP2 LT ISZERO PUSH3 0x2B9 JUMPI PUSH3 0x2A3 DUP3 PUSH3 0x220 JUMP JUMPDEST DUP4 MSTORE PUSH1 0x20 SWAP3 DUP4 ADD SWAP3 SWAP2 SWAP1 SWAP2 ADD SWAP1 PUSH1 0x1 ADD PUSH3 0x28E JUMP JUMPDEST POP SWAP2 SWAP6 SWAP5 POP POP POP POP POP JUMP JUMPDEST PUSH1 0x0 DUP1 PUSH1 0x0 DUP1 PUSH1 0x0 DUP1 PUSH1 0x0 DUP1 PUSH1 0x0 PUSH2 0x1E0 DUP11 DUP13 SUB SLT ISZERO PUSH3 0x2E4 JUMPI PUSH1 0x0 DUP1 REVERT JUMPDEST PUSH3 0x2F0 DUP12 DUP12 PUSH3 0x232 JUMP JUMPDEST SWAP9 POP PUSH3 0x301 DUP12 PUSH1 0x80 DUP13 ADD PUSH3 0x232 JUMP JUMPDEST SWAP8 POP PUSH2 0x100 DUP11 ADD MLOAD PUSH3 0x314 DUP2 PUSH3 0x4E1 JUMP JUMPDEST PUSH2 0x120 DUP12 ADD MLOAD SWAP1 SWAP8 POP PUSH3 0x328 DUP2 PUSH3 0x4E1 JUMP JUMPDEST PUSH2 0x140 DUP12 ADD MLOAD SWAP1 SWAP7 POP PUSH3 0x33C DUP2 PUSH3 0x4E1 JUMP JUMPDEST DUP1 SWAP6 POP POP PUSH2 0x160 DUP11 ADD MLOAD SWAP4 POP PUSH2 0x180 DUP11 ADD MLOAD SWAP3 POP PUSH2 0x1A0 DUP11 ADD MLOAD SWAP2 POP PUSH2 0x1C0 DUP11 ADD MLOAD SWAP1 POP SWAP3 SWAP6 SWAP9 POP SWAP3 SWAP6 SWAP9 POP SWAP3 SWAP6 SWAP9 JUMP JUMPDEST PUSH1 0x1 DUP2 DUP2 JUMPDEST DUP1 DUP6 GT ISZERO PUSH3 0x3AE JUMPI DUP2 PUSH1 0x0 NOT DIV DUP3 GT ISZERO PUSH3 0x392 JUMPI PUSH3 0x392 PUSH3 0x49F JUMP JUMPDEST DUP1 DUP6 AND ISZERO PUSH3 0x3A0 JUMPI SWAP2 DUP2 MUL SWAP2 JUMPDEST SWAP4 DUP5 SHR SWAP4 SWAP1 DUP1 MUL SWAP1 PUSH3 0x372 JUMP JUMPDEST POP SWAP3 POP SWAP3 SWAP1 POP JUMP JUMPDEST PUSH1 0x0 PUSH3 0x3C4 DUP4 DUP4 PUSH3 0x3CB JUMP JUMPDEST SWAP4 SWAP3 POP POP POP JUMP JUMPDEST PUSH1 0x0 DUP3 PUSH3 0x3DC JUMPI POP PUSH1 0x1 PUSH3 0x47B JUMP JUMPDEST DUP2 PUSH3 0x3EB JUMPI POP PUSH1 0x0 PUSH3 0x47B JUMP JUMPDEST DUP2 PUSH1 0x1 DUP2 EQ PUSH3 0x404 JUMPI PUSH1 0x2 DUP2 EQ PUSH3 0x40F JUMPI PUSH3 0x42F JUMP JUMPDEST PUSH1 0x1 SWAP2 POP POP PUSH3 0x47B JUMP JUMPDEST PUSH1 0xFF DUP5 GT ISZERO PUSH3 0x423 JUMPI PUSH3 0x423 PUSH3 0x49F JUMP JUMPDEST POP POP PUSH1 0x1 DUP3 SHL PUSH3 0x47B JUMP JUMPDEST POP PUSH1 0x20 DUP4 LT PUSH2 0x133 DUP4 LT AND PUSH1 0x4E DUP5 LT PUSH1 0xB DUP5 LT AND OR ISZERO PUSH3 0x454 JUMPI POP DUP2 DUP2 EXP PUSH3 0x47B JUMP JUMPDEST PUSH3 0x460 DUP4 DUP4 PUSH3 0x36D JUMP JUMPDEST DUP1 PUSH1 0x0 NOT DIV DUP3 GT ISZERO PUSH3 0x477 JUMPI PUSH3 0x477 PUSH3 0x49F JUMP JUMPDEST MUL SWAP1 POP JUMPDEST SWAP3 SWAP2 POP POP JUMP JUMPDEST PUSH1 0x0 PUSH1 0x0 NOT DUP3 EQ ISZERO PUSH3 0x498 JUMPI PUSH3 0x498 PUSH3 0x49F JUMP JUMPDEST POP PUSH1 0x1 ADD SWAP1 JUMP JUMPDEST PUSH4 0x4E487B71 PUSH1 0xE0 SHL PUSH1 0x0 MSTORE PUSH1 0x11 PUSH1 0x4 MSTORE PUSH1 0x24 PUSH1 0x0 REVERT JUMPDEST PUSH4 0x4E487B71 PUSH1 0xE0 SHL PUSH1 0x0 MSTORE PUSH1 0x21 PUSH1 0x4 MSTORE PUSH1 0x24 PUSH1 0x0 REVERT JUMPDEST PUSH4 0x4E487B71 PUSH1 0xE0 SHL PUSH1 0x0 MSTORE PUSH1 0x32 PUSH1 0x4 MSTORE PUSH1 0x24 PUSH1 0x0 REVERT JUMPDEST PUSH1 0x1 PUSH1 0x1 PUSH1 0xA0 SHL SUB DUP2 AND DUP2 EQ PUSH3 0x4F7 JUMPI PUSH1 0x0 DUP1 REVERT JUMPDEST POP JUMP JUMPDEST PUSH2 0x29DB DUP1 PUSH3 0x50A PUSH1 0x0 CODECOPY PUSH1 0x0 RETURN INVALID PUSH1 0x80 PUSH1 0x40 MSTORE CALLVALUE DUP1 ISZERO PUSH2 0x10 JUMPI PUSH1 0x0 DUP1 REVERT JUMPDEST POP PUSH1 0x4 CALLDATASIZE LT PUSH2 0x232 JUMPI PUSH1 0x0 CALLDATALOAD PUSH1 0xE0 SHR DUP1 PUSH4 0x66234FFA GT PUSH2 0x130 JUMPI DUP1 PUSH4 0x9D38D064 GT PUSH2 0xB8 JUMPI DUP1 PUSH4 0xD88C6910 GT PUSH2 0x7C JUMPI DUP1 PUSH4 0xD88C6910 EQ PUSH2 0x593 JUMPI DUP1 PUSH4 0xD8AED145 EQ PUSH2 0x5A6 JUMPI DUP1 PUSH4 0xE260D747 EQ PUSH2 0x5B9 JUMPI DUP1 PUSH4 0xF05735DB EQ PUSH2 0x5C2 JUMPI DUP1 PUSH4 0xF2FDE38B EQ PUSH2 0x5D5 JUMPI PUSH1 0x0 DUP1 REVERT JUMPDEST DUP1 PUSH4 0x9D38D064 EQ PUSH2 0x53E JUMPI DUP1 PUSH4 0x9E3AA5B1 EQ PUSH2 0x547 JUMPI DUP1 PUSH4 0xB13DE266 EQ PUSH2 0x55A JUMPI DUP1 PUSH4 0xB2016BD4 EQ PUSH2 0x56D JUMPI DUP1 PUSH4 0xC3707709 EQ PUSH2 0x580 JUMPI PUSH1 0x0 DUP1 REVERT JUMPDEST DUP1 PUSH4 0x7C3A00FD GT PUSH2 0xFF JUMPI DUP1 PUSH4 0x7C3A00FD EQ PUSH2 0x4EB JUMPI DUP1 PUSH4 0x89A30271 EQ PUSH2 0x4F4 JUMPI DUP1 PUSH4 0x8AC2EDC1 EQ PUSH2 0x507 JUMPI DUP1 PUSH4 0x8DA5CB5B EQ PUSH2 0x51A JUMPI DUP1 PUSH4 0x91319872 EQ PUSH2 0x52B JUMPI PUSH1 0x0 DUP1 REVERT JUMPDEST DUP1 PUSH4 0x66234FFA EQ PUSH2 0x48B JUMPI DUP1 PUSH4 0x6C016C00 EQ PUSH2 0x494 JUMPI DUP1 PUSH4 0x715018A6 EQ PUSH2 0x4D0 JUMPI DUP1 PUSH4 0x7A3C4C17 EQ PUSH2 0x4D8 JUMPI PUSH1 0x0 DUP1 REVERT JUMPDEST DUP1 PUSH4 0x415F1240 GT PUSH2 0x1BE JUMPI DUP1 PUSH4 0x4DDDE78D GT PUSH2 0x182 JUMPI DUP1 PUSH4 0x4DDDE78D EQ PUSH2 0x440 JUMPI DUP1 PUSH4 0x587A03C2 EQ PUSH2 0x449 JUMPI DUP1 PUSH4 0x5F84F302 EQ PUSH2 0x45C JUMPI DUP1 PUSH4 0x6198E339 EQ PUSH2 0x46F JUMPI DUP1 PUSH4 0x62965D8E EQ PUSH2 0x482 JUMPI PUSH1 0x0 DUP1 REVERT JUMPDEST DUP1 PUSH4 0x415F1240 EQ PUSH2 0x3EB JUMPI DUP1 PUSH4 0x425378B4 EQ PUSH2 0x3FE JUMPI DUP1 PUSH4 0x4437152A EQ PUSH2 0x407 JUMPI DUP1 PUSH4 0x484F1371 EQ PUSH2 0x41A JUMPI DUP1 PUSH4 0x49B274ED EQ PUSH2 0x42D JUMPI PUSH1 0x0 DUP1 REVERT JUMPDEST DUP1 PUSH4 0x24A6665E GT PUSH2 0x205 JUMPI DUP1 PUSH4 0x24A6665E EQ PUSH2 0x2B0 JUMPI DUP1 PUSH4 0x2CB2F334 EQ PUSH2 0x372 JUMPI DUP1 PUSH4 0x333DAAA0 EQ PUSH2 0x385 JUMPI DUP1 PUSH4 0x357BCEF0 EQ PUSH2 0x398 JUMPI DUP1 PUSH4 0x365C7504 EQ PUSH2 0x3C8 JUMPI PUSH1 0x0 DUP1 REVERT JUMPDEST DUP1 PUSH4 0x1D73641 EQ PUSH2 0x237 JUMPI DUP1 PUSH4 0x833A6C6 EQ PUSH2 0x24C JUMPI DUP1 PUSH4 0xECBCDAB EQ PUSH2 0x272 JUMPI DUP1 PUSH4 0x16F0115B EQ PUSH2 0x285 JUMPI JUMPDEST PUSH1 0x0 DUP1 REVERT JUMPDEST PUSH2 0x24A PUSH2 0x245 CALLDATASIZE PUSH1 0x4 PUSH2 0x280F JUMP JUMPDEST PUSH2 0x5E8 JUMP JUMPDEST STOP JUMPDEST PUSH2 0x25F PUSH2 0x25A CALLDATASIZE PUSH1 0x4 PUSH2 0x280F JUMP JUMPDEST PUSH2 0x8B6 JUMP JUMPDEST PUSH1 0x40 MLOAD SWAP1 DUP2 MSTORE PUSH1 0x20 ADD JUMPDEST PUSH1 0x40 MLOAD DUP1 SWAP2 SUB SWAP1 RETURN JUMPDEST PUSH2 0x24A PUSH2 0x280 CALLDATASIZE PUSH1 0x4 PUSH2 0x2841 JUMP JUMPDEST PUSH2 0x9BB JUMP JUMPDEST PUSH1 0xB SLOAD PUSH2 0x298 SWAP1 PUSH1 0x1 PUSH1 0x1 PUSH1 0xA0 SHL SUB AND DUP2 JUMP JUMPDEST PUSH1 0x40 MLOAD PUSH1 0x1 PUSH1 0x1 PUSH1 0xA0 SHL SUB SWAP1 SWAP2 AND DUP2 MSTORE PUSH1 0x20 ADD PUSH2 0x269 JUMP JUMPDEST PUSH2 0x323 PUSH2 0x2BE CALLDATASIZE PUSH1 0x4 PUSH2 0x280F JUMP JUMPDEST PUSH1 0xC PUSH1 0x20 SWAP1 DUP2 MSTORE PUSH1 0x0 SWAP2 DUP3 MSTORE PUSH1 0x40 SWAP2 DUP3 SWAP1 KECCAK256 DUP1 SLOAD DUP4 MLOAD PUSH1 0xA0 DUP2 ADD DUP6 MSTORE PUSH1 0x1 DUP4 ADD SLOAD PUSH1 0x1 PUSH1 0x1 PUSH1 0xA0 SHL SUB SWAP1 DUP2 AND DUP3 MSTORE PUSH1 0x2 DUP5 ADD SLOAD SWAP5 DUP3 ADD SWAP5 SWAP1 SWAP5 MSTORE PUSH1 0x3 DUP4 ADD SLOAD SWAP5 DUP2 ADD SWAP5 SWAP1 SWAP5 MSTORE PUSH1 0x4 DUP3 ADD SLOAD PUSH1 0x60 DUP6 ADD MSTORE PUSH1 0x5 SWAP1 SWAP2 ADD SLOAD PUSH1 0xFF AND ISZERO ISZERO PUSH1 0x80 DUP5 ADD MSTORE AND SWAP1 DUP3 JUMP JUMPDEST PUSH1 0x40 DUP1 MLOAD PUSH1 0x1 PUSH1 0x1 PUSH1 0xA0 SHL SUB SWAP4 DUP5 AND DUP2 MSTORE DUP3 MLOAD SWAP1 SWAP4 AND PUSH1 0x20 DUP1 DUP6 ADD SWAP2 SWAP1 SWAP2 MSTORE DUP3 ADD MLOAD DUP4 DUP3 ADD MSTORE DUP2 ADD MLOAD PUSH1 0x60 DUP1 DUP5 ADD SWAP2 SWAP1 SWAP2 MSTORE DUP2 ADD MLOAD PUSH1 0x80 DUP1 DUP5 ADD SWAP2 SWAP1 SWAP2 MSTORE ADD MLOAD ISZERO ISZERO PUSH1 0xA0 DUP3 ADD MSTORE PUSH1 0xC0 ADD PUSH2 0x269 JUMP JUMPDEST PUSH2 0x25F PUSH2 0x380 CALLDATASIZE PUSH1 0x4 PUSH2 0x280F JUMP JUMPDEST PUSH2 0x1039 JUMP JUMPDEST PUSH2 0x24A PUSH2 0x393 CALLDATASIZE PUSH1 0x4 PUSH2 0x280F JUMP JUMPDEST PUSH2 0x109F JUMP JUMPDEST PUSH2 0x3BB PUSH2 0x3A6 CALLDATASIZE PUSH1 0x4 PUSH2 0x2705 JUMP JUMPDEST PUSH1 0xE PUSH1 0x20 MSTORE PUSH1 0x0 SWAP1 DUP2 MSTORE PUSH1 0x40 SWAP1 KECCAK256 SLOAD PUSH1 0xFF AND DUP2 JUMP JUMPDEST PUSH1 0x40 MLOAD PUSH2 0x269 SWAP2 SWAP1 PUSH2 0x28CC JUMP JUMPDEST PUSH2 0x3DB PUSH2 0x3D6 CALLDATASIZE PUSH1 0x4 PUSH2 0x280F JUMP JUMPDEST PUSH2 0x13A0 JUMP JUMPDEST PUSH1 0x40 MLOAD SWAP1 ISZERO ISZERO DUP2 MSTORE PUSH1 0x20 ADD PUSH2 0x269 JUMP JUMPDEST PUSH2 0x24A PUSH2 0x3F9 CALLDATASIZE PUSH1 0x4 PUSH2 0x280F JUMP JUMPDEST PUSH2 0x13F1 JUMP JUMPDEST PUSH2 0x25F PUSH1 0xA SLOAD DUP2 JUMP JUMPDEST PUSH2 0x24A PUSH2 0x415 CALLDATASIZE PUSH1 0x4 PUSH2 0x2705 JUMP JUMPDEST PUSH2 0x1694 JUMP JUMPDEST PUSH2 0x25F PUSH2 0x428 CALLDATASIZE PUSH1 0x4 PUSH2 0x280F JUMP JUMPDEST PUSH2 0x16BE JUMP JUMPDEST PUSH2 0x3DB PUSH2 0x43B CALLDATASIZE PUSH1 0x4 PUSH2 0x280F JUMP JUMPDEST PUSH2 0x1727 JUMP JUMPDEST PUSH2 0x25F PUSH1 0x9 SLOAD DUP2 JUMP JUMPDEST PUSH2 0x24A PUSH2 0x457 CALLDATASIZE PUSH1 0x4 PUSH2 0x280F JUMP JUMPDEST PUSH2 0x1754 JUMP JUMPDEST PUSH2 0x24A PUSH2 0x46A CALLDATASIZE PUSH1 0x4 PUSH2 0x280F JUMP JUMPDEST PUSH2 0x1761 JUMP JUMPDEST PUSH2 0x24A PUSH2 0x47D CALLDATASIZE PUSH1 0x4 PUSH2 0x280F JUMP JUMPDEST PUSH2 0x176E JUMP JUMPDEST PUSH2 0x25F PUSH1 0x1 SLOAD DUP2 JUMP JUMPDEST PUSH2 0x25F PUSH1 0x7 SLOAD DUP2 JUMP JUMPDEST PUSH2 0x4BB PUSH2 0x4A2 CALLDATASIZE PUSH1 0x4 PUSH2 0x280F JUMP JUMPDEST PUSH1 0xD PUSH1 0x20 MSTORE PUSH1 0x0 SWAP1 DUP2 MSTORE PUSH1 0x40 SWAP1 KECCAK256 DUP1 SLOAD PUSH1 0x1 SWAP1 SWAP2 ADD SLOAD DUP3 JUMP JUMPDEST PUSH1 0x40 DUP1 MLOAD SWAP3 DUP4 MSTORE PUSH1 0x20 DUP4 ADD SWAP2 SWAP1 SWAP2 MSTORE ADD PUSH2 0x269 JUMP JUMPDEST PUSH2 0x24A PUSH2 0x1869 JUMP JUMPDEST PUSH2 0x25F PUSH2 0x4E6 CALLDATASIZE PUSH1 0x4 PUSH2 0x280F JUMP JUMPDEST PUSH2 0x187D JUMP JUMPDEST PUSH2 0x25F PUSH1 0x6 SLOAD DUP2 JUMP JUMPDEST PUSH1 0x5 SLOAD PUSH2 0x298 SWAP1 PUSH1 0x1 PUSH1 0x1 PUSH1 0xA0 SHL SUB AND DUP2 JUMP JUMPDEST PUSH2 0x24A PUSH2 0x515 CALLDATASIZE PUSH1 0x4 PUSH2 0x280F JUMP JUMPDEST PUSH2 0x1988 JUMP JUMPDEST PUSH1 0x0 SLOAD PUSH1 0x1 PUSH1 0x1 PUSH1 0xA0 SHL SUB AND PUSH2 0x298 JUMP JUMPDEST PUSH1 0x4 SLOAD PUSH2 0x298 SWAP1 PUSH1 0x1 PUSH1 0x1 PUSH1 0xA0 SHL SUB AND DUP2 JUMP JUMPDEST PUSH2 0x25F PUSH1 0x2 SLOAD DUP2 JUMP JUMPDEST PUSH2 0x25F PUSH2 0x555 CALLDATASIZE PUSH1 0x4 PUSH2 0x280F JUMP JUMPDEST PUSH2 0x1EB3 JUMP JUMPDEST PUSH2 0x24A PUSH2 0x568 CALLDATASIZE PUSH1 0x4 PUSH2 0x280F JUMP JUMPDEST PUSH2 0x1EDE JUMP JUMPDEST PUSH1 0x3 SLOAD PUSH2 0x298 SWAP1 PUSH1 0x1 PUSH1 0x1 PUSH1 0xA0 SHL SUB AND DUP2 JUMP JUMPDEST PUSH2 0x24A PUSH2 0x58E CALLDATASIZE PUSH1 0x4 PUSH2 0x280F JUMP JUMPDEST PUSH2 0x1F2D JUMP JUMPDEST PUSH2 0x25F PUSH2 0x5A1 CALLDATASIZE PUSH1 0x4 PUSH2 0x280F JUMP JUMPDEST PUSH2 0x1F3A JUMP JUMPDEST PUSH2 0x24A PUSH2 0x5B4 CALLDATASIZE PUSH1 0x4 PUSH2 0x2841 JUMP JUMPDEST PUSH2 0x20F7 JUMP JUMPDEST PUSH2 0x25F PUSH1 0x8 SLOAD DUP2 JUMP JUMPDEST PUSH2 0x25F PUSH2 0x5D0 CALLDATASIZE PUSH1 0x4 PUSH2 0x280F JUMP JUMPDEST PUSH2 0x23E5 JUMP JUMPDEST PUSH2 0x24A PUSH2 0x5E3 CALLDATASIZE PUSH1 0x4 PUSH2 0x2705 JUMP JUMPDEST PUSH2 0x2539 JUMP JUMPDEST PUSH1 0x0 DUP2 DUP2 MSTORE PUSH1 0xC PUSH1 0x20 MSTORE PUSH1 0x40 SWAP1 KECCAK256 PUSH1 0x4 ADD SLOAD PUSH2 0x607 SWAP1 PUSH2 0x708 SWAP1 PUSH2 0x294D JUMP JUMPDEST TIMESTAMP GT PUSH2 0x612 JUMPI PUSH1 0x0 DUP1 REVERT JUMPDEST PUSH1 0x0 DUP2 DUP2 MSTORE PUSH1 0xD PUSH1 0x20 MSTORE PUSH1 0x40 DUP2 KECCAK256 SWAP1 PUSH2 0x62A DUP4 PUSH2 0x8B6 JUMP JUMPDEST SWAP1 POP PUSH2 0x635 DUP4 PUSH2 0x25B2 JUMP JUMPDEST DUP2 SLOAD PUSH1 0x0 SWAP1 DUP3 GT ISZERO PUSH2 0x79A JUMPI DUP3 SLOAD PUSH2 0x64D SWAP1 DUP4 PUSH2 0x294D JUMP JUMPDEST PUSH1 0x5 SLOAD PUSH1 0xB SLOAD SWAP2 SWAP3 POP PUSH1 0x1 PUSH1 0x1 PUSH1 0xA0 SHL SUB SWAP1 DUP2 AND SWAP2 PUSH4 0xA9059CBB SWAP2 AND PUSH1 0x64 PUSH2 0x676 DUP6 PUSH1 0x5A PUSH2 0x292E JUMP JUMPDEST PUSH2 0x680 SWAP2 SWAP1 PUSH2 0x290C JUMP JUMPDEST DUP7 SLOAD PUSH2 0x68C SWAP2 SWAP1 PUSH2 0x28F4 JUMP JUMPDEST PUSH1 0x40 MLOAD DUP4 PUSH4 0xFFFFFFFF AND PUSH1 0xE0 SHL DUP2 MSTORE PUSH1 0x4 ADD PUSH2 0x6A9 SWAP3 SWAP2 SWAP1 PUSH2 0x28B3 JUMP JUMPDEST PUSH1 0x20 PUSH1 0x40 MLOAD DUP1 DUP4 SUB DUP2 PUSH1 0x0 DUP8 DUP1 EXTCODESIZE ISZERO DUP1 ISZERO PUSH2 0x6C3 JUMPI PUSH1 0x0 DUP1 REVERT JUMPDEST POP GAS CALL ISZERO DUP1 ISZERO PUSH2 0x6D7 JUMPI RETURNDATASIZE PUSH1 0x0 DUP1 RETURNDATACOPY RETURNDATASIZE PUSH1 0x0 REVERT JUMPDEST POP POP POP POP PUSH1 0x40 MLOAD RETURNDATASIZE PUSH1 0x1F NOT PUSH1 0x1F DUP3 ADD AND DUP3 ADD DUP1 PUSH1 0x40 MSTORE POP DUP2 ADD SWAP1 PUSH2 0x6FB SWAP2 SWAP1 PUSH2 0x273F JUMP JUMPDEST POP PUSH1 0x5 SLOAD PUSH1 0x1 PUSH1 0x1 PUSH1 0xA0 SHL SUB AND PUSH4 0xA9059CBB CALLER PUSH1 0x64 PUSH2 0x71B DUP6 PUSH1 0xA PUSH2 0x292E JUMP JUMPDEST PUSH2 0x725 SWAP2 SWAP1 PUSH2 0x290C JUMP JUMPDEST PUSH1 0x40 MLOAD DUP4 PUSH4 0xFFFFFFFF AND PUSH1 0xE0 SHL DUP2 MSTORE PUSH1 0x4 ADD PUSH2 0x742 SWAP3 SWAP2 SWAP1 PUSH2 0x28B3 JUMP JUMPDEST PUSH1 0x20 PUSH1 0x40 MLOAD DUP1 DUP4 SUB DUP2 PUSH1 0x0 DUP8 DUP1 EXTCODESIZE ISZERO DUP1 ISZERO PUSH2 0x75C JUMPI PUSH1 0x0 DUP1 REVERT JUMPDEST POP GAS CALL ISZERO DUP1 ISZERO PUSH2 0x770 JUMPI RETURNDATASIZE PUSH1 0x0 DUP1 RETURNDATACOPY RETURNDATASIZE PUSH1 0x0 REVERT JUMPDEST POP POP POP POP PUSH1 0x40 MLOAD RETURNDATASIZE PUSH1 0x1F NOT PUSH1 0x1F DUP3 ADD AND DUP3 ADD DUP1 PUSH1 0x40 MSTORE POP DUP2 ADD SWAP1 PUSH2 0x794 SWAP2 SWAP1 PUSH2 0x273F JUMP JUMPDEST POP PUSH2 0x824 JUMP JUMPDEST PUSH1 0x5 SLOAD PUSH1 0xB SLOAD PUSH1 0x40 MLOAD PUSH4 0xA9059CBB PUSH1 0xE0 SHL DUP2 MSTORE PUSH1 0x1 PUSH1 0x1 PUSH1 0xA0 SHL SUB SWAP3 DUP4 AND SWAP3 PUSH4 0xA9059CBB SWAP3 PUSH2 0x7D0 SWAP3 SWAP2 AND SWAP1 DUP7 SWAP1 PUSH1 0x4 ADD PUSH2 0x28B3 JUMP JUMPDEST PUSH1 0x20 PUSH1 0x40 MLOAD DUP1 DUP4 SUB DUP2 PUSH1 0x0 DUP8 DUP1 EXTCODESIZE ISZERO DUP1 ISZERO PUSH2 0x7EA JUMPI PUSH1 0x0 DUP1 REVERT JUMPDEST POP GAS CALL ISZERO DUP1 ISZERO PUSH2 0x7FE JUMPI RETURNDATASIZE PUSH1 0x0 DUP1 RETURNDATACOPY RETURNDATASIZE PUSH1 0x0 REVERT JUMPDEST POP POP POP POP PUSH1 0x40 MLOAD RETURNDATASIZE PUSH1 0x1F NOT PUSH1 0x1F DUP3 ADD AND DUP3 ADD DUP1 PUSH1 0x40 MSTORE POP DUP2 ADD SWAP1 PUSH2 0x822 SWAP2 SWAP1 PUSH2 0x273F JUMP JUMPDEST POP JUMPDEST PUSH1 0x0 DUP5 DUP2 MSTORE PUSH1 0xC PUSH1 0x20 MSTORE PUSH1 0x40 SWAP1 KECCAK256 SLOAD DUP4 SLOAD DUP6 SWAP2 PUSH1 0x1 PUSH1 0x1 PUSH1 0xA0 SHL SUB AND SWAP1 PUSH32 0x7510F2E218F218A66429C54A712775C000C398117E38B240BE7EF52310A51E82 SWAP1 PUSH1 0x64 PUSH2 0x870 DUP7 PUSH1 0x5A PUSH2 0x292E JUMP JUMPDEST PUSH2 0x87A SWAP2 SWAP1 PUSH2 0x290C JUMP JUMPDEST PUSH1 0x64 PUSH2 0x887 DUP8 PUSH1 0xA PUSH2 0x292E JUMP JUMPDEST PUSH2 0x891 SWAP2 SWAP1 PUSH2 0x290C JUMP JUMPDEST PUSH1 0x40 DUP1 MLOAD SWAP4 DUP5 MSTORE PUSH1 0x20 DUP5 ADD SWAP3 SWAP1 SWAP3 MSTORE SWAP1 DUP3 ADD MSTORE PUSH1 0x60 ADD JUMPDEST PUSH1 0x40 MLOAD DUP1 SWAP2 SUB SWAP1 LOG3 POP POP POP POP JUMP JUMPDEST PUSH1 0x4 DUP1 SLOAD PUSH1 0x40 MLOAD PUSH4 0x3755269B PUSH1 0xE0 SHL DUP2 MSTORE SWAP2 DUP3 ADD DUP4 SWAP1 MSTORE PUSH1 0x0 SWAP2 DUP3 SWAP2 PUSH1 0x1 PUSH1 0x1 PUSH1 0xA0 SHL SUB AND SWAP1 PUSH4 0x3755269B SWAP1 PUSH1 0x24 ADD PUSH1 0xA0 PUSH1 0x40 MLOAD DUP1 DUP4 SUB DUP2 DUP7 DUP1 EXTCODESIZE ISZERO DUP1 ISZERO PUSH2 0x8FD JUMPI PUSH1 0x0 DUP1 REVERT JUMPDEST POP GAS STATICCALL ISZERO DUP1 ISZERO PUSH2 0x911 JUMPI RETURNDATASIZE PUSH1 0x0 DUP1 RETURNDATACOPY RETURNDATASIZE PUSH1 0x0 REVERT JUMPDEST POP POP POP POP PUSH1 0x40 MLOAD RETURNDATASIZE PUSH1 0x1F NOT PUSH1 0x1F DUP3 ADD AND DUP3 ADD DUP1 PUSH1 0x40 MSTORE POP DUP2 ADD SWAP1 PUSH2 0x935 SWAP2 SWAP1 PUSH2 0x2761 JUMP JUMPDEST POP POP PUSH1 0x40 MLOAD PUSH4 0x7632BFFB PUSH1 0xE0 SHL DUP2 MSTORE PUSH1 0x4 DUP2 ADD DUP8 SWAP1 MSTORE SWAP2 SWAP4 POP POP PUSH1 0x1 PUSH1 0x1 PUSH1 0xA0 SHL SUB DUP4 AND SWAP2 POP PUSH4 0x7632BFFB SWAP1 PUSH1 0x24 ADD PUSH1 0x20 PUSH1 0x40 MLOAD DUP1 DUP4 SUB DUP2 DUP7 DUP1 EXTCODESIZE ISZERO DUP1 ISZERO PUSH2 0x97C JUMPI PUSH1 0x0 DUP1 REVERT JUMPDEST POP GAS STATICCALL ISZERO DUP1 ISZERO PUSH2 0x990 JUMPI RETURNDATASIZE PUSH1 0x0 DUP1 RETURNDATACOPY RETURNDATASIZE PUSH1 0x0 REVERT JUMPDEST POP POP POP POP PUSH1 0x40 MLOAD RETURNDATASIZE PUSH1 0x1F NOT PUSH1 0x1F DUP3 ADD AND DUP3 ADD DUP1 PUSH1 0x40 MSTORE POP DUP2 ADD SWAP1 PUSH2 0x9B4 SWAP2 SWAP1 PUSH2 0x2828 JUMP JUMPDEST SWAP4 SWAP3 POP POP POP JUMP JUMPDEST PUSH1 0xB PUSH1 0x0 SWAP1 SLOAD SWAP1 PUSH2 0x100 EXP SWAP1 DIV PUSH1 0x1 PUSH1 0x1 PUSH1 0xA0 SHL SUB AND PUSH1 0x1 PUSH1 0x1 PUSH1 0xA0 SHL SUB AND PUSH4 0xAE3050E1 PUSH1 0x40 MLOAD DUP2 PUSH4 0xFFFFFFFF AND PUSH1 0xE0 SHL DUP2 MSTORE PUSH1 0x4 ADD PUSH1 0x20 PUSH1 0x40 MLOAD DUP1 DUP4 SUB DUP2 DUP7 DUP1 EXTCODESIZE ISZERO DUP1 ISZERO PUSH2 0xA09 JUMPI PUSH1 0x0 DUP1 REVERT JUMPDEST POP GAS STATICCALL ISZERO DUP1 ISZERO PUSH2 0xA1D JUMPI RETURNDATASIZE PUSH1 0x0 DUP1 RETURNDATACOPY RETURNDATASIZE PUSH1 0x0 REVERT JUMPDEST POP POP POP POP PUSH1 0x40 MLOAD RETURNDATASIZE PUSH1 0x1F NOT PUSH1 0x1F DUP3 ADD AND DUP3 ADD DUP1 PUSH1 0x40 MSTORE POP DUP2 ADD SWAP1 PUSH2 0xA41 SWAP2 SWAP1 PUSH2 0x273F JUMP JUMPDEST PUSH2 0xA82 JUMPI PUSH1 0x40 MLOAD PUSH3 0x461BCD PUSH1 0xE5 SHL DUP2 MSTORE PUSH1 0x20 PUSH1 0x4 DUP3 ADD MSTORE PUSH1 0xD PUSH1 0x24 DUP3 ADD MSTORE PUSH13 0x1C185D5CD95119511953195B99 PUSH1 0x9A SHL PUSH1 0x44 DUP3 ADD MSTORE PUSH1 0x64 ADD JUMPDEST PUSH1 0x40 MLOAD DUP1 SWAP2 SUB SWAP1 REVERT JUMPDEST PUSH1 0x0 DUP3 DUP2 MSTORE PUSH1 0xD PUSH1 0x20 MSTORE PUSH1 0x40 DUP2 KECCAK256 SWAP1 PUSH2 0xA9A DUP5 PUSH2 0x1EB3 JUMP JUMPDEST PUSH1 0x4 DUP1 SLOAD PUSH1 0x40 MLOAD PUSH4 0x3755269B PUSH1 0xE0 SHL DUP2 MSTORE SWAP2 DUP3 ADD DUP8 SWAP1 MSTORE SWAP2 SWAP3 POP PUSH1 0x0 SWAP2 PUSH1 0x1 PUSH1 0x1 PUSH1 0xA0 SHL SUB AND SWAP1 PUSH4 0x3755269B SWAP1 PUSH1 0x24 ADD PUSH1 0xA0 PUSH1 0x40 MLOAD DUP1 DUP4 SUB DUP2 DUP7 DUP1 EXTCODESIZE ISZERO DUP1 ISZERO PUSH2 0xAE2 JUMPI PUSH1 0x0 DUP1 REVERT JUMPDEST POP GAS STATICCALL ISZERO DUP1 ISZERO PUSH2 0xAF6 JUMPI RETURNDATASIZE PUSH1 0x0 DUP1 RETURNDATACOPY RETURNDATASIZE PUSH1 0x0 REVERT JUMPDEST POP POP POP POP PUSH1 0x40 MLOAD RETURNDATASIZE PUSH1 0x1F NOT PUSH1 0x1F DUP3 ADD AND DUP3 ADD DUP1 PUSH1 0x40 MSTORE POP DUP2 ADD SWAP1 PUSH2 0xB1A SWAP2 SWAP1 PUSH2 0x2761 JUMP JUMPDEST POP POP POP POP SWAP1 POP PUSH1 0x0 PUSH1 0xB PUSH1 0x0 SWAP1 SLOAD SWAP1 PUSH2 0x100 EXP SWAP1 DIV PUSH1 0x1 PUSH1 0x1 PUSH1 0xA0 SHL SUB AND PUSH1 0x1 PUSH1 0x1 PUSH1 0xA0 SHL SUB AND PUSH4 0x12B58349 PUSH1 0x40 MLOAD DUP2 PUSH4 0xFFFFFFFF AND PUSH1 0xE0 SHL DUP2 MSTORE PUSH1 0x4 ADD PUSH1 0x20 PUSH1 0x40 MLOAD DUP1 DUP4 SUB DUP2 DUP7 DUP1 EXTCODESIZE ISZERO DUP1 ISZERO PUSH2 0xB70 JUMPI PUSH1 0x0 DUP1 REVERT JUMPDEST POP GAS STATICCALL ISZERO DUP1 ISZERO PUSH2 0xB84 JUMPI RETURNDATASIZE PUSH1 0x0 DUP1 RETURNDATACOPY RETURNDATASIZE PUSH1 0x0 REVERT JUMPDEST POP POP POP POP PUSH1 0x40 MLOAD RETURNDATASIZE PUSH1 0x1F NOT PUSH1 0x1F DUP3 ADD AND DUP3 ADD DUP1 PUSH1 0x40 MSTORE POP DUP2 ADD SWAP1 PUSH2 0xBA8 SWAP2 SWAP1 PUSH2 0x2828 JUMP JUMPDEST SWAP1 POP PUSH1 0x8 SLOAD DUP6 LT ISZERO PUSH2 0xBFC JUMPI PUSH1 0x40 MLOAD PUSH3 0x461BCD PUSH1 0xE5 SHL DUP2 MSTORE PUSH1 0x20 PUSH1 0x4 DUP3 ADD MSTORE PUSH1 0x1A PUSH1 0x24 DUP3 ADD MSTORE PUSH32 0x616D6F756E74206C657373206D696E426F72726F774C696D6974000000000000 PUSH1 0x44 DUP3 ADD MSTORE PUSH1 0x64 ADD PUSH2 0xA79 JUMP JUMPDEST DUP4 SLOAD DUP4 SWAP1 PUSH2 0xC0A SWAP1 DUP8 PUSH2 0x28F4 JUMP JUMPDEST GT ISZERO PUSH2 0xC64 JUMPI PUSH1 0x40 MLOAD PUSH3 0x461BCD PUSH1 0xE5 SHL DUP2 MSTORE PUSH1 0x20 PUSH1 0x4 DUP3 ADD MSTORE PUSH1 0x24 DUP1 DUP3 ADD MSTORE PUSH32 0x616D6F756E74202B20646174612E626F72726F776564206C657373206D61784C PUSH1 0x44 DUP3 ADD MSTORE PUSH4 0x1A5B5A5D PUSH1 0xE2 SHL PUSH1 0x64 DUP3 ADD MSTORE PUSH1 0x84 ADD PUSH2 0xA79 JUMP JUMPDEST PUSH1 0x1 DUP3 PUSH1 0x1 DUP2 GT ISZERO PUSH2 0xC78 JUMPI PUSH2 0xC78 PUSH2 0x297A JUMP JUMPDEST EQ PUSH2 0xCB5 JUMPI PUSH1 0x40 MLOAD PUSH3 0x461BCD PUSH1 0xE5 SHL DUP2 MSTORE PUSH1 0x20 PUSH1 0x4 DUP3 ADD MSTORE PUSH1 0xD PUSH1 0x24 DUP3 ADD MSTORE PUSH13 0x696E76616C6964207374617465 PUSH1 0x98 SHL PUSH1 0x44 DUP3 ADD MSTORE PUSH1 0x64 ADD PUSH2 0xA79 JUMP JUMPDEST PUSH1 0x0 DUP7 DUP2 MSTORE PUSH1 0xC PUSH1 0x20 MSTORE PUSH1 0x40 SWAP1 KECCAK256 SLOAD PUSH1 0x1 PUSH1 0x1 PUSH1 0xA0 SHL SUB AND CALLER EQ PUSH2 0xD13 JUMPI PUSH1 0x40 MLOAD PUSH3 0x461BCD PUSH1 0xE5 SHL DUP2 MSTORE PUSH1 0x20 PUSH1 0x4 DUP3 ADD MSTORE PUSH1 0x15 PUSH1 0x24 DUP3 ADD MSTORE PUSH21 0x3CB7BA9030B932903737BA103A34329037BBB732B9 PUSH1 0x59 SHL PUSH1 0x44 DUP3 ADD MSTORE PUSH1 0x64 ADD PUSH2 0xA79 JUMP JUMPDEST DUP1 DUP6 GT ISZERO PUSH2 0xD71 JUMPI PUSH1 0x40 MLOAD PUSH3 0x461BCD PUSH1 0xE5 SHL DUP2 MSTORE PUSH1 0x20 PUSH1 0x4 DUP3 ADD MSTORE PUSH1 0x25 PUSH1 0x24 DUP3 ADD MSTORE PUSH32 0x7468657265206973206E6F7420656E6F756768206D6F6E657920696E20746865 PUSH1 0x44 DUP3 ADD MSTORE PUSH5 0x81C1BDBDB PUSH1 0xDA SHL PUSH1 0x64 DUP3 ADD MSTORE PUSH1 0x84 ADD PUSH2 0xA79 JUMP JUMPDEST PUSH1 0x0 DUP7 DUP2 MSTORE PUSH1 0xC PUSH1 0x20 MSTORE PUSH1 0x40 SWAP1 KECCAK256 PUSH1 0x4 ADD SLOAD PUSH2 0xD90 SWAP1 PUSH2 0xE10 SWAP1 PUSH2 0x294D JUMP JUMPDEST TIMESTAMP GT ISZERO PUSH2 0xDCA JUMPI PUSH1 0x40 MLOAD PUSH3 0x461BCD PUSH1 0xE5 SHL DUP2 MSTORE PUSH1 0x20 PUSH1 0x4 DUP3 ADD MSTORE PUSH1 0x8 PUSH1 0x24 DUP3 ADD MSTORE PUSH8 0x746F6F206C617465 PUSH1 0xC0 SHL PUSH1 0x44 DUP3 ADD MSTORE PUSH1 0x64 ADD PUSH2 0xA79 JUMP JUMPDEST PUSH1 0x0 DUP7 DUP2 MSTORE PUSH1 0xC PUSH1 0x20 MSTORE PUSH1 0x40 SWAP1 KECCAK256 PUSH1 0x5 ADD SLOAD PUSH1 0xFF AND ISZERO PUSH2 0xE3F JUMPI PUSH2 0xDED DUP7 PUSH2 0x23E5 JUMP JUMPDEST PUSH2 0xDF6 DUP8 PUSH2 0x187D JUMP JUMPDEST GT PUSH2 0xE3A JUMPI PUSH1 0x40 MLOAD PUSH3 0x461BCD PUSH1 0xE5 SHL DUP2 MSTORE PUSH1 0x20 PUSH1 0x4 DUP3 ADD MSTORE PUSH1 0x14 PUSH1 0x24 DUP3 ADD MSTORE PUSH20 0x74686520707269636520697320746F6F206C6F77 PUSH1 0x60 SHL PUSH1 0x44 DUP3 ADD MSTORE PUSH1 0x64 ADD PUSH2 0xA79 JUMP JUMPDEST PUSH2 0xE96 JUMP JUMPDEST PUSH2 0xE48 DUP7 PUSH2 0x23E5 JUMP JUMPDEST PUSH2 0xE51 DUP8 PUSH2 0x187D JUMP JUMPDEST LT PUSH2 0xE96 JUMPI PUSH1 0x40 MLOAD PUSH3 0x461BCD PUSH1 0xE5 SHL DUP2 MSTORE PUSH1 0x20 PUSH1 0x4 DUP3 ADD MSTORE PUSH1 0x15 PUSH1 0x24 DUP3 ADD MSTORE PUSH21 0xE8D0CA40E0E4D2C6CA40D2E640E8DEDE40D0D2CED PUSH1 0x5B SHL PUSH1 0x44 DUP3 ADD MSTORE PUSH1 0x64 ADD PUSH2 0xA79 JUMP JUMPDEST PUSH1 0x0 PUSH2 0xEA1 DUP8 PUSH2 0x16BE JUMP JUMPDEST SWAP1 POP PUSH1 0x40 MLOAD DUP1 PUSH1 0x40 ADD PUSH1 0x40 MSTORE DUP1 DUP3 DUP8 PUSH1 0x0 ADD SLOAD DUP10 PUSH2 0xEBF SWAP2 SWAP1 PUSH2 0x28F4 JUMP JUMPDEST PUSH2 0xEC9 SWAP2 SWAP1 PUSH2 0x28F4 JUMP JUMPDEST DUP2 MSTORE TIMESTAMP PUSH1 0x20 SWAP2 DUP3 ADD MSTORE PUSH1 0x0 DUP10 DUP2 MSTORE PUSH1 0xD DUP3 MSTORE PUSH1 0x40 SWAP1 KECCAK256 DUP3 MLOAD DUP2 SSTORE SWAP2 ADD MLOAD PUSH1 0x1 SWAP1 SWAP2 ADD SSTORE PUSH1 0xB SLOAD PUSH1 0x1 PUSH1 0x1 PUSH1 0xA0 SHL SUB AND PUSH4 0x2BC355CA PUSH2 0xF07 DUP4 DUP10 PUSH2 0x28F4 JUMP JUMPDEST PUSH1 0x40 MLOAD DUP3 PUSH4 0xFFFFFFFF AND PUSH1 0xE0 SHL DUP2 MSTORE PUSH1 0x4 ADD PUSH2 0xF25 SWAP2 DUP2 MSTORE PUSH1 0x20 ADD SWAP1 JUMP JUMPDEST PUSH1 0x0 PUSH1 0x40 MLOAD DUP1 DUP4 SUB DUP2 PUSH1 0x0 DUP8 DUP1 EXTCODESIZE ISZERO DUP1 ISZERO PUSH2 0xF3F JUMPI PUSH1 0x0 DUP1 REVERT JUMPDEST POP GAS CALL ISZERO DUP1 ISZERO PUSH2 0xF53 JUMPI RETURNDATASIZE PUSH1 0x0 DUP1 RETURNDATACOPY RETURNDATASIZE PUSH1 0x0 REVERT JUMPDEST POP POP PUSH1 0xB SLOAD PUSH1 0x0 DUP11 DUP2 MSTORE PUSH1 0xC PUSH1 0x20 MSTORE PUSH1 0x40 SWAP1 DUP2 SWAP1 KECCAK256 SLOAD SWAP1 MLOAD PUSH4 0x3419E74D PUSH1 0xE2 SHL DUP2 MSTORE PUSH1 0x1 PUSH1 0x1 PUSH1 0xA0 SHL SUB SWAP3 DUP4 AND SWAP5 POP PUSH4 0xD0679D34 SWAP4 POP PUSH2 0xF9B SWAP3 SWAP1 SWAP2 AND SWAP1 DUP11 SWAP1 PUSH1 0x4 ADD PUSH2 0x28B3 JUMP JUMPDEST PUSH1 0x0 PUSH1 0x40 MLOAD DUP1 DUP4 SUB DUP2 PUSH1 0x0 DUP8 DUP1 EXTCODESIZE ISZERO DUP1 ISZERO PUSH2 0xFB5 JUMPI PUSH1 0x0 DUP1 REVERT JUMPDEST POP GAS CALL ISZERO DUP1 ISZERO PUSH2 0xFC9 JUMPI RETURNDATASIZE PUSH1 0x0 DUP1 RETURNDATACOPY RETURNDATASIZE PUSH1 0x0 REVERT JUMPDEST POP POP POP PUSH1 0x0 DUP9 DUP2 MSTORE PUSH1 0xC PUSH1 0x20 SWAP1 DUP2 MSTORE PUSH1 0x40 SWAP2 DUP3 SWAP1 KECCAK256 PUSH1 0x1 ADD SLOAD DUP3 MLOAD DUP11 DUP2 MSTORE PUSH1 0x1 PUSH1 0x1 PUSH1 0xA0 SHL SUB SWAP1 SWAP2 AND SWAP2 DUP2 ADD SWAP2 SWAP1 SWAP2 MSTORE TIMESTAMP DUP2 DUP4 ADD MSTORE SWAP1 MLOAD DUP10 SWAP3 POP CALLER SWAP2 PUSH32 0x1FDBEE5D1BD2901710E8945918B1A052CE67662661A2CCBF68420E4E430F8DAB SWAP2 SWAP1 DUP2 SWAP1 SUB PUSH1 0x60 ADD SWAP1 LOG3 POP POP POP POP POP POP POP JUMP JUMPDEST PUSH1 0x0 DUP2 DUP2 MSTORE PUSH1 0xC PUSH1 0x20 MSTORE PUSH1 0x40 DUP2 KECCAK256 PUSH1 0x5 DUP2 ADD SLOAD PUSH1 0xFF AND ISZERO PUSH2 0x107E JUMPI PUSH2 0x105D DUP4 PUSH2 0x1F3A JUMP JUMPDEST PUSH2 0x1066 DUP5 PUSH2 0x23E5 JUMP JUMPDEST GT ISZERO PUSH2 0x1075 JUMPI PUSH2 0x9B4 DUP4 PUSH2 0x23E5 JUMP JUMPDEST PUSH2 0x9B4 DUP4 PUSH2 0x1F3A JUMP JUMPDEST PUSH2 0x1087 DUP4 PUSH2 0x1F3A JUMP JUMPDEST PUSH2 0x1090 DUP5 PUSH2 0x23E5 JUMP JUMPDEST LT ISZERO PUSH2 0x1075 JUMPI PUSH2 0x9B4 DUP4 PUSH2 0x23E5 JUMP JUMPDEST PUSH2 0x10A8 DUP2 PUSH2 0x13A0 JUMP JUMPDEST PUSH2 0x10E4 JUMPI PUSH1 0x40 MLOAD PUSH3 0x461BCD PUSH1 0xE5 SHL DUP2 MSTORE PUSH1 0x20 PUSH1 0x4 DUP3 ADD MSTORE PUSH1 0xD PUSH1 0x24 DUP3 ADD MSTORE PUSH13 0x696E76616C6964207072696365 PUSH1 0x98 SHL PUSH1 0x44 DUP3 ADD MSTORE PUSH1 0x64 ADD PUSH2 0xA79 JUMP JUMPDEST PUSH1 0x0 DUP2 DUP2 MSTORE PUSH1 0xD PUSH1 0x20 MSTORE PUSH1 0x40 DUP2 KECCAK256 SWAP1 PUSH2 0x10FC DUP4 PUSH2 0x8B6 JUMP JUMPDEST SWAP1 POP PUSH2 0x1107 DUP4 PUSH2 0x25B2 JUMP JUMPDEST PUSH1 0x5 SLOAD PUSH1 0xB SLOAD DUP4 SLOAD PUSH1 0x40 MLOAD PUSH4 0xA9059CBB PUSH1 0xE0 SHL DUP2 MSTORE PUSH1 0x1 PUSH1 0x1 PUSH1 0xA0 SHL SUB SWAP4 DUP5 AND SWAP4 PUSH4 0xA9059CBB SWAP4 PUSH2 0x113D SWAP4 SWAP2 AND SWAP2 PUSH1 0x4 ADD PUSH2 0x28B3 JUMP JUMPDEST PUSH1 0x20 PUSH1 0x40 MLOAD DUP1 DUP4 SUB DUP2 PUSH1 0x0 DUP8 DUP1 EXTCODESIZE ISZERO DUP1 ISZERO PUSH2 0x1157 JUMPI PUSH1 0x0 DUP1 REVERT JUMPDEST POP GAS CALL ISZERO DUP1 ISZERO PUSH2 0x116B JUMPI RETURNDATASIZE PUSH1 0x0 DUP1 RETURNDATACOPY RETURNDATASIZE PUSH1 0x0 REVERT JUMPDEST POP POP POP POP PUSH1 0x40 MLOAD RETURNDATASIZE PUSH1 0x1F NOT PUSH1 0x1F DUP3 ADD AND DUP3 ADD DUP1 PUSH1 0x40 MSTORE POP DUP2 ADD SWAP1 PUSH2 0x118F SWAP2 SWAP1 PUSH2 0x273F JUMP JUMPDEST POP PUSH1 0x5 SLOAD PUSH1 0x0 DUP5 DUP2 MSTORE PUSH1 0xC PUSH1 0x20 MSTORE PUSH1 0x40 SWAP1 KECCAK256 SLOAD DUP4 SLOAD PUSH1 0x1 PUSH1 0x1 PUSH1 0xA0 SHL SUB SWAP3 DUP4 AND SWAP3 PUSH4 0xA9059CBB SWAP3 AND SWAP1 PUSH1 0x64 SWAP1 PUSH2 0x11C6 SWAP1 PUSH1 0xA PUSH2 0x292E JUMP JUMPDEST PUSH2 0x11D0 SWAP2 SWAP1 PUSH2 0x290C JUMP JUMPDEST DUP6 SLOAD PUSH2 0x11DC SWAP2 SWAP1 PUSH2 0x28F4 JUMP JUMPDEST PUSH2 0x11E6 SWAP1 DUP6 PUSH2 0x294D JUMP JUMPDEST PUSH1 0x40 MLOAD DUP4 PUSH4 0xFFFFFFFF AND PUSH1 0xE0 SHL DUP2 MSTORE PUSH1 0x4 ADD PUSH2 0x1203 SWAP3 SWAP2 SWAP1 PUSH2 0x28B3 JUMP JUMPDEST PUSH1 0x20 PUSH1 0x40 MLOAD DUP1 DUP4 SUB DUP2 PUSH1 0x0 DUP8 DUP1 EXTCODESIZE ISZERO DUP1 ISZERO PUSH2 0x121D JUMPI PUSH1 0x0 DUP1 REVERT JUMPDEST POP GAS CALL ISZERO DUP1 ISZERO PUSH2 0x1231 JUMPI RETURNDATASIZE PUSH1 0x0 DUP1 RETURNDATACOPY RETURNDATASIZE PUSH1 0x0 REVERT JUMPDEST POP POP POP POP PUSH1 0x40 MLOAD RETURNDATASIZE PUSH1 0x1F NOT PUSH1 0x1F DUP3 ADD AND DUP3 ADD DUP1 PUSH1 0x40 MSTORE POP DUP2 ADD SWAP1 PUSH2 0x1255 SWAP2 SWAP1 PUSH2 0x273F JUMP JUMPDEST POP PUSH1 0x5 SLOAD DUP3 SLOAD PUSH1 0x1 PUSH1 0x1 PUSH1 0xA0 SHL SUB SWAP1 SWAP2 AND SWAP1 PUSH4 0xA9059CBB SWAP1 CALLER SWAP1 PUSH1 0x64 SWAP1 PUSH2 0x127D SWAP1 PUSH1 0xA PUSH2 0x292E JUMP JUMPDEST PUSH2 0x1287 SWAP2 SWAP1 PUSH2 0x290C JUMP JUMPDEST PUSH1 0x40 MLOAD DUP4 PUSH4 0xFFFFFFFF AND PUSH1 0xE0 SHL DUP2 MSTORE PUSH1 0x4 ADD PUSH2 0x12A4 SWAP3 SWAP2 SWAP1 PUSH2 0x28B3 JUMP JUMPDEST PUSH1 0x20 PUSH1 0x40 MLOAD DUP1 DUP4 SUB DUP2 PUSH1 0x0 DUP8 DUP1 EXTCODESIZE ISZERO DUP1 ISZERO PUSH2 0x12BE JUMPI PUSH1 0x0 DUP1 REVERT JUMPDEST POP GAS CALL ISZERO DUP1 ISZERO PUSH2 0x12D2 JUMPI RETURNDATASIZE PUSH1 0x0 DUP1 RETURNDATACOPY RETURNDATASIZE PUSH1 0x0 REVERT JUMPDEST POP POP POP POP PUSH1 0x40 MLOAD RETURNDATASIZE PUSH1 0x1F NOT PUSH1 0x1F DUP3 ADD AND DUP3 ADD DUP1 PUSH1 0x40 MSTORE POP DUP2 ADD SWAP1 PUSH2 0x12F6 SWAP2 SWAP1 PUSH2 0x273F JUMP JUMPDEST POP PUSH1 0x0 DUP4 DUP2 MSTORE PUSH1 0xC PUSH1 0x20 MSTORE PUSH1 0x40 SWAP1 KECCAK256 SLOAD DUP3 SLOAD DUP5 SWAP2 PUSH1 0x1 PUSH1 0x1 PUSH1 0xA0 SHL SUB AND SWAP1 PUSH32 0xF28455920A5BCB3AEFF7A6BBDD4FED497E6F159330FE161026128B5C381BDD90 SWAP1 PUSH1 0x64 SWAP1 PUSH2 0x1344 SWAP1 PUSH1 0xA PUSH2 0x292E JUMP JUMPDEST PUSH2 0x134E SWAP2 SWAP1 PUSH2 0x290C JUMP JUMPDEST DUP6 SLOAD PUSH2 0x135A SWAP2 SWAP1 PUSH2 0x28F4 JUMP JUMPDEST PUSH2 0x1364 SWAP1 DUP6 PUSH2 0x294D JUMP JUMPDEST DUP6 SLOAD PUSH1 0x64 PUSH2 0x1373 DUP3 PUSH1 0xA PUSH2 0x292E JUMP JUMPDEST PUSH2 0x137D SWAP2 SWAP1 PUSH2 0x290C JUMP JUMPDEST PUSH1 0x40 DUP1 MLOAD SWAP4 DUP5 MSTORE PUSH1 0x20 DUP5 ADD SWAP3 SWAP1 SWAP3 MSTORE SWAP1 DUP3 ADD MSTORE PUSH1 0x60 ADD PUSH1 0x40 MLOAD DUP1 SWAP2 SUB SWAP1 LOG3 POP POP POP JUMP JUMPDEST PUSH1 0x0 DUP2 DUP2 MSTORE PUSH1 0xC PUSH1 0x20 MSTORE PUSH1 0x40 DUP2 KECCAK256 PUSH1 0x5 DUP2 ADD SLOAD PUSH1 0xFF AND ISZERO PUSH2 0x13D6 JUMPI PUSH2 0x13C4 DUP4 PUSH2 0x23E5 JUMP JUMPDEST PUSH2 0x13CD DUP5 PUSH2 0x187D JUMP JUMPDEST GT ISZERO SWAP4 SWAP3 POP POP POP JUMP JUMPDEST PUSH2 0x13DF DUP4 PUSH2 0x23E5 JUMP JUMPDEST PUSH2 0x13E8 DUP5 PUSH2 0x187D JUMP JUMPDEST LT ISZERO SWAP4 SWAP3 POP POP POP JUMP JUMPDEST PUSH2 0x13FA DUP2 PUSH2 0x1727 JUMP JUMPDEST PUSH2 0x1436 JUMPI PUSH1 0x40 MLOAD PUSH3 0x461BCD PUSH1 0xE5 SHL DUP2 MSTORE PUSH1 0x20 PUSH1 0x4 DUP3 ADD MSTORE PUSH1 0xD PUSH1 0x24 DUP3 ADD MSTORE PUSH13 0x696E76616C6964207072696365 PUSH1 0x98 SHL PUSH1 0x44 DUP3 ADD MSTORE PUSH1 0x64 ADD PUSH2 0xA79 JUMP JUMPDEST PUSH1 0x0 DUP2 DUP2 MSTORE PUSH1 0xD PUSH1 0x20 MSTORE PUSH1 0x40 DUP2 KECCAK256 SWAP1 PUSH2 0x144E DUP4 PUSH2 0x8B6 JUMP JUMPDEST SWAP1 POP PUSH2 0x1459 DUP4 PUSH2 0x25B2 JUMP JUMPDEST DUP2 SLOAD PUSH1 0x0 SWAP1 DUP3 GT ISZERO PUSH2 0x15BE JUMPI DUP3 SLOAD PUSH2 0x1471 SWAP1 DUP4 PUSH2 0x294D JUMP JUMPDEST PUSH1 0x5 SLOAD PUSH1 0xB SLOAD SWAP2 SWAP3 POP PUSH1 0x1 PUSH1 0x1 PUSH1 0xA0 SHL SUB SWAP1 DUP2 AND SWAP2 PUSH4 0xA9059CBB SWAP2 AND PUSH1 0x64 PUSH2 0x149A DUP6 PUSH1 0x5A PUSH2 0x292E JUMP JUMPDEST PUSH2 0x14A4 SWAP2 SWAP1 PUSH2 0x290C JUMP JUMPDEST DUP7 SLOAD PUSH2 0x14B0 SWAP2 SWAP1 PUSH2 0x28F4 JUMP JUMPDEST PUSH1 0x40 MLOAD DUP4 PUSH4 0xFFFFFFFF AND PUSH1 0xE0 SHL DUP2 MSTORE PUSH1 0x4 ADD PUSH2 0x14CD SWAP3 SWAP2 SWAP1 PUSH2 0x28B3 JUMP JUMPDEST PUSH1 0x20 PUSH1 0x40 MLOAD DUP1 DUP4 SUB DUP2 PUSH1 0x0 DUP8 DUP1 EXTCODESIZE ISZERO DUP1 ISZERO PUSH2 0x14E7 JUMPI PUSH1 0x0 DUP1 REVERT JUMPDEST POP GAS CALL ISZERO DUP1 ISZERO PUSH2 0x14FB JUMPI RETURNDATASIZE PUSH1 0x0 DUP1 RETURNDATACOPY RETURNDATASIZE PUSH1 0x0 REVERT JUMPDEST POP POP POP POP PUSH1 0x40 MLOAD RETURNDATASIZE PUSH1 0x1F NOT PUSH1 0x1F DUP3 ADD AND DUP3 ADD DUP1 PUSH1 0x40 MSTORE POP DUP2 ADD SWAP1 PUSH2 0x151F SWAP2 SWAP1 PUSH2 0x273F JUMP JUMPDEST POP PUSH1 0x5 SLOAD PUSH1 0x1 PUSH1 0x1 PUSH1 0xA0 SHL SUB AND PUSH4 0xA9059CBB CALLER PUSH1 0x64 PUSH2 0x153F DUP6 PUSH1 0xA PUSH2 0x292E JUMP JUMPDEST PUSH2 0x1549 SWAP2 SWAP1 PUSH2 0x290C JUMP JUMPDEST PUSH1 0x40 MLOAD DUP4 PUSH4 0xFFFFFFFF AND PUSH1 0xE0 SHL DUP2 MSTORE PUSH1 0x4 ADD PUSH2 0x1566 SWAP3 SWAP2 SWAP1 PUSH2 0x28B3 JUMP JUMPDEST PUSH1 0x20 PUSH1 0x40 MLOAD DUP1 DUP4 SUB DUP2 PUSH1 0x0 DUP8 DUP1 EXTCODESIZE ISZERO DUP1 ISZERO PUSH2 0x1580 JUMPI PUSH1 0x0 DUP1 REVERT JUMPDEST POP GAS CALL ISZERO DUP1 ISZERO PUSH2 0x1594 JUMPI RETURNDATASIZE PUSH1 0x0 DUP1 RETURNDATACOPY RETURNDATASIZE PUSH1 0x0 REVERT JUMPDEST POP POP POP POP PUSH1 0x40 MLOAD RETURNDATASIZE PUSH1 0x1F NOT PUSH1 0x1F DUP3 ADD AND DUP3 ADD DUP1 PUSH1 0x40 MSTORE POP DUP2 ADD SWAP1 PUSH2 0x15B8 SWAP2 SWAP1 PUSH2 0x273F JUMP JUMPDEST POP PUSH2 0x1648 JUMP JUMPDEST PUSH1 0x5 SLOAD PUSH1 0xB SLOAD PUSH1 0x40 MLOAD PUSH4 0xA9059CBB PUSH1 0xE0 SHL DUP2 MSTORE PUSH1 0x1 PUSH1 0x1 PUSH1 0xA0 SHL SUB SWAP3 DUP4 AND SWAP3 PUSH4 0xA9059CBB SWAP3 PUSH2 0x15F4 SWAP3 SWAP2 AND SWAP1 DUP7 SWAP1 PUSH1 0x4 ADD PUSH2 0x28B3 JUMP JUMPDEST PUSH1 0x20 PUSH1 0x40 MLOAD DUP1 DUP4 SUB DUP2 PUSH1 0x0 DUP8 DUP1 EXTCODESIZE ISZERO DUP1 ISZERO PUSH2 0x160E JUMPI PUSH1 0x0 DUP1 REVERT JUMPDEST POP GAS CALL ISZERO DUP1 ISZERO PUSH2 0x1622 JUMPI RETURNDATASIZE PUSH1 0x0 DUP1 RETURNDATACOPY RETURNDATASIZE PUSH1 0x0 REVERT JUMPDEST POP POP POP POP PUSH1 0x40 MLOAD RETURNDATASIZE PUSH1 0x1F NOT PUSH1 0x1F DUP3 ADD AND DUP3 ADD DUP1 PUSH1 0x40 MSTORE POP DUP2 ADD SWAP1 PUSH2 0x1646 SWAP2 SWAP1 PUSH2 0x273F JUMP JUMPDEST POP JUMPDEST PUSH1 0x0 DUP5 DUP2 MSTORE PUSH1 0xC PUSH1 0x20 MSTORE PUSH1 0x40 SWAP1 KECCAK256 SLOAD DUP4 SLOAD DUP6 SWAP2 PUSH1 0x1 PUSH1 0x1 PUSH1 0xA0 SHL SUB AND SWAP1 PUSH32 0x4E91025E01B2329DF1EC1067D27AAFEC4D1C41F682CCD794DEE04321E0B1E8DC SWAP1 PUSH1 0x64 PUSH2 0x870 DUP7 PUSH1 0x5A PUSH2 0x292E JUMP JUMPDEST PUSH2 0x169C PUSH2 0x2625 JUMP JUMPDEST PUSH1 0xB DUP1 SLOAD PUSH1 0x1 PUSH1 0x1 PUSH1 0xA0 SHL SUB NOT AND PUSH1 0x1 PUSH1 0x1 PUSH1 0xA0 SHL SUB SWAP3 SWAP1 SWAP3 AND SWAP2 SWAP1 SWAP2 OR SWAP1 SSTORE JUMP JUMPDEST PUSH1 0x0 DUP2 DUP2 MSTORE PUSH1 0xD PUSH1 0x20 MSTORE PUSH1 0x40 DUP2 KECCAK256 PUSH1 0x1 DUP2 ADD SLOAD DUP3 SWAP1 PUSH1 0x3C SWAP1 PUSH2 0x16E0 SWAP1 TIMESTAMP PUSH2 0x294D JUMP JUMPDEST PUSH2 0x16EA SWAP2 SWAP1 PUSH2 0x290C JUMP JUMPDEST SWAP1 POP PUSH1 0x7 SLOAD PUSH1 0x6 SLOAD DUP3 PUSH2 0x16FD SWAP2 SWAP1 PUSH2 0x292E JUMP JUMPDEST DUP4 SLOAD PUSH2 0x170B SWAP1 PUSH1 0x64 SWAP1 PUSH2 0x290C JUMP JUMPDEST PUSH2 0x1715 SWAP2 SWAP1 PUSH2 0x292E JUMP JUMPDEST PUSH2 0x171F SWAP2 SWAP1 PUSH2 0x290C JUMP JUMPDEST SWAP5 SWAP4 POP POP POP POP JUMP JUMPDEST PUSH1 0x0 DUP2 DUP2 MSTORE PUSH1 0xC PUSH1 0x20 MSTORE PUSH1 0x40 DUP2 KECCAK256 PUSH1 0x5 DUP2 ADD SLOAD PUSH1 0xFF AND ISZERO PUSH2 0x174B JUMPI PUSH2 0x13C4 DUP4 PUSH2 0x1F3A JUMP JUMPDEST PUSH2 0x13DF DUP4 PUSH2 0x1F3A JUMP JUMPDEST PUSH2 0x175C PUSH2 0x2625 JUMP JUMPDEST PUSH1 0x7 SSTORE JUMP JUMPDEST PUSH2 0x1769 PUSH2 0x2625 JUMP JUMPDEST PUSH1 0x6 SSTORE JUMP JUMPDEST PUSH1 0x0 DUP2 DUP2 MSTORE PUSH1 0xD PUSH1 0x20 MSTORE PUSH1 0x40 SWAP1 KECCAK256 SLOAD ISZERO PUSH2 0x17BE JUMPI PUSH1 0x40 MLOAD PUSH3 0x461BCD PUSH1 0xE5 SHL DUP2 MSTORE PUSH1 0x20 PUSH1 0x4 DUP3 ADD MSTORE PUSH1 0x11 PUSH1 0x24 DUP3 ADD MSTORE PUSH17 0x1BDC1D1A5BDB881A5CC8189B1BD8DAD959 PUSH1 0x7A SHL PUSH1 0x44 DUP3 ADD MSTORE PUSH1 0x64 ADD PUSH2 0xA79 JUMP JUMPDEST PUSH1 0x3 SLOAD PUSH1 0x0 DUP3 DUP2 MSTORE PUSH1 0xC PUSH1 0x20 MSTORE PUSH1 0x40 SWAP1 DUP2 SWAP1 KECCAK256 SLOAD SWAP1 MLOAD PUSH4 0x23B872DD PUSH1 0xE0 SHL DUP2 MSTORE ADDRESS PUSH1 0x4 DUP3 ADD MSTORE PUSH1 0x1 PUSH1 0x1 PUSH1 0xA0 SHL SUB SWAP2 DUP3 AND PUSH1 0x24 DUP3 ADD MSTORE PUSH1 0x44 DUP2 ADD DUP5 SWAP1 MSTORE SWAP2 AND SWAP1 PUSH4 0x23B872DD SWAP1 PUSH1 0x64 ADD PUSH1 0x0 PUSH1 0x40 MLOAD DUP1 DUP4 SUB DUP2 PUSH1 0x0 DUP8 DUP1 EXTCODESIZE ISZERO DUP1 ISZERO PUSH2 0x1821 JUMPI PUSH1 0x0 DUP1 REVERT JUMPDEST POP GAS CALL ISZERO DUP1 ISZERO PUSH2 0x1835 JUMPI RETURNDATASIZE PUSH1 0x0 DUP1 RETURNDATACOPY RETURNDATASIZE PUSH1 0x0 REVERT JUMPDEST POP POP PUSH1 0x40 MLOAD DUP4 SWAP3 POP CALLER SWAP2 POP PUSH32 0x6381D9813CABEB57471B5A7E05078E64845CCDB563146A6911D536F24CE960F1 SWAP1 PUSH1 0x0 SWAP1 LOG3 POP JUMP JUMPDEST PUSH2 0x1871 PUSH2 0x2625 JUMP JUMPDEST PUSH2 0x187B PUSH1 0x0 PUSH2 0x267F JUMP JUMPDEST JUMP JUMPDEST PUSH1 0x0 DUP2 DUP2 MSTORE PUSH1 0xC PUSH1 0x20 SWAP1 DUP2 MSTORE PUSH1 0x40 DUP1 DUP4 KECCAK256 PUSH1 0x1 DUP2 ADD SLOAD DUP3 MLOAD PUSH4 0x5C4443CF PUSH1 0xE1 SHL DUP2 MSTORE SWAP3 MLOAD SWAP2 SWAP4 DUP6 SWAP4 PUSH1 0x1 PUSH1 0x1 PUSH1 0xA0 SHL SUB SWAP1 SWAP3 AND SWAP3 PUSH4 0xB888879E SWAP3 PUSH1 0x4 DUP1 DUP3 ADD SWAP4 SWAP3 SWAP2 DUP3 SWAP1 SUB ADD DUP2 DUP7 DUP1 EXTCODESIZE ISZERO DUP1 ISZERO PUSH2 0x18D3 JUMPI PUSH1 0x0 DUP1 REVERT JUMPDEST POP GAS STATICCALL ISZERO DUP1 ISZERO PUSH2 0x18E7 JUMPI RETURNDATASIZE PUSH1 0x0 DUP1 RETURNDATACOPY RETURNDATASIZE PUSH1 0x0 REVERT JUMPDEST POP POP POP POP PUSH1 0x40 MLOAD RETURNDATASIZE PUSH1 0x1F NOT PUSH1 0x1F DUP3 ADD AND DUP3 ADD DUP1 PUSH1 0x40 MSTORE POP DUP2 ADD SWAP1 PUSH2 0x190B SWAP2 SWAP1 PUSH2 0x2722 JUMP JUMPDEST PUSH1 0x1 PUSH1 0x1 PUSH1 0xA0 SHL SUB AND PUSH4 0xFEAF968C PUSH1 0x40 MLOAD DUP2 PUSH4 0xFFFFFFFF AND PUSH1 0xE0 SHL DUP2 MSTORE PUSH1 0x4 ADD PUSH1 0xA0 PUSH1 0x40 MLOAD DUP1 DUP4 SUB DUP2 DUP7 DUP1 EXTCODESIZE ISZERO DUP1 ISZERO PUSH2 0x1943 JUMPI PUSH1 0x0 DUP1 REVERT JUMPDEST POP GAS STATICCALL ISZERO DUP1 ISZERO PUSH2 0x1957 JUMPI RETURNDATASIZE PUSH1 0x0 DUP1 RETURNDATACOPY RETURNDATASIZE PUSH1 0x0 REVERT JUMPDEST POP POP POP POP PUSH1 0x40 MLOAD RETURNDATASIZE PUSH1 0x1F NOT PUSH1 0x1F DUP3 ADD AND DUP3 ADD DUP1 PUSH1 0x40 MSTORE POP DUP2 ADD SWAP1 PUSH2 0x197B SWAP2 SWAP1 PUSH2 0x2863 JUMP JUMPDEST POP SWAP2 SWAP8 SWAP7 POP POP POP POP POP POP POP JUMP JUMPDEST PUSH1 0xB PUSH1 0x0 SWAP1 SLOAD SWAP1 PUSH2 0x100 EXP SWAP1 DIV PUSH1 0x1 PUSH1 0x1 PUSH1 0xA0 SHL SUB AND PUSH1 0x1 PUSH1 0x1 PUSH1 0xA0 SHL SUB AND PUSH4 0xAE3050E1 PUSH1 0x40 MLOAD DUP2 PUSH4 0xFFFFFFFF AND PUSH1 0xE0 SHL DUP2 MSTORE PUSH1 0x4 ADD PUSH1 0x20 PUSH1 0x40 MLOAD DUP1 DUP4 SUB DUP2 DUP7 DUP1 EXTCODESIZE ISZERO DUP1 ISZERO PUSH2 0x19D6 JUMPI PUSH1 0x0 DUP1 REVERT JUMPDEST POP GAS STATICCALL ISZERO DUP1 ISZERO PUSH2 0x19EA JUMPI RETURNDATASIZE PUSH1 0x0 DUP1 RETURNDATACOPY RETURNDATASIZE PUSH1 0x0 REVERT JUMPDEST POP POP POP POP PUSH1 0x40 MLOAD RETURNDATASIZE PUSH1 0x1F NOT PUSH1 0x1F DUP3 ADD AND DUP3 ADD DUP1 PUSH1 0x40 MSTORE POP DUP2 ADD SWAP1 PUSH2 0x1A0E SWAP2 SWAP1 PUSH2 0x273F JUMP JUMPDEST PUSH2 0x1A4A JUMPI PUSH1 0x40 MLOAD PUSH3 0x461BCD PUSH1 0xE5 SHL DUP2 MSTORE PUSH1 0x20 PUSH1 0x4 DUP3 ADD MSTORE PUSH1 0xD PUSH1 0x24 DUP3 ADD MSTORE PUSH13 0x1C185D5CD95119511953195B99 PUSH1 0x9A SHL PUSH1 0x44 DUP3 ADD MSTORE PUSH1 0x64 ADD PUSH2 0xA79 JUMP JUMPDEST PUSH1 0x4 DUP1 SLOAD PUSH1 0x40 MLOAD PUSH4 0x3755269B PUSH1 0xE0 SHL DUP2 MSTORE SWAP2 DUP3 ADD DUP4 SWAP1 MSTORE PUSH1 0x0 SWAP2 DUP3 SWAP2 DUP3 SWAP2 PUSH1 0x1 PUSH1 0x1 PUSH1 0xA0 SHL SUB SWAP1 SWAP2 AND SWAP1 PUSH4 0x3755269B SWAP1 PUSH1 0x24 ADD PUSH1 0xA0 PUSH1 0x40 MLOAD DUP1 DUP4 SUB DUP2 DUP7 DUP1 EXTCODESIZE ISZERO DUP1 ISZERO PUSH2 0x1A95 JUMPI PUSH1 0x0 DUP1 REVERT JUMPDEST POP GAS STATICCALL ISZERO DUP1 ISZERO PUSH2 0x1AA9 JUMPI RETURNDATASIZE PUSH1 0x0 DUP1 RETURNDATACOPY RETURNDATASIZE PUSH1 0x0 REVERT JUMPDEST POP POP POP POP PUSH1 0x40 MLOAD RETURNDATASIZE PUSH1 0x1F NOT PUSH1 0x1F DUP3 ADD AND DUP3 ADD DUP1 PUSH1 0x40 MSTORE POP DUP2 ADD SWAP1 PUSH2 0x1ACD SWAP2 SWAP1 PUSH2 0x2761 JUMP JUMPDEST SWAP5 POP POP POP SWAP3 POP SWAP3 POP PUSH2 0xE10 DUP2 PUSH4 0xFFFFFFFF AND PUSH2 0x1AE9 SWAP2 SWAP1 PUSH2 0x294D JUMP JUMPDEST TIMESTAMP GT ISZERO PUSH2 0x1B23 JUMPI PUSH1 0x40 MLOAD PUSH3 0x461BCD PUSH1 0xE5 SHL DUP2 MSTORE PUSH1 0x20 PUSH1 0x4 DUP3 ADD MSTORE PUSH1 0x8 PUSH1 0x24 DUP3 ADD MSTORE PUSH8 0x746F6F206C617465 PUSH1 0xC0 SHL PUSH1 0x44 DUP3 ADD MSTORE PUSH1 0x64 ADD PUSH2 0xA79 JUMP JUMPDEST PUSH1 0x40 MLOAD PUSH4 0x35B2346D PUSH1 0xE2 SHL DUP2 MSTORE PUSH1 0x4 DUP2 ADD DUP6 SWAP1 MSTORE PUSH1 0x0 SWAP1 DUP2 SWAP1 PUSH1 0x1 PUSH1 0x1 PUSH1 0xA0 SHL SUB DUP6 AND SWAP1 PUSH4 0xD6C8D1B4 SWAP1 PUSH1 0x24 ADD PUSH1 0x40 DUP1 MLOAD DUP1 DUP4 SUB DUP2 DUP7 DUP1 EXTCODESIZE ISZERO DUP1 ISZERO PUSH2 0x1B67 JUMPI PUSH1 0x0 DUP1 REVERT JUMPDEST POP GAS STATICCALL ISZERO DUP1 ISZERO PUSH2 0x1B7B JUMPI RETURNDATASIZE PUSH1 0x0 DUP1 RETURNDATACOPY RETURNDATASIZE PUSH1 0x0 REVERT JUMPDEST POP POP POP POP PUSH1 0x40 MLOAD RETURNDATASIZE PUSH1 0x1F NOT PUSH1 0x1F DUP3 ADD AND DUP3 ADD DUP1 PUSH1 0x40 MSTORE POP DUP2 ADD SWAP1 PUSH2 0x1B9F SWAP2 SWAP1 PUSH2 0x27DC JUMP JUMPDEST SWAP1 SWAP3 POP SWAP1 POP PUSH1 0x1 DUP6 PUSH1 0x1 DUP2 GT ISZERO PUSH2 0x1BB8 JUMPI PUSH2 0x1BB8 PUSH2 0x297A JUMP JUMPDEST EQ PUSH2 0x1BF8 JUMPI PUSH1 0x40 MLOAD PUSH3 0x461BCD PUSH1 0xE5 SHL DUP2 MSTORE PUSH1 0x20 PUSH1 0x4 DUP3 ADD MSTORE PUSH1 0x10 PUSH1 0x24 DUP3 ADD MSTORE PUSH16 0x6F7074696F6E20697320616374697665 PUSH1 0x80 SHL PUSH1 0x44 DUP3 ADD MSTORE PUSH1 0x64 ADD PUSH2 0xA79 JUMP JUMPDEST PUSH1 0x3 SLOAD PUSH1 0x40 MLOAD PUSH4 0x31A9108F PUSH1 0xE1 SHL DUP2 MSTORE PUSH1 0x4 DUP2 ADD DUP9 SWAP1 MSTORE CALLER SWAP2 PUSH1 0x1 PUSH1 0x1 PUSH1 0xA0 SHL SUB AND SWAP1 PUSH4 0x6352211E SWAP1 PUSH1 0x24 ADD PUSH1 0x20 PUSH1 0x40 MLOAD DUP1 DUP4 SUB DUP2 DUP7 DUP1 EXTCODESIZE ISZERO DUP1 ISZERO PUSH2 0x1C3C JUMPI PUSH1 0x0 DUP1 REVERT JUMPDEST POP GAS STATICCALL ISZERO DUP1 ISZERO PUSH2 0x1C50 JUMPI RETURNDATASIZE PUSH1 0x0 DUP1 RETURNDATACOPY RETURNDATASIZE PUSH1 0x0 REVERT JUMPDEST POP POP POP POP PUSH1 0x40 MLOAD RETURNDATASIZE PUSH1 0x1F NOT PUSH1 0x1F DUP3 ADD AND DUP3 ADD DUP1 PUSH1 0x40 MSTORE POP DUP2 ADD SWAP1 PUSH2 0x1C74 SWAP2 SWAP1 PUSH2 0x2722 JUMP JUMPDEST PUSH1 0x1 PUSH1 0x1 PUSH1 0xA0 SHL SUB AND EQ PUSH2 0x1CBA JUMPI PUSH1 0x40 MLOAD PUSH3 0x461BCD PUSH1 0xE5 SHL DUP2 MSTORE PUSH1 0x20 PUSH1 0x4 DUP3 ADD MSTORE PUSH1 0xD PUSH1 0x24 DUP3 ADD MSTORE PUSH13 0x3CB7BA903737BA1037BBB732B9 PUSH1 0x99 SHL PUSH1 0x44 DUP3 ADD MSTORE PUSH1 0x64 ADD PUSH2 0xA79 JUMP JUMPDEST PUSH1 0x1 PUSH1 0x1 PUSH1 0xA0 SHL SUB DUP5 AND PUSH1 0x0 SWAP1 DUP2 MSTORE PUSH1 0xE PUSH1 0x20 MSTORE PUSH1 0x40 DUP2 KECCAK256 SLOAD PUSH1 0xFF AND PUSH1 0x2 DUP2 GT ISZERO PUSH2 0x1CE7 JUMPI PUSH2 0x1CE7 PUSH2 0x297A JUMP JUMPDEST EQ ISZERO PUSH2 0x1D2E JUMPI PUSH1 0x40 MLOAD PUSH3 0x461BCD PUSH1 0xE5 SHL DUP2 MSTORE PUSH1 0x20 PUSH1 0x4 DUP3 ADD MSTORE PUSH1 0x16 PUSH1 0x24 DUP3 ADD MSTORE PUSH22 0x1CDD1C985D1959DE481B9BDD081CDD5C1C1BDC9D1959 PUSH1 0x52 SHL PUSH1 0x44 DUP3 ADD MSTORE PUSH1 0x64 ADD PUSH2 0xA79 JUMP JUMPDEST PUSH1 0x3 SLOAD PUSH1 0x40 MLOAD PUSH4 0x23B872DD PUSH1 0xE0 SHL DUP2 MSTORE CALLER PUSH1 0x4 DUP3 ADD MSTORE ADDRESS PUSH1 0x24 DUP3 ADD MSTORE PUSH1 0x44 DUP2 ADD DUP9 SWAP1 MSTORE PUSH1 0x1 PUSH1 0x1 PUSH1 0xA0 SHL SUB SWAP1 SWAP2 AND SWAP1 PUSH4 0x23B872DD SWAP1 PUSH1 0x64 ADD PUSH1 0x0 PUSH1 0x40 MLOAD DUP1 DUP4 SUB DUP2 PUSH1 0x0 DUP8 DUP1 EXTCODESIZE ISZERO DUP1 ISZERO PUSH2 0x1D80 JUMPI PUSH1 0x0 DUP1 REVERT JUMPDEST POP GAS CALL ISZERO DUP1 ISZERO PUSH2 0x1D94 JUMPI RETURNDATASIZE PUSH1 0x0 DUP1 RETURNDATACOPY RETURNDATASIZE PUSH1 0x0 REVERT JUMPDEST POP PUSH1 0x0 SWAP3 POP PUSH1 0x1 SWAP2 POP PUSH2 0x1DA4 SWAP1 POP JUMP JUMPDEST PUSH1 0x1 PUSH1 0x1 PUSH1 0xA0 SHL SUB DUP7 AND PUSH1 0x0 SWAP1 DUP2 MSTORE PUSH1 0xE PUSH1 0x20 MSTORE PUSH1 0x40 SWAP1 KECCAK256 SLOAD PUSH1 0xFF AND PUSH1 0x2 DUP2 GT ISZERO PUSH2 0x1DD1 JUMPI PUSH2 0x1DD1 PUSH2 0x297A JUMP JUMPDEST EQ PUSH2 0x1DDD JUMPI PUSH1 0x0 PUSH2 0x1DE0 JUMP JUMPDEST PUSH1 0x1 JUMPDEST PUSH1 0x40 DUP1 MLOAD DUP1 DUP3 ADD DUP3 MSTORE CALLER DUP2 MSTORE DUP2 MLOAD PUSH1 0xA0 DUP2 ADD DUP4 MSTORE PUSH1 0x1 PUSH1 0x1 PUSH1 0xA0 SHL SUB SWAP9 DUP10 AND DUP2 MSTORE PUSH1 0x1 PUSH1 0x1 PUSH1 0x80 SHL SUB SWAP7 DUP8 AND PUSH1 0x20 DUP3 DUP2 ADD SWAP2 SWAP1 SWAP2 MSTORE SWAP6 SWAP1 SWAP7 AND DUP7 DUP4 ADD MSTORE PUSH4 0xFFFFFFFF SWAP1 SWAP7 AND PUSH1 0x60 DUP1 DUP8 ADD SWAP2 SWAP1 SWAP2 MSTORE SWAP2 ISZERO ISZERO PUSH1 0x80 DUP1 DUP8 ADD SWAP2 SWAP1 SWAP2 MSTORE DUP5 DUP8 ADD SWAP6 DUP7 MSTORE PUSH1 0x0 SWAP10 DUP11 MSTORE PUSH1 0xC DUP6 MSTORE SWAP9 DUP2 SWAP1 KECCAK256 SWAP6 MLOAD DUP7 SLOAD SWAP1 DUP9 AND PUSH1 0x1 PUSH1 0x1 PUSH1 0xA0 SHL SUB NOT SWAP2 DUP3 AND OR DUP8 SSTORE SWAP5 MLOAD DUP1 MLOAD PUSH1 0x1 DUP9 ADD DUP1 SLOAD SWAP2 SWAP1 SWAP10 AND SWAP7 AND SWAP6 SWAP1 SWAP6 OR SWAP1 SWAP7 SSTORE SWAP2 DUP4 ADD MLOAD PUSH1 0x2 DUP6 ADD SSTORE POP SWAP3 DUP2 ADD MLOAD PUSH1 0x3 DUP4 ADD SSTORE SWAP2 DUP3 ADD MLOAD PUSH1 0x4 DUP3 ADD SSTORE SWAP3 ADD MLOAD PUSH1 0x5 SWAP1 SWAP3 ADD DUP1 SLOAD SWAP3 ISZERO ISZERO PUSH1 0xFF NOT SWAP1 SWAP4 AND SWAP3 SWAP1 SWAP3 OR SWAP1 SWAP2 SSTORE POP JUMP JUMPDEST PUSH1 0x0 PUSH1 0x1 SLOAD PUSH1 0x2 SLOAD PUSH2 0x1EC4 DUP5 PUSH2 0x8B6 JUMP JUMPDEST PUSH2 0x1ECE SWAP2 SWAP1 PUSH2 0x290C JUMP JUMPDEST PUSH2 0x1ED8 SWAP2 SWAP1 PUSH2 0x292E JUMP JUMPDEST SWAP3 SWAP2 POP POP JUMP JUMPDEST PUSH2 0x1EE6 PUSH2 0x2625 JUMP JUMPDEST PUSH2 0x1F40 DUP2 GT ISZERO PUSH2 0x1F28 JUMPI PUSH1 0x40 MLOAD PUSH3 0x461BCD PUSH1 0xE5 SHL DUP2 MSTORE PUSH1 0x20 PUSH1 0x4 DUP3 ADD MSTORE PUSH1 0xD PUSH1 0x24 DUP3 ADD MSTORE PUSH13 0x696E76616C69642076616C7565 PUSH1 0x98 SHL PUSH1 0x44 DUP3 ADD MSTORE PUSH1 0x64 ADD PUSH2 0xA79 JUMP JUMPDEST PUSH1 0x1 SSTORE JUMP JUMPDEST PUSH2 0x1F35 PUSH2 0x2625 JUMP JUMPDEST PUSH1 0x8 SSTORE JUMP JUMPDEST PUSH1 0x0 DUP2 DUP2 MSTORE PUSH1 0xD PUSH1 0x20 SWAP1 DUP2 MSTORE PUSH1 0x40 DUP1 DUP4 KECCAK256 PUSH1 0xC SWAP1 SWAP3 MSTORE DUP1 DUP4 KECCAK256 PUSH1 0x4 DUP1 SLOAD SWAP3 MLOAD PUSH4 0x3755269B PUSH1 0xE0 SHL DUP2 MSTORE SWAP1 DUP2 ADD DUP7 SWAP1 MSTORE SWAP1 SWAP2 DUP5 SWAP2 PUSH1 0x1 PUSH1 0x1 PUSH1 0xA0 SHL SUB SWAP1 SWAP2 AND SWAP1 PUSH4 0x3755269B SWAP1 PUSH1 0x24 ADD PUSH1 0xA0 PUSH1 0x40 MLOAD DUP1 DUP4 SUB DUP2 DUP7 DUP1 EXTCODESIZE ISZERO DUP1 ISZERO PUSH2 0x1F9A JUMPI PUSH1 0x0 DUP1 REVERT JUMPDEST POP GAS STATICCALL ISZERO DUP1 ISZERO PUSH2 0x1FAE JUMPI RETURNDATASIZE PUSH1 0x0 DUP1 RETURNDATACOPY RETURNDATASIZE PUSH1 0x0 REVERT JUMPDEST POP POP POP POP PUSH1 0x40 MLOAD RETURNDATASIZE PUSH1 0x1F NOT PUSH1 0x1F DUP3 ADD AND DUP3 ADD DUP1 PUSH1 0x40 MSTORE POP DUP2 ADD SWAP1 PUSH2 0x1FD2 SWAP2 SWAP1 PUSH2 0x2761 JUMP JUMPDEST POP POP POP SWAP2 POP POP PUSH1 0x0 DUP1 DUP3 PUSH1 0x1 PUSH1 0x1 PUSH1 0xA0 SHL SUB AND PUSH4 0xD6C8D1B4 DUP9 PUSH1 0x40 MLOAD DUP3 PUSH4 0xFFFFFFFF AND PUSH1 0xE0 SHL DUP2 MSTORE PUSH1 0x4 ADD PUSH2 0x2009 SWAP2 DUP2 MSTORE PUSH1 0x20 ADD SWAP1 JUMP JUMPDEST PUSH1 0x40 DUP1 MLOAD DUP1 DUP4 SUB DUP2 DUP7 DUP1 EXTCODESIZE ISZERO DUP1 ISZERO PUSH2 0x2020 JUMPI PUSH1 0x0 DUP1 REVERT JUMPDEST POP GAS STATICCALL ISZERO DUP1 ISZERO PUSH2 0x2034 JUMPI RETURNDATASIZE PUSH1 0x0 DUP1 RETURNDATACOPY RETURNDATASIZE PUSH1 0x0 REVERT JUMPDEST POP POP POP POP PUSH1 0x40 MLOAD RETURNDATASIZE PUSH1 0x1F NOT PUSH1 0x1F DUP3 ADD AND DUP3 ADD DUP1 PUSH1 0x40 MSTORE POP DUP2 ADD SWAP1 PUSH2 0x2058 SWAP2 SWAP1 PUSH2 0x27DC JUMP JUMPDEST PUSH1 0x5 DUP7 ADD SLOAD SWAP2 SWAP4 POP SWAP2 POP PUSH1 0xFF AND ISZERO PUSH2 0x20B6 JUMPI PUSH1 0x9 SLOAD DUP6 SLOAD PUSH1 0x1 PUSH1 0x1 PUSH1 0x80 SHL SUB DUP5 AND SWAP2 PUSH2 0x2083 SWAP2 PUSH2 0x292E JUMP JUMPDEST PUSH2 0x208D SWAP2 SWAP1 PUSH2 0x290C JUMP JUMPDEST PUSH2 0x2098 SWAP1 PUSH1 0x78 PUSH2 0x292E JUMP JUMPDEST PUSH2 0x20AB SWAP1 PUSH1 0x1 PUSH1 0x1 PUSH1 0x80 SHL SUB DUP4 AND PUSH2 0x28F4 JUMP JUMPDEST SWAP8 SWAP7 POP POP POP POP POP POP POP JUMP JUMPDEST PUSH1 0x9 SLOAD DUP6 SLOAD PUSH1 0x1 PUSH1 0x1 PUSH1 0x80 SHL SUB DUP5 AND SWAP2 PUSH2 0x20CF SWAP2 PUSH2 0x292E JUMP JUMPDEST PUSH2 0x20D9 SWAP2 SWAP1 PUSH2 0x290C JUMP JUMPDEST PUSH2 0x20E4 SWAP1 PUSH1 0x78 PUSH2 0x292E JUMP JUMPDEST PUSH2 0x20AB SWAP1 PUSH1 0x1 PUSH1 0x1 PUSH1 0x80 SHL SUB DUP4 AND PUSH2 0x294D JUMP JUMPDEST PUSH1 0x0 DUP3 DUP2 MSTORE PUSH1 0xD PUSH1 0x20 MSTORE PUSH1 0x40 SWAP1 KECCAK256 SLOAD PUSH2 0x2144 JUMPI PUSH1 0x40 MLOAD PUSH3 0x461BCD PUSH1 0xE5 SHL DUP2 MSTORE PUSH1 0x20 PUSH1 0x4 DUP3 ADD MSTORE PUSH1 0xF PUSH1 0x24 DUP3 ADD MSTORE PUSH15 0x1BDC1D1A5BDB881C995919595B5959 PUSH1 0x8A SHL PUSH1 0x44 DUP3 ADD MSTORE PUSH1 0x64 ADD PUSH2 0xA79 JUMP JUMPDEST PUSH1 0x0 PUSH2 0x214F DUP4 PUSH2 0x16BE JUMP JUMPDEST PUSH1 0x0 DUP5 DUP2 MSTORE PUSH1 0xD PUSH1 0x20 MSTORE PUSH1 0x40 SWAP1 KECCAK256 SLOAD SWAP1 SWAP2 POP PUSH2 0x216C SWAP1 DUP3 SWAP1 PUSH2 0x28F4 JUMP JUMPDEST DUP3 GT ISZERO PUSH2 0x21AD JUMPI PUSH1 0x40 MLOAD PUSH3 0x461BCD PUSH1 0xE5 SHL DUP2 MSTORE PUSH1 0x20 PUSH1 0x4 DUP3 ADD MSTORE PUSH1 0xF PUSH1 0x24 DUP3 ADD MSTORE PUSH15 0x1D1BDBC81B5D58DA08185B5BDD5B9D PUSH1 0x8A SHL PUSH1 0x44 DUP3 ADD MSTORE PUSH1 0x64 ADD PUSH2 0xA79 JUMP JUMPDEST PUSH1 0x0 DUP4 DUP2 MSTORE PUSH1 0xC PUSH1 0x20 MSTORE PUSH1 0x40 SWAP1 KECCAK256 SLOAD PUSH1 0x1 PUSH1 0x1 PUSH1 0xA0 SHL SUB AND CALLER EQ PUSH2 0x21D0 JUMPI PUSH1 0x0 DUP1 REVERT JUMPDEST PUSH1 0x0 DUP4 DUP2 MSTORE PUSH1 0xD PUSH1 0x20 MSTORE PUSH1 0x40 DUP2 KECCAK256 SLOAD DUP4 SWAP1 PUSH2 0x21EC SWAP1 DUP5 SWAP1 PUSH2 0x28F4 JUMP JUMPDEST PUSH2 0x21F6 SWAP2 SWAP1 PUSH2 0x294D JUMP JUMPDEST PUSH1 0xB SLOAD SWAP1 SWAP2 POP PUSH1 0x1 PUSH1 0x1 PUSH1 0xA0 SHL SUB AND PUSH4 0x1B45A68D PUSH2 0x2214 DUP5 DUP7 PUSH2 0x294D JUMP JUMPDEST PUSH1 0x40 MLOAD DUP3 PUSH4 0xFFFFFFFF AND PUSH1 0xE0 SHL DUP2 MSTORE PUSH1 0x4 ADD PUSH2 0x2232 SWAP2 DUP2 MSTORE PUSH1 0x20 ADD SWAP1 JUMP JUMPDEST PUSH1 0x0 PUSH1 0x40 MLOAD DUP1 DUP4 SUB DUP2 PUSH1 0x0 DUP8 DUP1 EXTCODESIZE ISZERO DUP1 ISZERO PUSH2 0x224C JUMPI PUSH1 0x0 DUP1 REVERT JUMPDEST POP GAS CALL ISZERO DUP1 ISZERO PUSH2 0x2260 JUMPI RETURNDATASIZE PUSH1 0x0 DUP1 RETURNDATACOPY RETURNDATASIZE PUSH1 0x0 REVERT JUMPDEST POP POP PUSH1 0x40 DUP1 MLOAD DUP1 DUP3 ADD DUP3 MSTORE DUP5 DUP2 MSTORE TIMESTAMP PUSH1 0x20 DUP1 DUP4 ADD SWAP2 DUP3 MSTORE PUSH1 0x0 DUP11 DUP2 MSTORE PUSH1 0xD DUP3 MSTORE DUP5 DUP2 KECCAK256 SWAP4 MLOAD DUP5 SSTORE SWAP2 MLOAD PUSH1 0x1 SWAP1 SWAP4 ADD SWAP3 SWAP1 SWAP3 SSTORE PUSH1 0x5 SLOAD PUSH1 0xC SWAP1 SWAP3 MSTORE DUP3 SWAP1 KECCAK256 SLOAD SWAP2 MLOAD PUSH4 0x23B872DD PUSH1 0xE0 SHL DUP2 MSTORE PUSH1 0x1 PUSH1 0x1 PUSH1 0xA0 SHL SUB SWAP3 DUP4 AND PUSH1 0x4 DUP3 ADD MSTORE ADDRESS PUSH1 0x24 DUP3 ADD MSTORE PUSH1 0x44 DUP2 ADD DUP9 SWAP1 MSTORE SWAP2 AND SWAP3 POP PUSH4 0x23B872DD SWAP2 POP PUSH1 0x64 ADD PUSH1 0x20 PUSH1 0x40 MLOAD DUP1 DUP4 SUB DUP2 PUSH1 0x0 DUP8 DUP1 EXTCODESIZE ISZERO DUP1 ISZERO PUSH2 0x22EF JUMPI PUSH1 0x0 DUP1 REVERT JUMPDEST POP GAS CALL ISZERO DUP1 ISZERO PUSH2 0x2303 JUMPI RETURNDATASIZE PUSH1 0x0 DUP1 RETURNDATACOPY RETURNDATASIZE PUSH1 0x0 REVERT JUMPDEST POP POP POP POP PUSH1 0x40 MLOAD RETURNDATASIZE PUSH1 0x1F NOT PUSH1 0x1F DUP3 ADD AND DUP3 ADD DUP1 PUSH1 0x40 MSTORE POP DUP2 ADD SWAP1 PUSH2 0x2327 SWAP2 SWAP1 PUSH2 0x273F JUMP JUMPDEST POP PUSH1 0x5 SLOAD PUSH1 0xB SLOAD PUSH1 0x40 MLOAD PUSH4 0xA9059CBB PUSH1 0xE0 SHL DUP2 MSTORE PUSH1 0x1 PUSH1 0x1 PUSH1 0xA0 SHL SUB SWAP3 DUP4 AND SWAP3 PUSH4 0xA9059CBB SWAP3 PUSH2 0x235E SWAP3 SWAP2 AND SWAP1 DUP8 SWAP1 PUSH1 0x4 ADD PUSH2 0x28B3 JUMP JUMPDEST PUSH1 0x20 PUSH1 0x40 MLOAD DUP1 DUP4 SUB DUP2 PUSH1 0x0 DUP8 DUP1 EXTCODESIZE ISZERO DUP1 ISZERO PUSH2 0x2378 JUMPI PUSH1 0x0 DUP1 REVERT JUMPDEST POP GAS CALL ISZERO DUP1 ISZERO PUSH2 0x238C JUMPI RETURNDATASIZE PUSH1 0x0 DUP1 RETURNDATACOPY RETURNDATASIZE PUSH1 0x0 REVERT JUMPDEST POP POP POP POP PUSH1 0x40 MLOAD RETURNDATASIZE PUSH1 0x1F NOT PUSH1 0x1F DUP3 ADD AND DUP3 ADD DUP1 PUSH1 0x40 MSTORE POP DUP2 ADD SWAP1 PUSH2 0x23B0 SWAP2 SWAP1 PUSH2 0x273F JUMP JUMPDEST POP PUSH1 0x40 MLOAD DUP4 DUP2 MSTORE DUP5 SWAP1 CALLER SWAP1 PUSH32 0x77C6871227E5D2DEC8DADD5354F78453203E22E669CD0EC4C19D9A8C5EDB31D0 SWAP1 PUSH1 0x20 ADD PUSH2 0x8A8 JUMP JUMPDEST PUSH1 0x4 DUP1 SLOAD PUSH1 0x40 MLOAD PUSH4 0x3755269B PUSH1 0xE0 SHL DUP2 MSTORE SWAP2 DUP3 ADD DUP4 SWAP1 MSTORE PUSH1 0x0 SWAP2 DUP3 SWAP2 PUSH1 0x1 PUSH1 0x1 PUSH1 0xA0 SHL SUB AND SWAP1 PUSH4 0x3755269B SWAP1 PUSH1 0x24 ADD PUSH1 0xA0 PUSH1 0x40 MLOAD DUP1 DUP4 SUB DUP2 DUP7 DUP1 EXTCODESIZE ISZERO DUP1 ISZERO PUSH2 0x242C JUMPI PUSH1 0x0 DUP1 REVERT JUMPDEST POP GAS STATICCALL ISZERO DUP1 ISZERO PUSH2 0x2440 JUMPI RETURNDATASIZE PUSH1 0x0 DUP1 RETURNDATACOPY RETURNDATASIZE PUSH1 0x0 REVERT JUMPDEST POP POP POP POP PUSH1 0x40 MLOAD RETURNDATASIZE PUSH1 0x1F NOT PUSH1 0x1F DUP3 ADD AND DUP3 ADD DUP1 PUSH1 0x40 MSTORE POP DUP2 ADD SWAP1 PUSH2 0x2464 SWAP2 SWAP1 PUSH2 0x2761 JUMP JUMPDEST POP POP PUSH1 0x40 MLOAD PUSH4 0x35B2346D PUSH1 0xE2 SHL DUP2 MSTORE PUSH1 0x4 DUP2 ADD DUP8 SWAP1 MSTORE SWAP2 SWAP4 POP PUSH1 0x0 SWAP3 POP POP PUSH1 0x1 PUSH1 0x1 PUSH1 0xA0 SHL SUB DUP4 AND SWAP1 PUSH4 0xD6C8D1B4 SWAP1 PUSH1 0x24 ADD PUSH1 0x40 DUP1 MLOAD DUP1 DUP4 SUB DUP2 DUP7 DUP1 EXTCODESIZE ISZERO DUP1 ISZERO PUSH2 0x24AD JUMPI PUSH1 0x0 DUP1 REVERT JUMPDEST POP GAS STATICCALL ISZERO DUP1 ISZERO PUSH2 0x24C1 JUMPI RETURNDATASIZE PUSH1 0x0 DUP1 RETURNDATACOPY RETURNDATASIZE PUSH1 0x0 REVERT JUMPDEST POP POP POP POP PUSH1 0x40 MLOAD RETURNDATASIZE PUSH1 0x1F NOT PUSH1 0x1F DUP3 ADD AND DUP3 ADD DUP1 PUSH1 0x40 MSTORE POP DUP2 ADD SWAP1 PUSH2 0x24E5 SWAP2 SWAP1 PUSH2 0x27DC JUMP JUMPDEST PUSH1 0x0 DUP7 DUP2 MSTORE PUSH1 0xC PUSH1 0x20 MSTORE PUSH1 0x40 SWAP1 KECCAK256 PUSH1 0x5 ADD SLOAD SWAP1 SWAP3 POP PUSH1 0xFF AND ISZERO SWAP1 POP PUSH2 0x2528 JUMPI PUSH1 0x64 PUSH1 0xA SLOAD PUSH1 0x64 PUSH2 0x2515 SWAP2 SWAP1 PUSH2 0x28F4 JUMP JUMPDEST PUSH2 0x1715 SWAP1 PUSH1 0x1 PUSH1 0x1 PUSH1 0x80 SHL SUB DUP5 AND PUSH2 0x292E JUMP JUMPDEST PUSH1 0x64 PUSH1 0xA SLOAD PUSH1 0x64 PUSH2 0x2515 SWAP2 SWAP1 PUSH2 0x294D JUMP JUMPDEST PUSH2 0x2541 PUSH2 0x2625 JUMP JUMPDEST PUSH1 0x1 PUSH1 0x1 PUSH1 0xA0 SHL SUB DUP2 AND PUSH2 0x25A6 JUMPI PUSH1 0x40 MLOAD PUSH3 0x461BCD PUSH1 0xE5 SHL DUP2 MSTORE PUSH1 0x20 PUSH1 0x4 DUP3 ADD MSTORE PUSH1 0x26 PUSH1 0x24 DUP3 ADD MSTORE PUSH32 0x4F776E61626C653A206E6577206F776E657220697320746865207A65726F2061 PUSH1 0x44 DUP3 ADD MSTORE PUSH6 0x646472657373 PUSH1 0xD0 SHL PUSH1 0x64 DUP3 ADD MSTORE PUSH1 0x84 ADD PUSH2 0xA79 JUMP JUMPDEST PUSH2 0x25AF DUP2 PUSH2 0x267F JUMP JUMPDEST POP JUMP JUMPDEST PUSH1 0x0 DUP2 DUP2 MSTORE PUSH1 0xC PUSH1 0x20 MSTORE PUSH1 0x40 SWAP1 DUP2 SWAP1 KECCAK256 PUSH1 0x1 DUP2 ADD SLOAD SWAP2 MLOAD PUSH4 0xB07F0A41 PUSH1 0xE0 SHL DUP2 MSTORE PUSH1 0x4 DUP2 ADD DUP5 SWAP1 MSTORE SWAP1 SWAP2 PUSH1 0x1 PUSH1 0x1 PUSH1 0xA0 SHL SUB AND SWAP1 PUSH4 0xB07F0A41 SWAP1 PUSH1 0x24 ADD PUSH1 0x0 PUSH1 0x40 MLOAD DUP1 DUP4 SUB DUP2 PUSH1 0x0 DUP8 DUP1 EXTCODESIZE ISZERO DUP1 ISZERO PUSH2 0x2609 JUMPI PUSH1 0x0 DUP1 REVERT JUMPDEST POP GAS CALL ISZERO DUP1 ISZERO PUSH2 0x261D JUMPI RETURNDATASIZE PUSH1 0x0 DUP1 RETURNDATACOPY RETURNDATASIZE PUSH1 0x0 REVERT JUMPDEST POP POP POP POP POP POP JUMP JUMPDEST PUSH1 0x0 SLOAD PUSH1 0x1 PUSH1 0x1 PUSH1 0xA0 SHL SUB AND CALLER EQ PUSH2 0x187B JUMPI PUSH1 0x40 MLOAD PUSH3 0x461BCD PUSH1 0xE5 SHL DUP2 MSTORE PUSH1 0x20 PUSH1 0x4 DUP3 ADD DUP2 SWAP1 MSTORE PUSH1 0x24 DUP3 ADD MSTORE PUSH32 0x4F776E61626C653A2063616C6C6572206973206E6F7420746865206F776E6572 PUSH1 0x44 DUP3 ADD MSTORE PUSH1 0x64 ADD PUSH2 0xA79 JUMP JUMPDEST PUSH1 0x0 DUP1 SLOAD PUSH1 0x1 PUSH1 0x1 PUSH1 0xA0 SHL SUB DUP4 DUP2 AND PUSH1 0x1 PUSH1 0x1 PUSH1 0xA0 SHL SUB NOT DUP4 AND DUP2 OR DUP5 SSTORE PUSH1 0x40 MLOAD SWAP2 SWAP1 SWAP3 AND SWAP3 DUP4 SWAP2 PUSH32 0x8BE0079C531659141344CD1FD0A4F28419497F9722A3DAAFE3B4186F6B6457E0 SWAP2 SWAP1 LOG3 POP POP JUMP JUMPDEST DUP1 MLOAD PUSH1 0x1 PUSH1 0x1 PUSH1 0x80 SHL SUB DUP2 AND DUP2 EQ PUSH2 0x26E6 JUMPI PUSH1 0x0 DUP1 REVERT JUMPDEST SWAP2 SWAP1 POP JUMP JUMPDEST DUP1 MLOAD PUSH10 0xFFFFFFFFFFFFFFFFFFFF DUP2 AND DUP2 EQ PUSH2 0x26E6 JUMPI PUSH1 0x0 DUP1 REVERT JUMPDEST PUSH1 0x0 PUSH1 0x20 DUP3 DUP5 SUB SLT ISZERO PUSH2 0x2717 JUMPI PUSH1 0x0 DUP1 REVERT JUMPDEST DUP2 CALLDATALOAD PUSH2 0x9B4 DUP2 PUSH2 0x2990 JUMP JUMPDEST PUSH1 0x0 PUSH1 0x20 DUP3 DUP5 SUB SLT ISZERO PUSH2 0x2734 JUMPI PUSH1 0x0 DUP1 REVERT JUMPDEST DUP2 MLOAD PUSH2 0x9B4 DUP2 PUSH2 0x2990 JUMP JUMPDEST PUSH1 0x0 PUSH1 0x20 DUP3 DUP5 SUB SLT ISZERO PUSH2 0x2751 JUMPI PUSH1 0x0 DUP1 REVERT JUMPDEST DUP2 MLOAD DUP1 ISZERO ISZERO DUP2 EQ PUSH2 0x9B4 JUMPI PUSH1 0x0 DUP1 REVERT JUMPDEST PUSH1 0x0 DUP1 PUSH1 0x0 DUP1 PUSH1 0x0 PUSH1 0xA0 DUP7 DUP9 SUB SLT ISZERO PUSH2 0x2779 JUMPI PUSH1 0x0 DUP1 REVERT JUMPDEST DUP6 MLOAD PUSH1 0x2 DUP2 LT PUSH2 0x2788 JUMPI PUSH1 0x0 DUP1 REVERT JUMPDEST PUSH1 0x20 DUP8 ADD MLOAD SWAP1 SWAP6 POP PUSH2 0x2799 DUP2 PUSH2 0x2990 JUMP JUMPDEST SWAP4 POP PUSH2 0x27A7 PUSH1 0x40 DUP8 ADD PUSH2 0x26CF JUMP JUMPDEST SWAP3 POP PUSH2 0x27B5 PUSH1 0x60 DUP8 ADD PUSH2 0x26CF JUMP JUMPDEST SWAP2 POP PUSH1 0x80 DUP7 ADD MLOAD PUSH4 0xFFFFFFFF DUP2 AND DUP2 EQ PUSH2 0x27CE JUMPI PUSH1 0x0 DUP1 REVERT JUMPDEST DUP1 SWAP2 POP POP SWAP3 SWAP6 POP SWAP3 SWAP6 SWAP1 SWAP4 POP JUMP JUMPDEST PUSH1 0x0 DUP1 PUSH1 0x40 DUP4 DUP6 SUB SLT ISZERO PUSH2 0x27EF JUMPI PUSH1 0x0 DUP1 REVERT JUMPDEST PUSH2 0x27F8 DUP4 PUSH2 0x26CF JUMP JUMPDEST SWAP2 POP PUSH2 0x2806 PUSH1 0x20 DUP5 ADD PUSH2 0x26CF JUMP JUMPDEST SWAP1 POP SWAP3 POP SWAP3 SWAP1 POP JUMP JUMPDEST PUSH1 0x0 PUSH1 0x20 DUP3 DUP5 SUB SLT ISZERO PUSH2 0x2821 JUMPI PUSH1 0x0 DUP1 REVERT JUMPDEST POP CALLDATALOAD SWAP2 SWAP1 POP JUMP JUMPDEST PUSH1 0x0 PUSH1 0x20 DUP3 DUP5 SUB SLT ISZERO PUSH2 0x283A JUMPI PUSH1 0x0 DUP1 REVERT JUMPDEST POP MLOAD SWAP2 SWAP1 POP JUMP JUMPDEST PUSH1 0x0 DUP1 PUSH1 0x40 DUP4 DUP6 SUB SLT ISZERO PUSH2 0x2854 JUMPI PUSH1 0x0 DUP1 REVERT JUMPDEST POP POP DUP1 CALLDATALOAD SWAP3 PUSH1 0x20 SWAP1 SWAP2 ADD CALLDATALOAD SWAP2 POP JUMP JUMPDEST PUSH1 0x0 DUP1 PUSH1 0x0 DUP1 PUSH1 0x0 PUSH1 0xA0 DUP7 DUP9 SUB SLT ISZERO PUSH2 0x287B JUMPI PUSH1 0x0 DUP1 REVERT JUMPDEST PUSH2 0x2884 DUP7 PUSH2 0x26EB JUMP JUMPDEST SWAP5 POP PUSH1 0x20 DUP7 ADD MLOAD SWAP4 POP PUSH1 0x40 DUP7 ADD MLOAD SWAP3 POP PUSH1 0x60 DUP7 ADD MLOAD SWAP2 POP PUSH2 0x28A7 PUSH1 0x80 DUP8 ADD PUSH2 0x26EB JUMP JUMPDEST SWAP1 POP SWAP3 SWAP6 POP SWAP3 SWAP6 SWAP1 SWAP4 POP JUMP JUMPDEST PUSH1 0x1 PUSH1 0x1 PUSH1 0xA0 SHL SUB SWAP3 SWAP1 SWAP3 AND DUP3 MSTORE PUSH1 0x20 DUP3 ADD MSTORE PUSH1 0x40 ADD SWAP1 JUMP JUMPDEST PUSH1 0x20 DUP2 ADD PUSH1 0x3 DUP4 LT PUSH2 0x28EE JUMPI PUSH4 0x4E487B71 PUSH1 0xE0 SHL PUSH1 0x0 MSTORE PUSH1 0x21 PUSH1 0x4 MSTORE PUSH1 0x24 PUSH1 0x0 REVERT JUMPDEST SWAP2 SWAP1 MSTORE SWAP1 JUMP JUMPDEST PUSH1 0x0 DUP3 NOT DUP3 GT ISZERO PUSH2 0x2907 JUMPI PUSH2 0x2907 PUSH2 0x2964 JUMP JUMPDEST POP ADD SWAP1 JUMP JUMPDEST PUSH1 0x0 DUP3 PUSH2 0x2929 JUMPI PUSH4 0x4E487B71 PUSH1 0xE0 SHL PUSH1 0x0 MSTORE PUSH1 0x12 PUSH1 0x4 MSTORE PUSH1 0x24 PUSH1 0x0 REVERT JUMPDEST POP DIV SWAP1 JUMP JUMPDEST PUSH1 0x0 DUP2 PUSH1 0x0 NOT DIV DUP4 GT DUP3 ISZERO ISZERO AND ISZERO PUSH2 0x2948 JUMPI PUSH2 0x2948 PUSH2 0x2964 JUMP JUMPDEST POP MUL SWAP1 JUMP JUMPDEST PUSH1 0x0 DUP3 DUP3 LT ISZERO PUSH2 0x295F JUMPI PUSH2 0x295F PUSH2 0x2964 JUMP JUMPDEST POP SUB SWAP1 JUMP JUMPDEST PUSH4 0x4E487B71 PUSH1 0xE0 SHL PUSH1 0x0 MSTORE PUSH1 0x11 PUSH1 0x4 MSTORE PUSH1 0x24 PUSH1 0x0 REVERT JUMPDEST PUSH4 0x4E487B71 PUSH1 0xE0 SHL PUSH1 0x0 MSTORE PUSH1 0x21 PUSH1 0x4 MSTORE PUSH1 0x24 PUSH1 0x0 REVERT JUMPDEST PUSH1 0x1 PUSH1 0x1 PUSH1 0xA0 SHL SUB DUP2 AND DUP2 EQ PUSH2 0x25AF JUMPI PUSH1 0x0 DUP1 REVERT INVALID LOG2 PUSH5 0x6970667358 0x22 SLT KECCAK256 MUL 0xCD 0x4B 0xA8 CALLVALUE PUSH30 0xC5F014920EEEC25A24C97FAF00E60A855779278672FD57480C8C64736F6C PUSH4 0x43000806 STOP CALLER "},"gasEstimates":{"creation":{"codeDepositCost":"2143000","executionCost":"infinite","totalCost":"infinite"},"external":{"COLLATERAL_DECIMALS()":"2329","INTEREST_RATE_DECIMALS()":"2330","LTV()":"2417","LTV_DECIMALS()":"2329","PriorLiqPriceCoef()":"2352","USDC()":"2404","borrow(uint256,uint256)":"infinite","borrowedByOption(uint256)":"4645","calculateUpcomingFee(uint256)":"infinite","collateralInfo(uint256)":"13386","collateralToken()":"2448","currentLiqPrice(uint256)":"infinite","currentPrice(uint256)":"infinite","exerciseByPriorLiqPrice(uint256)":"infinite","forcedExercise(uint256)":"infinite","interestRate()":"2329","liqPrice(uint256)":"infinite","liquidate(uint256)":"infinite","loanState(uint256)":"infinite","loanStateByPriorLiqPrice(uint256)":"infinite","lockOption(uint256)":"infinite","maxBorrowLimit(uint256)":"infinite","minBorrowLimit()":"2372","operationalPool()":"2470","owner()":"2442","pool()":"2450","priorLiqPrice(uint256)":"infinite","profitByOption(uint256)":"infinite","renounceOwnership()":"infinite","repay(uint256,uint256)":"infinite","setInterestRate(uint256)":"24577","setInterestRateDecimals(uint256)":"24555","setLTV(uint256)":"24603","setMinBorrowLimit(uint256)":"24621","setPool(address)":"26819","strategyType(address)":"2678","transferOwnership(address)":"infinite","unlock(uint256)":"infinite"},"internal":{"exerciseOption(uint256)":"infinite"}},"methodIdentifiers":{"COLLATERAL_DECIMALS()":"4ddde78d","INTEREST_RATE_DECIMALS()":"66234ffa","LTV()":"62965d8e","LTV_DECIMALS()":"9d38d064","PriorLiqPriceCoef()":"425378b4","USDC()":"89a30271","borrow(uint256,uint256)":"0ecbcdab","borrowedByOption(uint256)":"6c016c00","calculateUpcomingFee(uint256)":"484f1371","collateralInfo(uint256)":"24a6665e","collateralToken()":"b2016bd4","currentLiqPrice(uint256)":"2cb2f334","currentPrice(uint256)":"7a3c4c17","exerciseByPriorLiqPrice(uint256)":"333daaa0","forcedExercise(uint256)":"01d73641","interestRate()":"7c3a00fd","liqPrice(uint256)":"d88c6910","liquidate(uint256)":"415f1240","loanState(uint256)":"49b274ed","loanStateByPriorLiqPrice(uint256)":"365c7504","lockOption(uint256)":"8ac2edc1","maxBorrowLimit(uint256)":"9e3aa5b1","minBorrowLimit()":"e260d747","operationalPool()":"91319872","owner()":"8da5cb5b","pool()":"16f0115b","priorLiqPrice(uint256)":"f05735db","profitByOption(uint256)":"0833a6c6","renounceOwnership()":"715018a6","repay(uint256,uint256)":"d8aed145","setInterestRate(uint256)":"5f84f302","setInterestRateDecimals(uint256)":"587a03c2","setLTV(uint256)":"b13de266","setMinBorrowLimit(uint256)":"c3707709","setPool(address)":"4437152a","strategyType(address)":"357bcef0","transferOwnership(address)":"f2fde38b","unlock(uint256)":"6198e339"}},"storageLayout":{"storage":[{"astId":53,"contract":"contracts/DDL.sol:DDL","label":"_owner","offset":0,"slot":"0","type":"t_address"},{"astId":2787,"contract":"contracts/DDL.sol:DDL","label":"LTV","offset":0,"slot":"1","type":"t_uint256"},{"astId":2792,"contract":"contracts/DDL.sol:DDL","label":"LTV_DECIMALS","offset":0,"slot":"2","type":"t_uint256"},{"astId":2795,"contract":"contracts/DDL.sol:DDL","label":"collateralToken","offset":0,"slot":"3","type":"t_contract(IERC721)2147"},{"astId":2798,"contract":"contracts/DDL.sol:DDL","label":"operationalPool","offset":0,"slot":"4","type":"t_contract(IHegicOperationalTreasury)4305"},{"astId":2801,"contract":"contracts/DDL.sol:DDL","label":"USDC","offset":0,"slot":"5","type":"t_contract(IERC20)822"},{"astId":2804,"contract":"contracts/DDL.sol:DDL","label":"interestRate","offset":0,"slot":"6","type":"t_uint256"},{"astId":2809,"contract":"contracts/DDL.sol:DDL","label":"INTEREST_RATE_DECIMALS","offset":0,"slot":"7","type":"t_uint256"},{"astId":2811,"contract":"contracts/DDL.sol:DDL","label":"minBorrowLimit","offset":0,"slot":"8","type":"t_uint256"},{"astId":2813,"contract":"contracts/DDL.sol:DDL","label":"COLLATERAL_DECIMALS","offset":0,"slot":"9","type":"t_uint256"},{"astId":2815,"contract":"contracts/DDL.sol:DDL","label":"PriorLiqPriceCoef","offset":0,"slot":"10","type":"t_uint256"},{"astId":2818,"contract":"contracts/DDL.sol:DDL","label":"pool","offset":0,"slot":"11","type":"t_contract(IPoolDDL)4366"},{"astId":2849,"contract":"contracts/DDL.sol:DDL","label":"collateralInfo","offset":0,"slot":"12","type":"t_mapping(t_uint256,t_struct(CollateralInfo)2840_storage)"},{"astId":2854,"contract":"contracts/DDL.sol:DDL","label":"borrowedByOption","offset":0,"slot":"13","type":"t_mapping(t_uint256,t_struct(BorrowedByOption)2823_storage)"},{"astId":2859,"contract":"contracts/DDL.sol:DDL","label":"strategyType","offset":0,"slot":"14","type":"t_mapping(t_address,t_enum(HegicStrategyType)2844)"}],"types":{"t_address":{"encoding":"inplace","label":"address","numberOfBytes":"20"},"t_bool":{"encoding":"inplace","label":"bool","numberOfBytes":"1"},"t_contract(IERC20)822":{"encoding":"inplace","label":"contract IERC20","numberOfBytes":"20"},"t_contract(IERC721)2147":{"encoding":"inplace","label":"contract IERC721","numberOfBytes":"20"},"t_contract(IHegicOperationalTreasury)4305":{"encoding":"inplace","label":"contract IHegicOperationalTreasury","numberOfBytes":"20"},"t_contract(IPoolDDL)4366":{"encoding":"inplace","label":"contract IPoolDDL","numberOfBytes":"20"},"t_enum(HegicStrategyType)2844":{"encoding":"inplace","label":"enum DDL.HegicStrategyType","numberOfBytes":"1"},"t_mapping(t_address,t_enum(HegicStrategyType)2844)":{"encoding":"mapping","key":"t_address","label":"mapping(address => enum DDL.HegicStrategyType)","numberOfBytes":"32","value":"t_enum(HegicStrategyType)2844"},"t_mapping(t_uint256,t_struct(BorrowedByOption)2823_storage)":{"encoding":"mapping","key":"t_uint256","label":"mapping(uint256 => struct DDL.BorrowedByOption)","numberOfBytes":"32","value":"t_struct(BorrowedByOption)2823_storage"},"t_mapping(t_uint256,t_struct(CollateralInfo)2840_storage)":{"encoding":"mapping","key":"t_uint256","label":"mapping(uint256 => struct DDL.CollateralInfo)","numberOfBytes":"32","value":"t_struct(CollateralInfo)2840_storage"},"t_struct(BorrowedByOption)2823_storage":{"encoding":"inplace","label":"struct DDL.BorrowedByOption","members":[{"astId":2820,"contract":"contracts/DDL.sol:DDL","label":"borrowed","offset":0,"slot":"0","type":"t_uint256"},{"astId":2822,"contract":"contracts/DDL.sol:DDL","label":"newBorrowTimestamp","offset":0,"slot":"1","type":"t_uint256"}],"numberOfBytes":"64"},"t_struct(CollateralInfo)2840_storage":{"encoding":"inplace","label":"struct DDL.CollateralInfo","members":[{"astId":2836,"contract":"contracts/DDL.sol:DDL","label":"owner","offset":0,"slot":"0","type":"t_address"},{"astId":2839,"contract":"contracts/DDL.sol:DDL","label":"strategy","offset":0,"slot":"1","type":"t_struct(optionInfo)2834_storage"}],"numberOfBytes":"192"},"t_struct(optionInfo)2834_storage":{"encoding":"inplace","label":"struct DDL.optionInfo","members":[{"astId":2825,"contract":"contracts/DDL.sol:DDL","label":"strategyAddress","offset":0,"slot":"0","type":"t_address"},{"astId":2827,"contract":"contracts/DDL.sol:DDL","label":"amount","offset":0,"slot":"1","type":"t_uint256"},{"astId":2829,"contract":"contracts/DDL.sol:DDL","label":"strike","offset":0,"slot":"2","type":"t_uint256"},{"astId":2831,"contract":"contracts/DDL.sol:DDL","label":"expiration","offset":0,"slot":"3","type":"t_uint256"},{"astId":2833,"contract":"contracts/DDL.sol:DDL","label":"isLong","offset":0,"slot":"4","type":"t_bool"}],"numberOfBytes":"160"},"t_uint256":{"encoding":"inplace","label":"uint256","numberOfBytes":"32"}}},"userdoc":{"kind":"user","methods":{},"version":1}}}}