{
  "_format": "hh-sol-artifact-1",
  "contractName": "DDL",
  "sourceName": "contracts/DDL.sol",
  "abi": [
    {
      "inputs": [
        {
          "internalType": "address[4]",
          "name": "_arrLongHegicStrategy",
          "type": "address[4]"
        },
        {
          "internalType": "address[4]",
          "name": "_arrShortHegicStrategy",
          "type": "address[4]"
        },
        {
          "internalType": "contract IERC721",
          "name": "_collateralToken",
          "type": "address"
        },
        {
          "internalType": "contract IHegicOperationalTreasury",
          "name": "_operationalPool",
          "type": "address"
        },
        {
          "internalType": "contract IERC20",
          "name": "_USDC",
          "type": "address"
        },
        {
          "internalType": "uint256",
          "name": "_minBorrowLimit",
          "type": "uint256"
        },
        {
          "internalType": "uint256",
          "name": "_ltv",
          "type": "uint256"
        },
        {
          "internalType": "uint256",
          "name": "_COLLATERAL_DECIMALS",
          "type": "uint256"
        },
        {
          "internalType": "uint256",
          "name": "_PriorLiqPriceCoef",
          "type": "uint256"
        }
      ],
      "stateMutability": "nonpayable",
      "type": "constructor"
    },
    {
      "anonymous": false,
      "inputs": [
        {
          "indexed": true,
          "internalType": "address",
          "name": "user",
          "type": "address"
        },
        {
          "indexed": true,
          "internalType": "uint256",
          "name": "optionID",
          "type": "uint256"
        },
        {
          "indexed": false,
          "internalType": "uint256",
          "name": "amount",
          "type": "uint256"
        },
        {
          "indexed": false,
          "internalType": "address",
          "name": "strategy",
          "type": "address"
        },
        {
          "indexed": false,
          "internalType": "uint256",
          "name": "timestamp",
          "type": "uint256"
        }
      ],
      "name": "Borrow",
      "type": "event"
    },
    {
      "anonymous": false,
      "inputs": [
        {
          "indexed": true,
          "internalType": "address",
          "name": "user",
          "type": "address"
        },
        {
          "indexed": true,
          "internalType": "uint256",
          "name": "optionID",
          "type": "uint256"
        },
        {
          "indexed": false,
          "internalType": "uint256",
          "name": "userReturn",
          "type": "uint256"
        },
        {
          "indexed": false,
          "internalType": "uint256",
          "name": "poolReturn",
          "type": "uint256"
        },
        {
          "indexed": false,
          "internalType": "uint256",
          "name": "liqFee",
          "type": "uint256"
        }
      ],
      "name": "ExerciseByPriorLiqPrice",
      "type": "event"
    },
    {
      "anonymous": false,
      "inputs": [
        {
          "indexed": true,
          "internalType": "address",
          "name": "user",
          "type": "address"
        },
        {
          "indexed": true,
          "internalType": "uint256",
          "name": "optionID",
          "type": "uint256"
        },
        {
          "indexed": false,
          "internalType": "uint256",
          "name": "amount",
          "type": "uint256"
        },
        {
          "indexed": false,
          "internalType": "uint256",
          "name": "poolProfit",
          "type": "uint256"
        },
        {
          "indexed": false,
          "internalType": "uint256",
          "name": "liqFee",
          "type": "uint256"
        }
      ],
      "name": "ForcedExercise",
      "type": "event"
    },
    {
      "anonymous": false,
      "inputs": [
        {
          "indexed": true,
          "internalType": "address",
          "name": "user",
          "type": "address"
        },
        {
          "indexed": true,
          "internalType": "uint256",
          "name": "optionID",
          "type": "uint256"
        },
        {
          "indexed": false,
          "internalType": "uint256",
          "name": "amount",
          "type": "uint256"
        },
        {
          "indexed": false,
          "internalType": "uint256",
          "name": "poolProfit",
          "type": "uint256"
        },
        {
          "indexed": false,
          "internalType": "uint256",
          "name": "liqFee",
          "type": "uint256"
        }
      ],
      "name": "Liquidate",
      "type": "event"
    },
    {
      "anonymous": false,
      "inputs": [
        {
          "indexed": true,
          "internalType": "address",
          "name": "previousOwner",
          "type": "address"
        },
        {
          "indexed": true,
          "internalType": "address",
          "name": "newOwner",
          "type": "address"
        }
      ],
      "name": "OwnershipTransferred",
      "type": "event"
    },
    {
      "anonymous": false,
      "inputs": [
        {
          "indexed": true,
          "internalType": "address",
          "name": "user",
          "type": "address"
        },
        {
          "indexed": true,
          "internalType": "uint256",
          "name": "optionID",
          "type": "uint256"
        },
        {
          "indexed": false,
          "internalType": "uint256",
          "name": "amount",
          "type": "uint256"
        }
      ],
      "name": "Repay",
      "type": "event"
    },
    {
      "anonymous": false,
      "inputs": [
        {
          "indexed": true,
          "internalType": "address",
          "name": "user",
          "type": "address"
        },
        {
          "indexed": true,
          "internalType": "uint256",
          "name": "optionID",
          "type": "uint256"
        }
      ],
      "name": "Unlock",
      "type": "event"
    },
    {
      "inputs": [],
      "name": "COLLATERAL_DECIMALS",
      "outputs": [
        {
          "internalType": "uint256",
          "name": "",
          "type": "uint256"
        }
      ],
      "stateMutability": "view",
      "type": "function"
    },
    {
      "inputs": [],
      "name": "INTEREST_RATE_DECIMALS",
      "outputs": [
        {
          "internalType": "uint256",
          "name": "",
          "type": "uint256"
        }
      ],
      "stateMutability": "view",
      "type": "function"
    },
    {
      "inputs": [],
      "name": "LTV",
      "outputs": [
        {
          "internalType": "uint256",
          "name": "",
          "type": "uint256"
        }
      ],
      "stateMutability": "view",
      "type": "function"
    },
    {
      "inputs": [],
      "name": "LTV_DECIMALS",
      "outputs": [
        {
          "internalType": "uint256",
          "name": "",
          "type": "uint256"
        }
      ],
      "stateMutability": "view",
      "type": "function"
    },
    {
      "inputs": [],
      "name": "PriorLiqPriceCoef",
      "outputs": [
        {
          "internalType": "uint256",
          "name": "",
          "type": "uint256"
        }
      ],
      "stateMutability": "view",
      "type": "function"
    },
    {
      "inputs": [],
      "name": "USDC",
      "outputs": [
        {
          "internalType": "contract IERC20",
          "name": "",
          "type": "address"
        }
      ],
      "stateMutability": "view",
      "type": "function"
    },
    {
      "inputs": [
        {
          "internalType": "uint256",
          "name": "id",
          "type": "uint256"
        },
        {
          "internalType": "uint256",
          "name": "amount",
          "type": "uint256"
        }
      ],
      "name": "borrow",
      "outputs": [],
      "stateMutability": "nonpayable",
      "type": "function"
    },
    {
      "inputs": [
        {
          "internalType": "uint256",
          "name": "",
          "type": "uint256"
        }
      ],
      "name": "borrowedByOption",
      "outputs": [
        {
          "internalType": "uint256",
          "name": "borrowed",
          "type": "uint256"
        },
        {
          "internalType": "uint256",
          "name": "newBorrowTimestamp",
          "type": "uint256"
        }
      ],
      "stateMutability": "view",
      "type": "function"
    },
    {
      "inputs": [
        {
          "internalType": "uint256",
          "name": "id",
          "type": "uint256"
        }
      ],
      "name": "calculateUpcomingFee",
      "outputs": [
        {
          "internalType": "uint256",
          "name": "upcomingFee",
          "type": "uint256"
        }
      ],
      "stateMutability": "view",
      "type": "function"
    },
    {
      "inputs": [
        {
          "internalType": "uint256",
          "name": "",
          "type": "uint256"
        }
      ],
      "name": "collateralInfo",
      "outputs": [
        {
          "internalType": "address",
          "name": "owner",
          "type": "address"
        },
        {
          "components": [
            {
              "internalType": "address",
              "name": "strategyAddress",
              "type": "address"
            },
            {
              "internalType": "uint256",
              "name": "amount",
              "type": "uint256"
            },
            {
              "internalType": "uint256",
              "name": "strike",
              "type": "uint256"
            },
            {
              "internalType": "uint256",
              "name": "expiration",
              "type": "uint256"
            },
            {
              "internalType": "bool",
              "name": "isLong",
              "type": "bool"
            }
          ],
          "internalType": "struct DDL.optionInfo",
          "name": "strategy",
          "type": "tuple"
        }
      ],
      "stateMutability": "view",
      "type": "function"
    },
    {
      "inputs": [],
      "name": "collateralToken",
      "outputs": [
        {
          "internalType": "contract IERC721",
          "name": "",
          "type": "address"
        }
      ],
      "stateMutability": "view",
      "type": "function"
    },
    {
      "inputs": [
        {
          "internalType": "uint256",
          "name": "id",
          "type": "uint256"
        }
      ],
      "name": "currentLiqPrice",
      "outputs": [
        {
          "internalType": "uint256",
          "name": "price",
          "type": "uint256"
        }
      ],
      "stateMutability": "view",
      "type": "function"
    },
    {
      "inputs": [
        {
          "internalType": "uint256",
          "name": "id",
          "type": "uint256"
        }
      ],
      "name": "currentPrice",
      "outputs": [
        {
          "internalType": "uint256",
          "name": "price",
          "type": "uint256"
        }
      ],
      "stateMutability": "view",
      "type": "function"
    },
    {
      "inputs": [
        {
          "internalType": "uint256",
          "name": "id",
          "type": "uint256"
        }
      ],
      "name": "exerciseByPriorLiqPrice",
      "outputs": [],
      "stateMutability": "nonpayable",
      "type": "function"
    },
    {
      "inputs": [
        {
          "internalType": "uint256",
          "name": "id",
          "type": "uint256"
        }
      ],
      "name": "forcedExercise",
      "outputs": [],
      "stateMutability": "nonpayable",
      "type": "function"
    },
    {
      "inputs": [],
      "name": "interestRate",
      "outputs": [
        {
          "internalType": "uint256",
          "name": "",
          "type": "uint256"
        }
      ],
      "stateMutability": "view",
      "type": "function"
    },
    {
      "inputs": [
        {
          "internalType": "uint256",
          "name": "id",
          "type": "uint256"
        }
      ],
      "name": "liqPrice",
      "outputs": [
        {
          "internalType": "uint256",
          "name": "price",
          "type": "uint256"
        }
      ],
      "stateMutability": "view",
      "type": "function"
    },
    {
      "inputs": [
        {
          "internalType": "uint256",
          "name": "id",
          "type": "uint256"
        }
      ],
      "name": "liquidate",
      "outputs": [],
      "stateMutability": "nonpayable",
      "type": "function"
    },
    {
      "inputs": [
        {
          "internalType": "uint256",
          "name": "id",
          "type": "uint256"
        }
      ],
      "name": "loanState",
      "outputs": [
        {
          "internalType": "bool",
          "name": "",
          "type": "bool"
        }
      ],
      "stateMutability": "view",
      "type": "function"
    },
    {
      "inputs": [
        {
          "internalType": "uint256",
          "name": "id",
          "type": "uint256"
        }
      ],
      "name": "loanStateByPriorLiqPrice",
      "outputs": [
        {
          "internalType": "bool",
          "name": "",
          "type": "bool"
        }
      ],
      "stateMutability": "view",
      "type": "function"
    },
    {
      "inputs": [
        {
          "internalType": "uint256",
          "name": "id",
          "type": "uint256"
        }
      ],
      "name": "lockOption",
      "outputs": [],
      "stateMutability": "nonpayable",
      "type": "function"
    },
    {
      "inputs": [
        {
          "internalType": "uint256",
          "name": "id",
          "type": "uint256"
        }
      ],
      "name": "maxBorrowLimit",
      "outputs": [
        {
          "internalType": "uint256",
          "name": "",
          "type": "uint256"
        }
      ],
      "stateMutability": "view",
      "type": "function"
    },
    {
      "inputs": [],
      "name": "minBorrowLimit",
      "outputs": [
        {
          "internalType": "uint256",
          "name": "",
          "type": "uint256"
        }
      ],
      "stateMutability": "view",
      "type": "function"
    },
    {
      "inputs": [],
      "name": "operationalPool",
      "outputs": [
        {
          "internalType": "contract IHegicOperationalTreasury",
          "name": "",
          "type": "address"
        }
      ],
      "stateMutability": "view",
      "type": "function"
    },
    {
      "inputs": [],
      "name": "owner",
      "outputs": [
        {
          "internalType": "address",
          "name": "",
          "type": "address"
        }
      ],
      "stateMutability": "view",
      "type": "function"
    },
    {
      "inputs": [],
      "name": "pool",
      "outputs": [
        {
          "internalType": "contract IPoolDDL",
          "name": "",
          "type": "address"
        }
      ],
      "stateMutability": "view",
      "type": "function"
    },
    {
      "inputs": [
        {
          "internalType": "uint256",
          "name": "id",
          "type": "uint256"
        }
      ],
      "name": "priorLiqPrice",
      "outputs": [
        {
          "internalType": "uint256",
          "name": "price",
          "type": "uint256"
        }
      ],
      "stateMutability": "view",
      "type": "function"
    },
    {
      "inputs": [
        {
          "internalType": "uint256",
          "name": "id",
          "type": "uint256"
        }
      ],
      "name": "profitByOption",
      "outputs": [
        {
          "internalType": "uint256",
          "name": "profit",
          "type": "uint256"
        }
      ],
      "stateMutability": "view",
      "type": "function"
    },
    {
      "inputs": [],
      "name": "renounceOwnership",
      "outputs": [],
      "stateMutability": "nonpayable",
      "type": "function"
    },
    {
      "inputs": [
        {
          "internalType": "uint256",
          "name": "id",
          "type": "uint256"
        },
        {
          "internalType": "uint256",
          "name": "amount",
          "type": "uint256"
        }
      ],
      "name": "repay",
      "outputs": [],
      "stateMutability": "nonpayable",
      "type": "function"
    },
    {
      "inputs": [
        {
          "internalType": "uint256",
          "name": "value",
          "type": "uint256"
        }
      ],
      "name": "setInterestRate",
      "outputs": [],
      "stateMutability": "nonpayable",
      "type": "function"
    },
    {
      "inputs": [
        {
          "internalType": "uint256",
          "name": "value",
          "type": "uint256"
        }
      ],
      "name": "setInterestRateDecimals",
      "outputs": [],
      "stateMutability": "nonpayable",
      "type": "function"
    },
    {
      "inputs": [
        {
          "internalType": "uint256",
          "name": "value",
          "type": "uint256"
        }
      ],
      "name": "setLTV",
      "outputs": [],
      "stateMutability": "nonpayable",
      "type": "function"
    },
    {
      "inputs": [
        {
          "internalType": "uint256",
          "name": "value",
          "type": "uint256"
        }
      ],
      "name": "setMinBorrowLimit",
      "outputs": [],
      "stateMutability": "nonpayable",
      "type": "function"
    },
    {
      "inputs": [
        {
          "internalType": "address",
          "name": "value",
          "type": "address"
        }
      ],
      "name": "setPool",
      "outputs": [],
      "stateMutability": "nonpayable",
      "type": "function"
    },
    {
      "inputs": [
        {
          "internalType": "address",
          "name": "",
          "type": "address"
        }
      ],
      "name": "strategyType",
      "outputs": [
        {
          "internalType": "enum DDL.HegicStrategyType",
          "name": "",
          "type": "uint8"
        }
      ],
      "stateMutability": "view",
      "type": "function"
    },
    {
      "inputs": [
        {
          "internalType": "address",
          "name": "newOwner",
          "type": "address"
        }
      ],
      "name": "transferOwnership",
      "outputs": [],
      "stateMutability": "nonpayable",
      "type": "function"
    },
    {
      "inputs": [
        {
          "internalType": "uint256",
          "name": "id",
          "type": "uint256"
        }
      ],
      "name": "unlock",
      "outputs": [],
      "stateMutability": "nonpayable",
      "type": "function"
    }
  ],
  "bytecode": "0x60806040526127106002556a0fbce2c2bf9557000000006006556c0c9f2c9cd04674edea400000006007553480156200003757600080fd5b5060405162002ee538038062002ee58339810160408190526200005a91620002c4565b6200006533620001d0565b60005b6004811015620000e5576001600e60008c84600481106200008d576200008d620004cb565b602090810291909101516001600160a01b03168252810191909152604001600020805460ff19166001836002811115620000cb57620000cb620004b5565b021790555080620000dc8162000481565b91505062000068565b5060005b600481101562000166576002600e60008b84600481106200010e576200010e620004cb565b602090810291909101516001600160a01b03168252810191909152604001600020805460ff191660018360028111156200014c576200014c620004b5565b0217905550806200015d8162000481565b915050620000e9565b50600380546001600160a01b03808a166001600160a01b03199283161790925560048054898416908316179055600580549288169290911691909117905560088490556001839055620001bb82600a620003b6565b600955600a5550620004fa9650505050505050565b600080546001600160a01b038381166001600160a01b0319831681178455604051919092169283917f8be0079c531659141344cd1fd0a4f28419497f9722a3daafe3b4186f6b6457e09190a35050565b80516200022d81620004e1565b919050565b600082601f8301126200024457600080fd5b604051608081016001600160401b03811182821017156200027557634e487b7160e01b600052604160045260246000fd5b6040528083608081018610156200028b57600080fd5b60005b6004811015620002b957620002a38262000220565b835260209283019291909101906001016200028e565b509195945050505050565b60008060008060008060008060006101e08a8c031215620002e457600080fd5b620002f08b8b62000232565b9850620003018b60808c0162000232565b97506101008a01516200031481620004e1565b6101208b01519097506200032881620004e1565b6101408b01519096506200033c81620004e1565b809550506101608a015193506101808a015192506101a08a015191506101c08a015190509295985092959850929598565b600181815b80851115620003ae5781600019048211156200039257620003926200049f565b80851615620003a057918102915b93841c939080029062000372565b509250929050565b6000620003c48383620003cb565b9392505050565b600082620003dc575060016200047b565b81620003eb575060006200047b565b81600181146200040457600281146200040f576200042f565b60019150506200047b565b60ff8411156200042357620004236200049f565b50506001821b6200047b565b5060208310610133831016604e8410600b841016171562000454575081810a6200047b565b6200046083836200036d565b80600019048211156200047757620004776200049f565b0290505b92915050565b60006000198214156200049857620004986200049f565b5060010190565b634e487b7160e01b600052601160045260246000fd5b634e487b7160e01b600052602160045260246000fd5b634e487b7160e01b600052603260045260246000fd5b6001600160a01b0381168114620004f757600080fd5b50565b6129db806200050a6000396000f3fe608060405234801561001057600080fd5b50600436106102325760003560e01c806366234ffa116101305780639d38d064116100b8578063d88c69101161007c578063d88c691014610593578063d8aed145146105a6578063e260d747146105b9578063f05735db146105c2578063f2fde38b146105d557600080fd5b80639d38d0641461053e5780639e3aa5b114610547578063b13de2661461055a578063b2016bd41461056d578063c37077091461058057600080fd5b80637c3a00fd116100ff5780637c3a00fd146104eb57806389a30271146104f45780638ac2edc1146105075780638da5cb5b1461051a578063913198721461052b57600080fd5b806366234ffa1461048b5780636c016c0014610494578063715018a6146104d05780637a3c4c17146104d857600080fd5b8063415f1240116101be5780634ddde78d116101825780634ddde78d14610440578063587a03c2146104495780635f84f3021461045c5780636198e3391461046f57806362965d8e1461048257600080fd5b8063415f1240146103eb578063425378b4146103fe5780634437152a14610407578063484f13711461041a57806349b274ed1461042d57600080fd5b806324a6665e1161020557806324a6665e146102b05780632cb2f33414610372578063333daaa014610385578063357bcef014610398578063365c7504146103c857600080fd5b806301d73641146102375780630833a6c61461024c5780630ecbcdab1461027257806316f0115b14610285575b600080fd5b61024a61024536600461280f565b6105e8565b005b61025f61025a36600461280f565b6108b6565b6040519081526020015b60405180910390f35b61024a610280366004612841565b6109bb565b600b54610298906001600160a01b031681565b6040516001600160a01b039091168152602001610269565b6103236102be36600461280f565b600c602090815260009182526040918290208054835160a08101855260018301546001600160a01b0390811682526002840154948201949094526003830154948101949094526004820154606085015260059091015460ff1615156080840152169082565b604080516001600160a01b0393841681528251909316602080850191909152820151838201528101516060808401919091528101516080808401919091520151151560a082015260c001610269565b61025f61038036600461280f565b611039565b61024a61039336600461280f565b61109f565b6103bb6103a6366004612705565b600e6020526000908152604090205460ff1681565b60405161026991906128cc565b6103db6103d636600461280f565b6113a0565b6040519015158152602001610269565b61024a6103f936600461280f565b6113f1565b61025f600a5481565b61024a610415366004612705565b611694565b61025f61042836600461280f565b6116be565b6103db61043b36600461280f565b611727565b61025f60095481565b61024a61045736600461280f565b611754565b61024a61046a36600461280f565b611761565b61024a61047d36600461280f565b61176e565b61025f60015481565b61025f60075481565b6104bb6104a236600461280f565b600d602052600090815260409020805460019091015482565b60408051928352602083019190915201610269565b61024a611869565b61025f6104e636600461280f565b61187d565b61025f60065481565b600554610298906001600160a01b031681565b61024a61051536600461280f565b611988565b6000546001600160a01b0316610298565b600454610298906001600160a01b031681565b61025f60025481565b61025f61055536600461280f565b611eb3565b61024a61056836600461280f565b611ede565b600354610298906001600160a01b031681565b61024a61058e36600461280f565b611f2d565b61025f6105a136600461280f565b611f3a565b61024a6105b4366004612841565b6120f7565b61025f60085481565b61025f6105d036600461280f565b6123e5565b61024a6105e3366004612705565b612539565b6000818152600c6020526040902060040154610607906107089061294d565b421161061257600080fd5b6000818152600d602052604081209061062a836108b6565b9050610635836125b2565b815460009082111561079a57825461064d908361294d565b600554600b549192506001600160a01b039081169163a9059cbb9116606461067685605a61292e565b610680919061290c565b865461068c91906128f4565b6040518363ffffffff1660e01b81526004016106a99291906128b3565b602060405180830381600087803b1580156106c357600080fd5b505af11580156106d7573d6000803e3d6000fd5b505050506040513d601f19601f820116820180604052508101906106fb919061273f565b506005546001600160a01b031663a9059cbb33606461071b85600a61292e565b610725919061290c565b6040518363ffffffff1660e01b81526004016107429291906128b3565b602060405180830381600087803b15801561075c57600080fd5b505af1158015610770573d6000803e3d6000fd5b505050506040513d601f19601f82011682018060405250810190610794919061273f565b50610824565b600554600b5460405163a9059cbb60e01b81526001600160a01b039283169263a9059cbb926107d09291169086906004016128b3565b602060405180830381600087803b1580156107ea57600080fd5b505af11580156107fe573d6000803e3d6000fd5b505050506040513d601f19601f82011682018060405250810190610822919061273f565b505b6000848152600c6020526040902054835485916001600160a01b0316907f7510f2e218f218a66429c54a712775c000c398117e38b240be7ef52310a51e8290606461087086605a61292e565b61087a919061290c565b606461088787600a61292e565b610891919061290c565b604080519384526020840192909252908201526060015b60405180910390a350505050565b60048054604051633755269b60e01b815291820183905260009182916001600160a01b031690633755269b9060240160a06040518083038186803b1580156108fd57600080fd5b505afa158015610911573d6000803e3d6000fd5b505050506040513d601f19601f820116820180604052508101906109359190612761565b5050604051637632bffb60e01b815260048101879052919350506001600160a01b0383169150637632bffb9060240160206040518083038186803b15801561097c57600080fd5b505afa158015610990573d6000803e3d6000fd5b505050506040513d601f19601f820116820180604052508101906109b49190612828565b9392505050565b600b60009054906101000a90046001600160a01b03166001600160a01b031663ae3050e16040518163ffffffff1660e01b815260040160206040518083038186803b158015610a0957600080fd5b505afa158015610a1d573d6000803e3d6000fd5b505050506040513d601f19601f82011682018060405250810190610a41919061273f565b610a825760405162461bcd60e51b815260206004820152600d60248201526c1c185d5cd95119511953195b99609a1b60448201526064015b60405180910390fd5b6000828152600d6020526040812090610a9a84611eb3565b60048054604051633755269b60e01b81529182018790529192506000916001600160a01b031690633755269b9060240160a06040518083038186803b158015610ae257600080fd5b505afa158015610af6573d6000803e3d6000fd5b505050506040513d601f19601f82011682018060405250810190610b1a9190612761565b5050505090506000600b60009054906101000a90046001600160a01b03166001600160a01b03166312b583496040518163ffffffff1660e01b815260040160206040518083038186803b158015610b7057600080fd5b505afa158015610b84573d6000803e3d6000fd5b505050506040513d601f19601f82011682018060405250810190610ba89190612828565b9050600854851015610bfc5760405162461bcd60e51b815260206004820152601a60248201527f616d6f756e74206c657373206d696e426f72726f774c696d69740000000000006044820152606401610a79565b83548390610c0a90876128f4565b1115610c645760405162461bcd60e51b8152602060048201526024808201527f616d6f756e74202b20646174612e626f72726f776564206c657373206d61784c6044820152631a5b5a5d60e21b6064820152608401610a79565b6001826001811115610c7857610c7861297a565b14610cb55760405162461bcd60e51b815260206004820152600d60248201526c696e76616c696420737461746560981b6044820152606401610a79565b6000868152600c60205260409020546001600160a01b03163314610d135760405162461bcd60e51b81526020600482015260156024820152743cb7ba9030b932903737ba103a34329037bbb732b960591b6044820152606401610a79565b80851115610d715760405162461bcd60e51b815260206004820152602560248201527f7468657265206973206e6f7420656e6f756768206d6f6e657920696e20746865604482015264081c1bdbdb60da1b6064820152608401610a79565b6000868152600c6020526040902060040154610d9090610e109061294d565b421115610dca5760405162461bcd60e51b8152602060048201526008602482015267746f6f206c61746560c01b6044820152606401610a79565b6000868152600c602052604090206005015460ff1615610e3f57610ded866123e5565b610df68761187d565b11610e3a5760405162461bcd60e51b815260206004820152601460248201527374686520707269636520697320746f6f206c6f7760601b6044820152606401610a79565b610e96565b610e48866123e5565b610e518761187d565b10610e965760405162461bcd60e51b81526020600482015260156024820152740e8d0ca40e0e4d2c6ca40d2e640e8dede40d0d2ced605b1b6044820152606401610a79565b6000610ea1876116be565b9050604051806040016040528082876000015489610ebf91906128f4565b610ec991906128f4565b8152426020918201526000898152600d82526040902082518155910151600190910155600b546001600160a01b0316632bc355ca610f0783896128f4565b6040518263ffffffff1660e01b8152600401610f2591815260200190565b600060405180830381600087803b158015610f3f57600080fd5b505af1158015610f53573d6000803e3d6000fd5b5050600b5460008a8152600c602052604090819020549051633419e74d60e21b81526001600160a01b03928316945063d0679d349350610f9b92909116908a906004016128b3565b600060405180830381600087803b158015610fb557600080fd5b505af1158015610fc9573d6000803e3d6000fd5b5050506000888152600c60209081526040918290206001015482518a81526001600160a01b03909116918101919091524281830152905189925033917f1fdbee5d1bd2901710e8945918b1a052ce67662661a2ccbf68420e4e430f8dab919081900360600190a350505050505050565b6000818152600c60205260408120600581015460ff161561107e5761105d83611f3a565b611066846123e5565b1115611075576109b4836123e5565b6109b483611f3a565b61108783611f3a565b611090846123e5565b1015611075576109b4836123e5565b6110a8816113a0565b6110e45760405162461bcd60e51b815260206004820152600d60248201526c696e76616c696420707269636560981b6044820152606401610a79565b6000818152600d60205260408120906110fc836108b6565b9050611107836125b2565b600554600b54835460405163a9059cbb60e01b81526001600160a01b039384169363a9059cbb9361113d939116916004016128b3565b602060405180830381600087803b15801561115757600080fd5b505af115801561116b573d6000803e3d6000fd5b505050506040513d601f19601f8201168201806040525081019061118f919061273f565b506005546000848152600c602052604090205483546001600160a01b039283169263a9059cbb9216906064906111c690600a61292e565b6111d0919061290c565b85546111dc91906128f4565b6111e6908561294d565b6040518363ffffffff1660e01b81526004016112039291906128b3565b602060405180830381600087803b15801561121d57600080fd5b505af1158015611231573d6000803e3d6000fd5b505050506040513d601f19601f82011682018060405250810190611255919061273f565b5060055482546001600160a01b039091169063a9059cbb90339060649061127d90600a61292e565b611287919061290c565b6040518363ffffffff1660e01b81526004016112a49291906128b3565b602060405180830381600087803b1580156112be57600080fd5b505af11580156112d2573d6000803e3d6000fd5b505050506040513d601f19601f820116820180604052508101906112f6919061273f565b506000838152600c6020526040902054825484916001600160a01b0316907ff28455920a5bcb3aeff7a6bbdd4fed497e6f159330fe161026128b5c381bdd909060649061134490600a61292e565b61134e919061290c565b855461135a91906128f4565b611364908561294d565b8554606461137382600a61292e565b61137d919061290c565b6040805193845260208401929092529082015260600160405180910390a3505050565b6000818152600c60205260408120600581015460ff16156113d6576113c4836123e5565b6113cd8461187d565b11159392505050565b6113df836123e5565b6113e88461187d565b10159392505050565b6113fa81611727565b6114365760405162461bcd60e51b815260206004820152600d60248201526c696e76616c696420707269636560981b6044820152606401610a79565b6000818152600d602052604081209061144e836108b6565b9050611459836125b2565b81546000908211156115be578254611471908361294d565b600554600b549192506001600160a01b039081169163a9059cbb9116606461149a85605a61292e565b6114a4919061290c565b86546114b091906128f4565b6040518363ffffffff1660e01b81526004016114cd9291906128b3565b602060405180830381600087803b1580156114e757600080fd5b505af11580156114fb573d6000803e3d6000fd5b505050506040513d601f19601f8201168201806040525081019061151f919061273f565b506005546001600160a01b031663a9059cbb33606461153f85600a61292e565b611549919061290c565b6040518363ffffffff1660e01b81526004016115669291906128b3565b602060405180830381600087803b15801561158057600080fd5b505af1158015611594573d6000803e3d6000fd5b505050506040513d601f19601f820116820180604052508101906115b8919061273f565b50611648565b600554600b5460405163a9059cbb60e01b81526001600160a01b039283169263a9059cbb926115f49291169086906004016128b3565b602060405180830381600087803b15801561160e57600080fd5b505af1158015611622573d6000803e3d6000fd5b505050506040513d601f19601f82011682018060405250810190611646919061273f565b505b6000848152600c6020526040902054835485916001600160a01b0316907f4e91025e01b2329df1ec1067d27aafec4d1c41f682ccd794dee04321e0b1e8dc90606461087086605a61292e565b61169c612625565b600b80546001600160a01b0319166001600160a01b0392909216919091179055565b6000818152600d6020526040812060018101548290603c906116e0904261294d565b6116ea919061290c565b9050600754600654826116fd919061292e565b835461170b9060649061290c565b611715919061292e565b61171f919061290c565b949350505050565b6000818152600c60205260408120600581015460ff161561174b576113c483611f3a565b6113df83611f3a565b61175c612625565b600755565b611769612625565b600655565b6000818152600d6020526040902054156117be5760405162461bcd60e51b81526020600482015260116024820152701bdc1d1a5bdb881a5cc8189b1bd8dad959607a1b6044820152606401610a79565b6003546000828152600c6020526040908190205490516323b872dd60e01b81523060048201526001600160a01b039182166024820152604481018490529116906323b872dd90606401600060405180830381600087803b15801561182157600080fd5b505af1158015611835573d6000803e3d6000fd5b50506040518392503391507f6381d9813cabeb57471b5a7e05078e64845ccdb563146a6911d536f24ce960f190600090a350565b611871612625565b61187b600061267f565b565b6000818152600c6020908152604080832060018101548251635c4443cf60e11b81529251919385936001600160a01b039092169263b888879e926004808201939291829003018186803b1580156118d357600080fd5b505afa1580156118e7573d6000803e3d6000fd5b505050506040513d601f19601f8201168201806040525081019061190b9190612722565b6001600160a01b031663feaf968c6040518163ffffffff1660e01b815260040160a06040518083038186803b15801561194357600080fd5b505afa158015611957573d6000803e3d6000fd5b505050506040513d601f19601f8201168201806040525081019061197b9190612863565b5091979650505050505050565b600b60009054906101000a90046001600160a01b03166001600160a01b031663ae3050e16040518163ffffffff1660e01b815260040160206040518083038186803b1580156119d657600080fd5b505afa1580156119ea573d6000803e3d6000fd5b505050506040513d601f19601f82011682018060405250810190611a0e919061273f565b611a4a5760405162461bcd60e51b815260206004820152600d60248201526c1c185d5cd95119511953195b99609a1b6044820152606401610a79565b60048054604051633755269b60e01b8152918201839052600091829182916001600160a01b0390911690633755269b9060240160a06040518083038186803b158015611a9557600080fd5b505afa158015611aa9573d6000803e3d6000fd5b505050506040513d601f19601f82011682018060405250810190611acd9190612761565b9450505092509250610e108163ffffffff16611ae9919061294d565b421115611b235760405162461bcd60e51b8152602060048201526008602482015267746f6f206c61746560c01b6044820152606401610a79565b6040516335b2346d60e21b81526004810185905260009081906001600160a01b0385169063d6c8d1b490602401604080518083038186803b158015611b6757600080fd5b505afa158015611b7b573d6000803e3d6000fd5b505050506040513d601f19601f82011682018060405250810190611b9f91906127dc565b90925090506001856001811115611bb857611bb861297a565b14611bf85760405162461bcd60e51b815260206004820152601060248201526f6f7074696f6e2069732061637469766560801b6044820152606401610a79565b6003546040516331a9108f60e11b81526004810188905233916001600160a01b031690636352211e9060240160206040518083038186803b158015611c3c57600080fd5b505afa158015611c50573d6000803e3d6000fd5b505050506040513d601f19601f82011682018060405250810190611c749190612722565b6001600160a01b031614611cba5760405162461bcd60e51b815260206004820152600d60248201526c3cb7ba903737ba1037bbb732b960991b6044820152606401610a79565b6001600160a01b0384166000908152600e602052604081205460ff166002811115611ce757611ce761297a565b1415611d2e5760405162461bcd60e51b81526020600482015260166024820152751cdd1c985d1959de481b9bdd081cdd5c1c1bdc9d195960521b6044820152606401610a79565b6003546040516323b872dd60e01b8152336004820152306024820152604481018890526001600160a01b03909116906323b872dd90606401600060405180830381600087803b158015611d8057600080fd5b505af1158015611d94573d6000803e3d6000fd5b506000925060019150611da49050565b6001600160a01b0386166000908152600e602052604090205460ff166002811115611dd157611dd161297a565b14611ddd576000611de0565b60015b604080518082018252338152815160a0810183526001600160a01b0398891681526001600160801b03968716602082810191909152959096168683015263ffffffff9096166060808701919091529115156080808701919091528487019586526000998a52600c855298819020955186549088166001600160a01b03199182161787559451805160018801805491909916961695909517909655918301516002850155509281015160038301559182015160048201559201516005909201805492151560ff199093169290921790915550565b6000600154600254611ec4846108b6565b611ece919061290c565b611ed8919061292e565b92915050565b611ee6612625565b611f40811115611f285760405162461bcd60e51b815260206004820152600d60248201526c696e76616c69642076616c756560981b6044820152606401610a79565b600155565b611f35612625565b600855565b6000818152600d60209081526040808320600c909252808320600480549251633755269b60e01b8152908101869052909184916001600160a01b0390911690633755269b9060240160a06040518083038186803b158015611f9a57600080fd5b505afa158015611fae573d6000803e3d6000fd5b505050506040513d601f19601f82011682018060405250810190611fd29190612761565b505050915050600080826001600160a01b031663d6c8d1b4886040518263ffffffff1660e01b815260040161200991815260200190565b604080518083038186803b15801561202057600080fd5b505afa158015612034573d6000803e3d6000fd5b505050506040513d601f19601f8201168201806040525081019061205891906127dc565b6005860154919350915060ff16156120b65760095485546001600160801b038416916120839161292e565b61208d919061290c565b61209890607861292e565b6120ab906001600160801b0383166128f4565b979650505050505050565b60095485546001600160801b038416916120cf9161292e565b6120d9919061290c565b6120e490607861292e565b6120ab906001600160801b03831661294d565b6000828152600d60205260409020546121445760405162461bcd60e51b815260206004820152600f60248201526e1bdc1d1a5bdb881c995919595b5959608a1b6044820152606401610a79565b600061214f836116be565b6000848152600d602052604090205490915061216c9082906128f4565b8211156121ad5760405162461bcd60e51b815260206004820152600f60248201526e1d1bdbc81b5d58da08185b5bdd5b9d608a1b6044820152606401610a79565b6000838152600c60205260409020546001600160a01b031633146121d057600080fd5b6000838152600d602052604081205483906121ec9084906128f4565b6121f6919061294d565b600b549091506001600160a01b0316631b45a68d612214848661294d565b6040518263ffffffff1660e01b815260040161223291815260200190565b600060405180830381600087803b15801561224c57600080fd5b505af1158015612260573d6000803e3d6000fd5b505060408051808201825284815242602080830191825260008a8152600d8252848120935184559151600190930192909255600554600c9092528290205491516323b872dd60e01b81526001600160a01b03928316600482015230602482015260448101889052911692506323b872dd9150606401602060405180830381600087803b1580156122ef57600080fd5b505af1158015612303573d6000803e3d6000fd5b505050506040513d601f19601f82011682018060405250810190612327919061273f565b50600554600b5460405163a9059cbb60e01b81526001600160a01b039283169263a9059cbb9261235e9291169087906004016128b3565b602060405180830381600087803b15801561237857600080fd5b505af115801561238c573d6000803e3d6000fd5b505050506040513d601f19601f820116820180604052508101906123b0919061273f565b50604051838152849033907f77c6871227e5d2dec8dadd5354f78453203e22e669cd0ec4c19d9a8c5edb31d0906020016108a8565b60048054604051633755269b60e01b815291820183905260009182916001600160a01b031690633755269b9060240160a06040518083038186803b15801561242c57600080fd5b505afa158015612440573d6000803e3d6000fd5b505050506040513d601f19601f820116820180604052508101906124649190612761565b50506040516335b2346d60e21b81526004810187905291935060009250506001600160a01b0383169063d6c8d1b490602401604080518083038186803b1580156124ad57600080fd5b505afa1580156124c1573d6000803e3d6000fd5b505050506040513d601f19601f820116820180604052508101906124e591906127dc565b6000868152600c602052604090206005015490925060ff16159050612528576064600a54606461251591906128f4565b611715906001600160801b03841661292e565b6064600a546064612515919061294d565b612541612625565b6001600160a01b0381166125a65760405162461bcd60e51b815260206004820152602660248201527f4f776e61626c653a206e6577206f776e657220697320746865207a65726f206160448201526564647265737360d01b6064820152608401610a79565b6125af8161267f565b50565b6000818152600c6020526040908190206001810154915163b07f0a4160e01b81526004810184905290916001600160a01b03169063b07f0a4190602401600060405180830381600087803b15801561260957600080fd5b505af115801561261d573d6000803e3d6000fd5b505050505050565b6000546001600160a01b0316331461187b5760405162461bcd60e51b815260206004820181905260248201527f4f776e61626c653a2063616c6c6572206973206e6f7420746865206f776e65726044820152606401610a79565b600080546001600160a01b038381166001600160a01b0319831681178455604051919092169283917f8be0079c531659141344cd1fd0a4f28419497f9722a3daafe3b4186f6b6457e09190a35050565b80516001600160801b03811681146126e657600080fd5b919050565b805169ffffffffffffffffffff811681146126e657600080fd5b60006020828403121561271757600080fd5b81356109b481612990565b60006020828403121561273457600080fd5b81516109b481612990565b60006020828403121561275157600080fd5b815180151581146109b457600080fd5b600080600080600060a0868803121561277957600080fd5b85516002811061278857600080fd5b602087015190955061279981612990565b93506127a7604087016126cf565b92506127b5606087016126cf565b9150608086015163ffffffff811681146127ce57600080fd5b809150509295509295909350565b600080604083850312156127ef57600080fd5b6127f8836126cf565b9150612806602084016126cf565b90509250929050565b60006020828403121561282157600080fd5b5035919050565b60006020828403121561283a57600080fd5b5051919050565b6000806040838503121561285457600080fd5b50508035926020909101359150565b600080600080600060a0868803121561287b57600080fd5b612884866126eb565b94506020860151935060408601519250606086015191506128a7608087016126eb565b90509295509295909350565b6001600160a01b03929092168252602082015260400190565b60208101600383106128ee57634e487b7160e01b600052602160045260246000fd5b91905290565b6000821982111561290757612907612964565b500190565b60008261292957634e487b7160e01b600052601260045260246000fd5b500490565b600081600019048311821515161561294857612948612964565b500290565b60008282101561295f5761295f612964565b500390565b634e487b7160e01b600052601160045260246000fd5b634e487b7160e01b600052602160045260246000fd5b6001600160a01b03811681146125af57600080fdfea264697066735822122002cd4ba8347dc5f014920eeec25a24c97faf00e60a855779278672fd57480c8c64736f6c63430008060033",
  "linkReferences": {},
  "deployedLinkReferences": {}
}